{"abi":[{"inputs":[],"stateMutability":"nonpayable","type":"constructor","name":"constructor"},{"inputs":[{"internalType":"uint256","name":"","type":"uint256"}],"name":"Candidates","outputs":[{"internalType":"string","name":"name","type":"string"},{"internalType":"uint256","name":"voteCount","type":"uint256"}],"stateMutability":"view","type":"function"},{"inputs":[{"internalType":"address","name":"","type":"address"}],"name":"Voters","outputs":[{"internalType":"bool","name":"isauthorised","type":"bool"},{"internalType":"bool","name":"hasVoted","type":"bool"}],"stateMutability":"view","type":"function"},{"inputs":[{"internalType":"string","name":"_name","type":"string"}],"name":"addCandidate","outputs":[],"stateMutability":"nonpayable","type":"function"},{"inputs":[{"internalType":"address","name":"a","type":"address"}],"name":"addVoter","outputs":[],"stateMutability":"nonpayable","type":"function"},{"inputs":[],"name":"endVote","outputs":[],"stateMutability":"nonpayable","type":"function"},{"inputs":[],"name":"getCandidateArray","outputs":[{"components":[{"internalType":"string","name":"name","type":"string"},{"internalType":"uint256","name":"voteCount","type":"uint256"}],"internalType":"struct Vote.VCandidate[]","name":"","type":"tuple[]"}],"stateMutability":"view","type":"function"},{"inputs":[],"name":"owner","outputs":[{"internalType":"address","name":"","type":"address"}],"stateMutability":"view","type":"function"},{"inputs":[{"internalType":"uint256","name":"_time","type":"uint256"}],"name":"startVote","outputs":[],"stateMutability":"nonpayable","type":"function"},{"inputs":[],"name":"timeleft","outputs":[{"internalType":"int256","name":"","type":"int256"}],"stateMutability":"view","type":"function"},{"inputs":[],"name":"total_cand","outputs":[{"internalType":"uint256","name":"","type":"uint256"}],"stateMutability":"view","type":"function"},{"inputs":[{"internalType":"uint256","name":"Index","type":"uint256"}],"name":"voteCandidate","outputs":[],"stateMutability":"nonpayable","type":"function"},{"inputs":[],"name":"vote_state","outputs":[{"internalType":"enum Vote.VOTE_STATE","name":"","type":"uint8"}],"stateMutability":"view","type":"function"},{"inputs":[],"name":"winner","outputs":[{"internalType":"uint256","name":"","type":"uint256"}],"stateMutability":"view","type":"function"}],"bytecode":"6080604052600060025534801561001557600080fd5b5060058054336001600160a81b031990911617600160a01b179055610b2f8061003f6000396000f3fe608060405234801561001057600080fd5b50600436106100cf5760003560e01c806368c74b531161008c578063b922394611610066578063b9223946146101b9578063dfbf53ae146101c1578063f4ab9adf146101ca578063fdedaa8a146101dd57600080fd5b806368c74b53146101735780638c08a4dc1461017b5780638da5cb5b1461018e57600080fd5b806309c56e64146100d45780631f1f8ca2146100f2578063290e9212146101135780633f22052414610134578063462e91ec146101495780636352b20c1461015c575b600080fd5b6100dc610220565b6040516100e99190610855565b60405180910390f35b60055461010690600160a01b900460ff1681565b6040516100e991906108e1565b610126610121366004610909565b61031b565b6040516100e9929190610922565b610147610142366004610909565b6103d7565b005b61014761015736600461095a565b610471565b61016560025481565b6040519081526020016100e9565b61016561050b565b610147610189366004610909565b610520565b6005546101a1906001600160a01b031681565b6040516001600160a01b0390911681526020016100e9565b6101476106c5565b61016560045481565b6101476101d8366004610a0b565b610733565b6102096101eb366004610a0b565b60006020819052908152604090205460ff8082169161010090041682565b6040805192151583529015156020830152016100e9565b60606001805480602002602001604051908101604052809291908181526020016000905b82821015610312578382906000526020600020906002020160405180604001604052908160008201805461027790610a3b565b80601f01602080910402602001604051908101604052809291908181526020018280546102a390610a3b565b80156102f05780601f106102c5576101008083540402835291602001916102f0565b820191906000526020600020905b8154815290600101906020018083116102d357829003601f168201915b5050505050815260200160018201548152505081526020019060010190610244565b50505050905090565b6001818154811061032b57600080fd5b906000526020600020906002020160009150905080600001805461034e90610a3b565b80601f016020809104026020016040519081016040528092919081815260200182805461037a90610a3b565b80156103c75780601f1061039c576101008083540402835291602001916103c7565b820191906000526020600020905b8154815290600101906020018083116103aa57829003601f168201915b5050505050908060010154905082565b6005546001600160a01b031633146103ee57600080fd5b6001600554600160a01b900460ff16600181111561040e5761040e6108cb565b146104545760405162461bcd60e51b815260206004820152601160248201527010d85b9d081899481a5b9a5d1a585d1959607a1b60448201526064015b60405180910390fd5b6005805460ff60a01b1916905561046b8142610a8c565b60035550565b6005546001600160a01b0316331461048857600080fd5b604080518082019091528181526000602080830182905260018054808201825592528251805160029093027fb10e2d527612073b26eecdfd717e6a320cf44b4afac2b0732d9fcbe2b7fa0cf601926104e3928492019061076f565b506020820151816001015550506001600260008282546105039190610a8c565b909155505050565b60004260035461051b9190610aa4565b905090565b6000426003546105309190610aa4565b136105695760405162461bcd60e51b815260206004820152600960248201526874696d6520656e647360b81b604482015260640161044b565b6000600554600160a01b900460ff166001811115610589576105896108cb565b146105c95760405162461bcd60e51b815260206004820152601060248201526f1d9bdd19481b9bdd081cdd185c9d195960821b604482015260640161044b565b3360009081526020819052604090205460ff1615156001146106185760405162461bcd60e51b81526020600482015260086024820152672737903b37ba32b960c11b604482015260640161044b565b33600090815260208190526040902054610100900460ff161561066d5760405162461bcd60e51b815260206004820152600d60248201526c105b1c9958591e481d9bdd1959609a1b604482015260640161044b565b600180828154811061068157610681610ae3565b906000526020600020906002020160010160008282546106a19190610a8c565b9091555050336000908152602081905260409020805461ff00191661010017905550565b6005546001600160a01b031633146106dc57600080fd5b6001426003546106ec9190610aa4565b126107255760405162461bcd60e51b81526020600482015260096024820152681d1a5b59481b19599d60ba1b604482015260640161044b565b6005546001600160a01b0316ff5b6005546001600160a01b0316331461074a57600080fd5b6001600160a01b03166000908152602081905260409020805461ffff19166001179055565b82805461077b90610a3b565b90600052602060002090601f01602090048101928261079d57600085556107e3565b82601f106107b657805160ff19168380011785556107e3565b828001600101855582156107e3579182015b828111156107e35782518255916020019190600101906107c8565b506107ef9291506107f3565b5090565b5b808211156107ef57600081556001016107f4565b6000815180845260005b8181101561082e57602081850181015186830182015201610812565b81811115610840576000602083870101525b50601f01601f19169290920160200192915050565b60006020808301818452808551808352604092508286019150828160051b87010184880160005b838110156108bd57888303603f19018552815180518785526108a088860182610808565b91890151948901949094529487019492509086019060010161087c565b509098975050505050505050565b634e487b7160e01b600052602160045260246000fd5b602081016002831061090357634e487b7160e01b600052602160045260246000fd5b91905290565b60006020828403121561091b57600080fd5b5035919050565b6040815260006109356040830185610808565b90508260208301529392505050565b634e487b7160e01b600052604160045260246000fd5b60006020828403121561096c57600080fd5b813567ffffffffffffffff8082111561098457600080fd5b818401915084601f83011261099857600080fd5b8135818111156109aa576109aa610944565b604051601f8201601f19908116603f011681019083821181831017156109d2576109d2610944565b816040528281528760208487010111156109eb57600080fd5b826020860160208301376000928101602001929092525095945050505050565b600060208284031215610a1d57600080fd5b81356001600160a01b0381168114610a3457600080fd5b9392505050565b600181811c90821680610a4f57607f821691505b60208210811415610a7057634e487b7160e01b600052602260045260246000fd5b50919050565b634e487b7160e01b600052601160045260246000fd5b60008219821115610a9f57610a9f610a76565b500190565b60008083128015600160ff1b850184121615610ac257610ac2610a76565b6001600160ff1b0384018313811615610add57610add610a76565b50500390565b634e487b7160e01b600052603260045260246000fdfea2646970667358221220736dbcf0d13df988aed7b712d4613dd46713f3c939386d8f6841c90ab568910364736f6c63430008090033","bytecodeSha1":"3d10cca84ee73c861b1131a48041107624ec0007","compiler":{"evm_version":"istanbul","optimizer":{"enabled":true,"runs":200},"version":"0.8.9+commit.e5eed63a"},"contractName":"Vote","language":"Solidity","natspec":{"kind":"dev","methods":{},"version":1},"opcodes":"PUSH1 0x80 PUSH1 0x40 MSTORE CALLVALUE DUP1 ISZERO PUSH2 0x10 JUMPI PUSH1 0x0 DUP1 REVERT JUMPDEST POP PUSH1 0x4 CALLDATASIZE LT PUSH2 0xCF JUMPI PUSH1 0x0 CALLDATALOAD PUSH1 0xE0 SHR DUP1 PUSH4 0x68C74B53 GT PUSH2 0x8C JUMPI DUP1 PUSH4 0xB9223946 GT PUSH2 0x66 JUMPI DUP1 PUSH4 0xB9223946 EQ PUSH2 0x1B9 JUMPI DUP1 PUSH4 0xDFBF53AE EQ PUSH2 0x1C1 JUMPI DUP1 PUSH4 0xF4AB9ADF EQ PUSH2 0x1CA JUMPI DUP1 PUSH4 0xFDEDAA8A EQ PUSH2 0x1DD JUMPI PUSH1 0x0 DUP1 REVERT JUMPDEST DUP1 PUSH4 0x68C74B53 EQ PUSH2 0x173 JUMPI DUP1 PUSH4 0x8C08A4DC EQ PUSH2 0x17B JUMPI DUP1 PUSH4 0x8DA5CB5B EQ PUSH2 0x18E JUMPI PUSH1 0x0 DUP1 REVERT JUMPDEST DUP1 PUSH4 0x9C56E64 EQ PUSH2 0xD4 JUMPI DUP1 PUSH4 0x1F1F8CA2 EQ PUSH2 0xF2 JUMPI DUP1 PUSH4 0x290E9212 EQ PUSH2 0x113 JUMPI DUP1 PUSH4 0x3F220524 EQ PUSH2 0x134 JUMPI DUP1 PUSH4 0x462E91EC EQ PUSH2 0x149 JUMPI DUP1 PUSH4 0x6352B20C EQ PUSH2 0x15C JUMPI JUMPDEST PUSH1 0x0 DUP1 REVERT JUMPDEST PUSH2 0xDC PUSH2 0x220 JUMP JUMPDEST PUSH1 0x40 MLOAD PUSH2 0xE9 SWAP2 SWAP1 PUSH2 0x855 JUMP JUMPDEST PUSH1 0x40 MLOAD DUP1 SWAP2 SUB SWAP1 RETURN JUMPDEST PUSH1 0x5 SLOAD PUSH2 0x106 SWAP1 PUSH1 0x1 PUSH1 0xA0 SHL SWAP1 DIV PUSH1 0xFF AND DUP2 JUMP JUMPDEST PUSH1 0x40 MLOAD PUSH2 0xE9 SWAP2 SWAP1 PUSH2 0x8E1 JUMP JUMPDEST PUSH2 0x126 PUSH2 0x121 CALLDATASIZE PUSH1 0x4 PUSH2 0x909 JUMP JUMPDEST PUSH2 0x31B JUMP JUMPDEST PUSH1 0x40 MLOAD PUSH2 0xE9 SWAP3 SWAP2 SWAP1 PUSH2 0x922 JUMP JUMPDEST PUSH2 0x147 PUSH2 0x142 CALLDATASIZE PUSH1 0x4 PUSH2 0x909 JUMP JUMPDEST PUSH2 0x3D7 JUMP JUMPDEST STOP JUMPDEST PUSH2 0x147 PUSH2 0x157 CALLDATASIZE PUSH1 0x4 PUSH2 0x95A JUMP JUMPDEST PUSH2 0x471 JUMP JUMPDEST PUSH2 0x165 PUSH1 0x2 SLOAD DUP2 JUMP JUMPDEST PUSH1 0x40 MLOAD SWAP1 DUP2 MSTORE PUSH1 0x20 ADD PUSH2 0xE9 JUMP JUMPDEST PUSH2 0x165 PUSH2 0x50B JUMP JUMPDEST PUSH2 0x147 PUSH2 0x189 CALLDATASIZE PUSH1 0x4 PUSH2 0x909 JUMP JUMPDEST PUSH2 0x520 JUMP JUMPDEST PUSH1 0x5 SLOAD PUSH2 0x1A1 SWAP1 PUSH1 0x1 PUSH1 0x1 PUSH1 0xA0 SHL SUB AND DUP2 JUMP JUMPDEST PUSH1 0x40 MLOAD PUSH1 0x1 PUSH1 0x1 PUSH1 0xA0 SHL SUB SWAP1 SWAP2 AND DUP2 MSTORE PUSH1 0x20 ADD PUSH2 0xE9 JUMP JUMPDEST PUSH2 0x147 PUSH2 0x6C5 JUMP JUMPDEST PUSH2 0x165 PUSH1 0x4 SLOAD DUP2 JUMP JUMPDEST PUSH2 0x147 PUSH2 0x1D8 CALLDATASIZE PUSH1 0x4 PUSH2 0xA0B JUMP JUMPDEST PUSH2 0x733 JUMP JUMPDEST PUSH2 0x209 PUSH2 0x1EB CALLDATASIZE PUSH1 0x4 PUSH2 0xA0B JUMP JUMPDEST PUSH1 0x0 PUSH1 0x20 DUP2 SWAP1 MSTORE SWAP1 DUP2 MSTORE PUSH1 0x40 SWAP1 KECCAK256 SLOAD PUSH1 0xFF DUP1 DUP3 AND SWAP2 PUSH2 0x100 SWAP1 DIV AND DUP3 JUMP JUMPDEST PUSH1 0x40 DUP1 MLOAD SWAP3 ISZERO ISZERO DUP4 MSTORE SWAP1 ISZERO ISZERO PUSH1 0x20 DUP4 ADD MSTORE ADD PUSH2 0xE9 JUMP JUMPDEST PUSH1 0x60 PUSH1 0x1 DUP1 SLOAD DUP1 PUSH1 0x20 MUL PUSH1 0x20 ADD PUSH1 0x40 MLOAD SWAP1 DUP2 ADD PUSH1 0x40 MSTORE DUP1 SWAP3 SWAP2 SWAP1 DUP2 DUP2 MSTORE PUSH1 0x20 ADD PUSH1 0x0 SWAP1 JUMPDEST DUP3 DUP3 LT ISZERO PUSH2 0x312 JUMPI DUP4 DUP3 SWAP1 PUSH1 0x0 MSTORE PUSH1 0x20 PUSH1 0x0 KECCAK256 SWAP1 PUSH1 0x2 MUL ADD PUSH1 0x40 MLOAD DUP1 PUSH1 0x40 ADD PUSH1 0x40 MSTORE SWAP1 DUP2 PUSH1 0x0 DUP3 ADD DUP1 SLOAD PUSH2 0x277 SWAP1 PUSH2 0xA3B JUMP JUMPDEST DUP1 PUSH1 0x1F ADD PUSH1 0x20 DUP1 SWAP2 DIV MUL PUSH1 0x20 ADD PUSH1 0x40 MLOAD SWAP1 DUP2 ADD PUSH1 0x40 MSTORE DUP1 SWAP3 SWAP2 SWAP1 DUP2 DUP2 MSTORE PUSH1 0x20 ADD DUP3 DUP1 SLOAD PUSH2 0x2A3 SWAP1 PUSH2 0xA3B JUMP JUMPDEST DUP1 ISZERO PUSH2 0x2F0 JUMPI DUP1 PUSH1 0x1F LT PUSH2 0x2C5 JUMPI PUSH2 0x100 DUP1 DUP4 SLOAD DIV MUL DUP4 MSTORE SWAP2 PUSH1 0x20 ADD SWAP2 PUSH2 0x2F0 JUMP JUMPDEST DUP3 ADD SWAP2 SWAP1 PUSH1 0x0 MSTORE PUSH1 0x20 PUSH1 0x0 KECCAK256 SWAP1 JUMPDEST DUP2 SLOAD DUP2 MSTORE SWAP1 PUSH1 0x1 ADD SWAP1 PUSH1 0x20 ADD DUP1 DUP4 GT PUSH2 0x2D3 JUMPI DUP3 SWAP1 SUB PUSH1 0x1F AND DUP3 ADD SWAP2 JUMPDEST POP POP POP POP POP DUP2 MSTORE PUSH1 0x20 ADD PUSH1 0x1 DUP3 ADD SLOAD DUP2 MSTORE POP POP DUP2 MSTORE PUSH1 0x20 ADD SWAP1 PUSH1 0x1 ADD SWAP1 PUSH2 0x244 JUMP JUMPDEST POP POP POP POP SWAP1 POP SWAP1 JUMP JUMPDEST PUSH1 0x1 DUP2 DUP2 SLOAD DUP2 LT PUSH2 0x32B JUMPI PUSH1 0x0 DUP1 REVERT JUMPDEST SWAP1 PUSH1 0x0 MSTORE PUSH1 0x20 PUSH1 0x0 KECCAK256 SWAP1 PUSH1 0x2 MUL ADD PUSH1 0x0 SWAP2 POP SWAP1 POP DUP1 PUSH1 0x0 ADD DUP1 SLOAD PUSH2 0x34E SWAP1 PUSH2 0xA3B JUMP JUMPDEST DUP1 PUSH1 0x1F ADD PUSH1 0x20 DUP1 SWAP2 DIV MUL PUSH1 0x20 ADD PUSH1 0x40 MLOAD SWAP1 DUP2 ADD PUSH1 0x40 MSTORE DUP1 SWAP3 SWAP2 SWAP1 DUP2 DUP2 MSTORE PUSH1 0x20 ADD DUP3 DUP1 SLOAD PUSH2 0x37A SWAP1 PUSH2 0xA3B JUMP JUMPDEST DUP1 ISZERO PUSH2 0x3C7 JUMPI DUP1 PUSH1 0x1F LT PUSH2 0x39C JUMPI PUSH2 0x100 DUP1 DUP4 SLOAD DIV MUL DUP4 MSTORE SWAP2 PUSH1 0x20 ADD SWAP2 PUSH2 0x3C7 JUMP JUMPDEST DUP3 ADD SWAP2 SWAP1 PUSH1 0x0 MSTORE PUSH1 0x20 PUSH1 0x0 KECCAK256 SWAP1 JUMPDEST DUP2 SLOAD DUP2 MSTORE SWAP1 PUSH1 0x1 ADD SWAP1 PUSH1 0x20 ADD DUP1 DUP4 GT PUSH2 0x3AA JUMPI DUP3 SWAP1 SUB PUSH1 0x1F AND DUP3 ADD SWAP2 JUMPDEST POP POP POP POP POP SWAP1 DUP1 PUSH1 0x1 ADD SLOAD SWAP1 POP DUP3 JUMP JUMPDEST PUSH1 0x5 SLOAD PUSH1 0x1 PUSH1 0x1 PUSH1 0xA0 SHL SUB AND CALLER EQ PUSH2 0x3EE JUMPI PUSH1 0x0 DUP1 REVERT JUMPDEST PUSH1 0x1 PUSH1 0x5 SLOAD PUSH1 0x1 PUSH1 0xA0 SHL SWAP1 DIV PUSH1 0xFF AND PUSH1 0x1 DUP2 GT ISZERO PUSH2 0x40E JUMPI PUSH2 0x40E PUSH2 0x8CB JUMP JUMPDEST EQ PUSH2 0x454 JUMPI PUSH1 0x40 MLOAD PUSH3 0x461BCD PUSH1 0xE5 SHL DUP2 MSTORE PUSH1 0x20 PUSH1 0x4 DUP3 ADD MSTORE PUSH1 0x11 PUSH1 0x24 DUP3 ADD MSTORE PUSH17 0x10D85B9D081899481A5B9A5D1A585D1959 PUSH1 0x7A SHL PUSH1 0x44 DUP3 ADD MSTORE PUSH1 0x64 ADD JUMPDEST PUSH1 0x40 MLOAD DUP1 SWAP2 SUB SWAP1 REVERT JUMPDEST PUSH1 0x5 DUP1 SLOAD PUSH1 0xFF PUSH1 0xA0 SHL NOT AND SWAP1 SSTORE PUSH2 0x46B DUP2 TIMESTAMP PUSH2 0xA8C JUMP JUMPDEST PUSH1 0x3 SSTORE POP JUMP JUMPDEST PUSH1 0x5 SLOAD PUSH1 0x1 PUSH1 0x1 PUSH1 0xA0 SHL SUB AND CALLER EQ PUSH2 0x488 JUMPI PUSH1 0x0 DUP1 REVERT JUMPDEST PUSH1 0x40 DUP1 MLOAD DUP1 DUP3 ADD SWAP1 SWAP2 MSTORE DUP2 DUP2 MSTORE PUSH1 0x0 PUSH1 0x20 DUP1 DUP4 ADD DUP3 SWAP1 MSTORE PUSH1 0x1 DUP1 SLOAD DUP1 DUP3 ADD DUP3 SSTORE SWAP3 MSTORE DUP3 MLOAD DUP1 MLOAD PUSH1 0x2 SWAP1 SWAP4 MUL PUSH32 0xB10E2D527612073B26EECDFD717E6A320CF44B4AFAC2B0732D9FCBE2B7FA0CF6 ADD SWAP3 PUSH2 0x4E3 SWAP3 DUP5 SWAP3 ADD SWAP1 PUSH2 0x76F JUMP JUMPDEST POP PUSH1 0x20 DUP3 ADD MLOAD DUP2 PUSH1 0x1 ADD SSTORE POP POP PUSH1 0x1 PUSH1 0x2 PUSH1 0x0 DUP3 DUP3 SLOAD PUSH2 0x503 SWAP2 SWAP1 PUSH2 0xA8C JUMP JUMPDEST SWAP1 SWAP2 SSTORE POP POP POP JUMP JUMPDEST PUSH1 0x0 TIMESTAMP PUSH1 0x3 SLOAD PUSH2 0x51B SWAP2 SWAP1 PUSH2 0xAA4 JUMP JUMPDEST SWAP1 POP SWAP1 JUMP JUMPDEST PUSH1 0x0 TIMESTAMP PUSH1 0x3 SLOAD PUSH2 0x530 SWAP2 SWAP1 PUSH2 0xAA4 JUMP JUMPDEST SGT PUSH2 0x569 JUMPI PUSH1 0x40 MLOAD PUSH3 0x461BCD PUSH1 0xE5 SHL DUP2 MSTORE PUSH1 0x20 PUSH1 0x4 DUP3 ADD MSTORE PUSH1 0x9 PUSH1 0x24 DUP3 ADD MSTORE PUSH9 0x74696D6520656E6473 PUSH1 0xB8 SHL PUSH1 0x44 DUP3 ADD MSTORE PUSH1 0x64 ADD PUSH2 0x44B JUMP JUMPDEST PUSH1 0x0 PUSH1 0x5 SLOAD PUSH1 0x1 PUSH1 0xA0 SHL SWAP1 DIV PUSH1 0xFF AND PUSH1 0x1 DUP2 GT ISZERO PUSH2 0x589 JUMPI PUSH2 0x589 PUSH2 0x8CB JUMP JUMPDEST EQ PUSH2 0x5C9 JUMPI PUSH1 0x40 MLOAD PUSH3 0x461BCD PUSH1 0xE5 SHL DUP2 MSTORE PUSH1 0x20 PUSH1 0x4 DUP3 ADD MSTORE PUSH1 0x10 PUSH1 0x24 DUP3 ADD MSTORE PUSH16 0x1D9BDD19481B9BDD081CDD185C9D1959 PUSH1 0x82 SHL PUSH1 0x44 DUP3 ADD MSTORE PUSH1 0x64 ADD PUSH2 0x44B JUMP JUMPDEST CALLER PUSH1 0x0 SWAP1 DUP2 MSTORE PUSH1 0x20 DUP2 SWAP1 MSTORE PUSH1 0x40 SWAP1 KECCAK256 SLOAD PUSH1 0xFF AND ISZERO ISZERO PUSH1 0x1 EQ PUSH2 0x618 JUMPI PUSH1 0x40 MLOAD PUSH3 0x461BCD PUSH1 0xE5 SHL DUP2 MSTORE PUSH1 0x20 PUSH1 0x4 DUP3 ADD MSTORE PUSH1 0x8 PUSH1 0x24 DUP3 ADD MSTORE PUSH8 0x2737903B37BA32B9 PUSH1 0xC1 SHL PUSH1 0x44 DUP3 ADD MSTORE PUSH1 0x64 ADD PUSH2 0x44B JUMP JUMPDEST CALLER PUSH1 0x0 SWAP1 DUP2 MSTORE PUSH1 0x20 DUP2 SWAP1 MSTORE PUSH1 0x40 SWAP1 KECCAK256 SLOAD PUSH2 0x100 SWAP1 DIV PUSH1 0xFF AND ISZERO PUSH2 0x66D JUMPI PUSH1 0x40 MLOAD PUSH3 0x461BCD PUSH1 0xE5 SHL DUP2 MSTORE PUSH1 0x20 PUSH1 0x4 DUP3 ADD MSTORE PUSH1 0xD PUSH1 0x24 DUP3 ADD MSTORE PUSH13 0x105B1C9958591E481D9BDD1959 PUSH1 0x9A SHL PUSH1 0x44 DUP3 ADD MSTORE PUSH1 0x64 ADD PUSH2 0x44B JUMP JUMPDEST PUSH1 0x1 DUP1 DUP3 DUP2 SLOAD DUP2 LT PUSH2 0x681 JUMPI PUSH2 0x681 PUSH2 0xAE3 JUMP JUMPDEST SWAP1 PUSH1 0x0 MSTORE PUSH1 0x20 PUSH1 0x0 KECCAK256 SWAP1 PUSH1 0x2 MUL ADD PUSH1 0x1 ADD PUSH1 0x0 DUP3 DUP3 SLOAD PUSH2 0x6A1 SWAP2 SWAP1 PUSH2 0xA8C JUMP JUMPDEST SWAP1 SWAP2 SSTORE POP POP CALLER PUSH1 0x0 SWAP1 DUP2 MSTORE PUSH1 0x20 DUP2 SWAP1 MSTORE PUSH1 0x40 SWAP1 KECCAK256 DUP1 SLOAD PUSH2 0xFF00 NOT AND PUSH2 0x100 OR SWAP1 SSTORE POP JUMP JUMPDEST PUSH1 0x5 SLOAD PUSH1 0x1 PUSH1 0x1 PUSH1 0xA0 SHL SUB AND CALLER EQ PUSH2 0x6DC JUMPI PUSH1 0x0 DUP1 REVERT JUMPDEST PUSH1 0x1 TIMESTAMP PUSH1 0x3 SLOAD PUSH2 0x6EC SWAP2 SWAP1 PUSH2 0xAA4 JUMP JUMPDEST SLT PUSH2 0x725 JUMPI PUSH1 0x40 MLOAD PUSH3 0x461BCD PUSH1 0xE5 SHL DUP2 MSTORE PUSH1 0x20 PUSH1 0x4 DUP3 ADD MSTORE PUSH1 0x9 PUSH1 0x24 DUP3 ADD MSTORE PUSH9 0x1D1A5B59481B19599D PUSH1 0xBA SHL PUSH1 0x44 DUP3 ADD MSTORE PUSH1 0x64 ADD PUSH2 0x44B JUMP JUMPDEST PUSH1 0x5 SLOAD PUSH1 0x1 PUSH1 0x1 PUSH1 0xA0 SHL SUB AND SELFDESTRUCT JUMPDEST PUSH1 0x5 SLOAD PUSH1 0x1 PUSH1 0x1 PUSH1 0xA0 SHL SUB AND CALLER EQ PUSH2 0x74A JUMPI PUSH1 0x0 DUP1 REVERT JUMPDEST PUSH1 0x1 PUSH1 0x1 PUSH1 0xA0 SHL SUB AND PUSH1 0x0 SWAP1 DUP2 MSTORE PUSH1 0x20 DUP2 SWAP1 MSTORE PUSH1 0x40 SWAP1 KECCAK256 DUP1 SLOAD PUSH2 0xFFFF NOT AND PUSH1 0x1 OR SWAP1 SSTORE JUMP JUMPDEST DUP3 DUP1 SLOAD PUSH2 0x77B SWAP1 PUSH2 0xA3B JUMP JUMPDEST SWAP1 PUSH1 0x0 MSTORE PUSH1 0x20 PUSH1 0x0 KECCAK256 SWAP1 PUSH1 0x1F ADD PUSH1 0x20 SWAP1 DIV DUP2 ADD SWAP3 DUP3 PUSH2 0x79D JUMPI PUSH1 0x0 DUP6 SSTORE PUSH2 0x7E3 JUMP JUMPDEST DUP3 PUSH1 0x1F LT PUSH2 0x7B6 JUMPI DUP1 MLOAD PUSH1 0xFF NOT AND DUP4 DUP1 ADD OR DUP6 SSTORE PUSH2 0x7E3 JUMP JUMPDEST DUP3 DUP1 ADD PUSH1 0x1 ADD DUP6 SSTORE DUP3 ISZERO PUSH2 0x7E3 JUMPI SWAP2 DUP3 ADD JUMPDEST DUP3 DUP2 GT ISZERO PUSH2 0x7E3 JUMPI DUP3 MLOAD DUP3 SSTORE SWAP2 PUSH1 0x20 ADD SWAP2 SWAP1 PUSH1 0x1 ADD SWAP1 PUSH2 0x7C8 JUMP JUMPDEST POP PUSH2 0x7EF SWAP3 SWAP2 POP PUSH2 0x7F3 JUMP JUMPDEST POP SWAP1 JUMP JUMPDEST JUMPDEST DUP1 DUP3 GT ISZERO PUSH2 0x7EF JUMPI PUSH1 0x0 DUP2 SSTORE PUSH1 0x1 ADD PUSH2 0x7F4 JUMP JUMPDEST PUSH1 0x0 DUP2 MLOAD DUP1 DUP5 MSTORE PUSH1 0x0 JUMPDEST DUP2 DUP2 LT ISZERO PUSH2 0x82E JUMPI PUSH1 0x20 DUP2 DUP6 ADD DUP2 ADD MLOAD DUP7 DUP4 ADD DUP3 ADD MSTORE ADD PUSH2 0x812 JUMP JUMPDEST DUP2 DUP2 GT ISZERO PUSH2 0x840 JUMPI PUSH1 0x0 PUSH1 0x20 DUP4 DUP8 ADD ADD MSTORE JUMPDEST POP PUSH1 0x1F ADD PUSH1 0x1F NOT AND SWAP3 SWAP1 SWAP3 ADD PUSH1 0x20 ADD SWAP3 SWAP2 POP POP JUMP JUMPDEST PUSH1 0x0 PUSH1 0x20 DUP1 DUP4 ADD DUP2 DUP5 MSTORE DUP1 DUP6 MLOAD DUP1 DUP4 MSTORE PUSH1 0x40 SWAP3 POP DUP3 DUP7 ADD SWAP2 POP DUP3 DUP2 PUSH1 0x5 SHL DUP8 ADD ADD DUP5 DUP9 ADD PUSH1 0x0 JUMPDEST DUP4 DUP2 LT ISZERO PUSH2 0x8BD JUMPI DUP9 DUP4 SUB PUSH1 0x3F NOT ADD DUP6 MSTORE DUP2 MLOAD DUP1 MLOAD DUP8 DUP6 MSTORE PUSH2 0x8A0 DUP9 DUP7 ADD DUP3 PUSH2 0x808 JUMP JUMPDEST SWAP2 DUP10 ADD MLOAD SWAP5 DUP10 ADD SWAP5 SWAP1 SWAP5 MSTORE SWAP5 DUP8 ADD SWAP5 SWAP3 POP SWAP1 DUP7 ADD SWAP1 PUSH1 0x1 ADD PUSH2 0x87C JUMP JUMPDEST POP SWAP1 SWAP9 SWAP8 POP POP POP POP POP POP POP POP JUMP JUMPDEST PUSH4 0x4E487B71 PUSH1 0xE0 SHL PUSH1 0x0 MSTORE PUSH1 0x21 PUSH1 0x4 MSTORE PUSH1 0x24 PUSH1 0x0 REVERT JUMPDEST PUSH1 0x20 DUP2 ADD PUSH1 0x2 DUP4 LT PUSH2 0x903 JUMPI PUSH4 0x4E487B71 PUSH1 0xE0 SHL PUSH1 0x0 MSTORE PUSH1 0x21 PUSH1 0x4 MSTORE PUSH1 0x24 PUSH1 0x0 REVERT JUMPDEST SWAP2 SWAP1 MSTORE SWAP1 JUMP JUMPDEST PUSH1 0x0 PUSH1 0x20 DUP3 DUP5 SUB SLT ISZERO PUSH2 0x91B JUMPI PUSH1 0x0 DUP1 REVERT JUMPDEST POP CALLDATALOAD SWAP2 SWAP1 POP JUMP JUMPDEST PUSH1 0x40 DUP2 MSTORE PUSH1 0x0 PUSH2 0x935 PUSH1 0x40 DUP4 ADD DUP6 PUSH2 0x808 JUMP JUMPDEST SWAP1 POP DUP3 PUSH1 0x20 DUP4 ADD MSTORE SWAP4 SWAP3 POP POP POP JUMP JUMPDEST PUSH4 0x4E487B71 PUSH1 0xE0 SHL PUSH1 0x0 MSTORE PUSH1 0x41 PUSH1 0x4 MSTORE PUSH1 0x24 PUSH1 0x0 REVERT JUMPDEST PUSH1 0x0 PUSH1 0x20 DUP3 DUP5 SUB SLT ISZERO PUSH2 0x96C JUMPI PUSH1 0x0 DUP1 REVERT JUMPDEST DUP2 CALLDATALOAD PUSH8 0xFFFFFFFFFFFFFFFF DUP1 DUP3 GT ISZERO PUSH2 0x984 JUMPI PUSH1 0x0 DUP1 REVERT JUMPDEST DUP2 DUP5 ADD SWAP2 POP DUP5 PUSH1 0x1F DUP4 ADD SLT PUSH2 0x998 JUMPI PUSH1 0x0 DUP1 REVERT JUMPDEST DUP2 CALLDATALOAD DUP2 DUP2 GT ISZERO PUSH2 0x9AA JUMPI PUSH2 0x9AA PUSH2 0x944 JUMP JUMPDEST PUSH1 0x40 MLOAD PUSH1 0x1F DUP3 ADD PUSH1 0x1F NOT SWAP1 DUP2 AND PUSH1 0x3F ADD AND DUP2 ADD SWAP1 DUP4 DUP3 GT DUP2 DUP4 LT OR ISZERO PUSH2 0x9D2 JUMPI PUSH2 0x9D2 PUSH2 0x944 JUMP JUMPDEST DUP2 PUSH1 0x40 MSTORE DUP3 DUP2 MSTORE DUP8 PUSH1 0x20 DUP5 DUP8 ADD ADD GT ISZERO PUSH2 0x9EB JUMPI PUSH1 0x0 DUP1 REVERT JUMPDEST DUP3 PUSH1 0x20 DUP7 ADD PUSH1 0x20 DUP4 ADD CALLDATACOPY PUSH1 0x0 SWAP3 DUP2 ADD PUSH1 0x20 ADD SWAP3 SWAP1 SWAP3 MSTORE POP SWAP6 SWAP5 POP POP POP POP POP JUMP JUMPDEST PUSH1 0x0 PUSH1 0x20 DUP3 DUP5 SUB SLT ISZERO PUSH2 0xA1D JUMPI PUSH1 0x0 DUP1 REVERT JUMPDEST DUP2 CALLDATALOAD PUSH1 0x1 PUSH1 0x1 PUSH1 0xA0 SHL SUB DUP2 AND DUP2 EQ PUSH2 0xA34 JUMPI PUSH1 0x0 DUP1 REVERT JUMPDEST SWAP4 SWAP3 POP POP POP JUMP JUMPDEST PUSH1 0x1 DUP2 DUP2 SHR SWAP1 DUP3 AND DUP1 PUSH2 0xA4F JUMPI PUSH1 0x7F DUP3 AND SWAP2 POP JUMPDEST PUSH1 0x20 DUP3 LT DUP2 EQ ISZERO PUSH2 0xA70 JUMPI PUSH4 0x4E487B71 PUSH1 0xE0 SHL PUSH1 0x0 MSTORE PUSH1 0x22 PUSH1 0x4 MSTORE PUSH1 0x24 PUSH1 0x0 REVERT JUMPDEST POP SWAP2 SWAP1 POP JUMP JUMPDEST PUSH4 0x4E487B71 PUSH1 0xE0 SHL PUSH1 0x0 MSTORE PUSH1 0x11 PUSH1 0x4 MSTORE PUSH1 0x24 PUSH1 0x0 REVERT JUMPDEST PUSH1 0x0 DUP3 NOT DUP3 GT ISZERO PUSH2 0xA9F JUMPI PUSH2 0xA9F PUSH2 0xA76 JUMP JUMPDEST POP ADD SWAP1 JUMP JUMPDEST PUSH1 0x0 DUP1 DUP4 SLT DUP1 ISZERO PUSH1 0x1 PUSH1 0xFF SHL DUP6 ADD DUP5 SLT AND ISZERO PUSH2 0xAC2 JUMPI PUSH2 0xAC2 PUSH2 0xA76 JUMP JUMPDEST PUSH1 0x1 PUSH1 0x1 PUSH1 0xFF SHL SUB DUP5 ADD DUP4 SGT DUP2 AND ISZERO PUSH2 0xADD JUMPI PUSH2 0xADD PUSH2 0xA76 JUMP JUMPDEST POP POP SUB SWAP1 JUMP JUMPDEST PUSH4 0x4E487B71 PUSH1 0xE0 SHL PUSH1 0x0 MSTORE PUSH1 0x32 PUSH1 0x4 MSTORE PUSH1 0x24 PUSH1 0x0 REVERT INVALID LOG2 PUSH5 0x6970667358 0x22 SLT KECCAK256 PUSH20 0x6DBCF0D13DF988AED7B712D4613DD46713F3C939 CODESIZE PUSH14 0x8F6841C90AB568910364736F6C63 NUMBER STOP ADDMOD MULMOD STOP CALLER ","sha1":"4340f4086899d1785158b1150d1c3949aed68c38","source":"//SPDX-License-Identifier:MIT\npragma solidity >=0.6.6;\n\n\ncontract Vote\n{\n    \n    mapping(address=>Voter) public Voters;\n    VCandidate[] public Candidates;\n    uint public total_cand=0;\n    \n    int256 end;\n    //winner feature to be added\n    uint256 public winner;\n    // uint256 start;\n    address public owner;\n    \n    enum VOTE_STATE {\n        \n        OPEN,\n        CLOSED\n      \n    }\n\n    \n    VOTE_STATE public vote_state;\n    \n    struct Voter\n    {\n      bool isauthorised;\n      bool hasVoted;\n    }\n    struct VCandidate\n    {\n        string name;\n        uint256 voteCount;\n    }\n    \n      \n    modifier OnlyOwner\n    {\n        require(owner==msg.sender);\n        _;\n    }\n\n\n    constructor(){\n    \n    vote_state=VOTE_STATE.CLOSED; \n    owner=msg.sender;\n        \n    }\n    \n\n    \n    function addCandidate(string memory _name) public OnlyOwner\n    {\n     Candidates.push(VCandidate(_name,0));\n     total_cand+=1;   \n    }\n     \n    function addVoter(address a) public OnlyOwner\n    {\n     Voters[a].isauthorised=true;\n     Voters[a].hasVoted=false;\n\n    }\n    \n    \n    function startVote(uint256 _time) public OnlyOwner\n    {\n     require(vote_state==VOTE_STATE.CLOSED,\"Cant be initiated\");\n     vote_state=VOTE_STATE.OPEN; \n     \n     end=int256(block.timestamp+_time);\n\n    }\n    \n\n    \n    \n    function voteCandidate(uint Index) public\n    \n    {   \n        require(end-int256(block.timestamp)>0,\"time ends\");\n        require(vote_state==VOTE_STATE.OPEN,\"vote not started\");\n        require(Voters[msg.sender].isauthorised==true,\"No voter\");\n        require(Voters[msg.sender].hasVoted==false,\"Already voted\");\n        Candidates[Index].voteCount+=1;   \n        Voters[msg.sender].hasVoted=true;\n        \n    }\n\n    \n    function timeleft() public view returns (int256)\n    {\n        return end-int256(block.timestamp);\n    }\n        \n    function endVote() public OnlyOwner\n    {require(end-int256(block.timestamp)<1,\"time left\");\n\n    \n     selfdestruct(payable(owner)); \n\n    }\n    function getCandidateArray()public view returns( VCandidate[]memory){\n    return Candidates;\n    }\n    \n    \n    \n    \n    \n}\n\n\n\n","sourcePath":"contracts/Voting_app.sol","type":"contract","deployment":{"address":"0x5C62c1aD3aCbA8c93D4b8641b10d8fd8F5A1Ee9F","chainid":"5777","blockHeight":28}}