{"abi":[{"inputs":[],"stateMutability":"nonpayable","type":"constructor","name":"constructor"},{"inputs":[{"internalType":"uint256","name":"","type":"uint256"}],"name":"Candidates","outputs":[{"internalType":"string","name":"name","type":"string"},{"internalType":"uint256","name":"voteCount","type":"uint256"}],"stateMutability":"view","type":"function"},{"inputs":[{"internalType":"address","name":"","type":"address"}],"name":"Voters","outputs":[{"internalType":"bool","name":"isauthorised","type":"bool"},{"internalType":"bool","name":"hasVoted","type":"bool"}],"stateMutability":"view","type":"function"},{"inputs":[{"internalType":"string","name":"_name","type":"string"}],"name":"addCandidate","outputs":[],"stateMutability":"nonpayable","type":"function"},{"inputs":[{"internalType":"string[]","name":"_names","type":"string[]"}],"name":"addCandidateBulk","outputs":[],"stateMutability":"nonpayable","type":"function"},{"inputs":[{"internalType":"address","name":"a","type":"address"}],"name":"addVoter","outputs":[],"stateMutability":"nonpayable","type":"function"},{"inputs":[{"internalType":"address[]","name":"_names","type":"address[]"}],"name":"addVoterseBulk","outputs":[],"stateMutability":"nonpayable","type":"function"},{"inputs":[],"name":"endVote","outputs":[],"stateMutability":"nonpayable","type":"function"},{"inputs":[],"name":"getCandidateArray","outputs":[{"components":[{"internalType":"string","name":"name","type":"string"},{"internalType":"uint256","name":"voteCount","type":"uint256"}],"internalType":"struct Vote.VCandidate[]","name":"","type":"tuple[]"}],"stateMutability":"view","type":"function"},{"inputs":[],"name":"owner","outputs":[{"internalType":"address","name":"","type":"address"}],"stateMutability":"view","type":"function"},{"inputs":[{"internalType":"uint256","name":"_time","type":"uint256"}],"name":"startVote","outputs":[],"stateMutability":"nonpayable","type":"function"},{"inputs":[],"name":"timeleft","outputs":[{"internalType":"int256","name":"","type":"int256"}],"stateMutability":"view","type":"function"},{"inputs":[],"name":"total_cand","outputs":[{"internalType":"uint256","name":"","type":"uint256"}],"stateMutability":"view","type":"function"},{"inputs":[],"name":"total_voters","outputs":[{"internalType":"uint256","name":"","type":"uint256"}],"stateMutability":"view","type":"function"},{"inputs":[{"internalType":"uint256","name":"Index","type":"uint256"}],"name":"voteCandidate","outputs":[],"stateMutability":"nonpayable","type":"function"},{"inputs":[],"name":"vote_state","outputs":[{"internalType":"enum Vote.VOTE_STATE","name":"","type":"uint8"}],"stateMutability":"view","type":"function"},{"inputs":[],"name":"winner","outputs":[{"internalType":"uint256","name":"","type":"uint256"}],"stateMutability":"view","type":"function"}],"bytecode":"60806040526000600255600060035534801561001a57600080fd5b5060068054336001600160a81b031990911617600160a01b179055611056806100446000396000f3fe608060405234801561001057600080fd5b50600436106101005760003560e01c8063757b42bb11610097578063dfbf53ae11610066578063dfbf53ae14610218578063e8677f1914610221578063f4ab9adf1461022a578063fdedaa8a1461023d57600080fd5b8063757b42bb146101bf5780638c08a4dc146101d25780638da5cb5b146101e5578063b92239461461021057600080fd5b80633f220524116100d35780633f2205241461017a578063462e91ec1461018d5780636352b20c146101a057806368c74b53146101b757600080fd5b806309c56e64146101055780631e32c790146101235780631f1f8ca214610138578063290e921214610159575b600080fd5b61010d610280565b60405161011a9190610b7f565b60405180910390f35b610136610131366004610c7c565b61037b565b005b60065461014c90600160a01b900460ff1681565b60405161011a9190610d2f565b61016c610167366004610d57565b6104c5565b60405161011a929190610d70565b610136610188366004610d57565b610581565b61013661019b366004610e02565b610616565b6101a960025481565b60405190815260200161011a565b6101a96106ed565b6101366101cd366004610e3f565b610702565b6101366101e0366004610d57565b6107f8565b6006546101f8906001600160a01b031681565b6040516001600160a01b03909116815260200161011a565b61013661099d565b6101a960055481565b6101a960035481565b610136610238366004610ef0565b610a0b565b61026961024b366004610ef0565b60006020819052908152604090205460ff8082169161010090041682565b60408051921515835290151560208301520161011a565b60606001805480602002602001604051908101604052809291908181526020016000905b8282101561037257838290600052602060002090600202016040518060400160405290816000820180546102d790610f12565b80601f016020809104026020016040519081016040528092919081815260200182805461030390610f12565b80156103505780601f1061032557610100808354040283529160200191610350565b820191906000526020600020905b81548152906001019060200180831161033357829003601f168201915b50505050508152602001600182015481525050815260200190600101906102a4565b50505050905090565b6006546001600160a01b0316331461039257600080fd5b6001600654600160a01b900460ff1660018111156103b2576103b2610d19565b146103d85760405162461bcd60e51b81526004016103cf90610f4d565b60405180910390fd5b60005b81518110156104c15760016000808484815181106103fb576103fb610f82565b60200260200101516001600160a01b03166001600160a01b0316815260200190815260200160002060000160006101000a81548160ff021916908315150217905550600080600084848151811061045457610454610f82565b60200260200101516001600160a01b03166001600160a01b0316815260200190815260200160002060000160016101000a81548160ff0219169083151502179055506001600360008282546104a99190610fae565b909155508190506104b981610fc6565b9150506103db565b5050565b600181815481106104d557600080fd5b90600052602060002090600202016000915090508060000180546104f890610f12565b80601f016020809104026020016040519081016040528092919081815260200182805461052490610f12565b80156105715780601f1061054657610100808354040283529160200191610571565b820191906000526020600020905b81548152906001019060200180831161055457829003601f168201915b5050505050908060010154905082565b6006546001600160a01b0316331461059857600080fd5b6001600654600160a01b900460ff1660018111156105b8576105b8610d19565b146105f95760405162461bcd60e51b815260206004820152601160248201527010d85b9d081899481a5b9a5d1a585d1959607a1b60448201526064016103cf565b6006805460ff60a01b191690556106108142610fae565b60045550565b6006546001600160a01b0316331461062d57600080fd5b6001600654600160a01b900460ff16600181111561064d5761064d610d19565b1461066a5760405162461bcd60e51b81526004016103cf90610f4d565b604080518082019091528181526000602080830182905260018054808201825592528251805160029093027fb10e2d527612073b26eecdfd717e6a320cf44b4afac2b0732d9fcbe2b7fa0cf601926106c59284920190610a99565b506020820151816001015550506001600260008282546106e59190610fae565b909155505050565b6000426004546106fd9190610fe1565b905090565b6006546001600160a01b0316331461071957600080fd5b6001600654600160a01b900460ff16600181111561073957610739610d19565b146107565760405162461bcd60e51b81526004016103cf90610f4d565b60005b81518110156104c1576001604051806040016040528084848151811061078157610781610f82565b60209081029190910181015182526000918101829052835460018101855593825290819020825180519394600202909101926107c09284920190610a99565b506020820151816001015550506001600260008282546107e09190610fae565b909155508190506107f081610fc6565b915050610759565b6000426004546108089190610fe1565b136108415760405162461bcd60e51b815260206004820152600960248201526874696d6520656e647360b81b60448201526064016103cf565b6000600654600160a01b900460ff16600181111561086157610861610d19565b146108a15760405162461bcd60e51b815260206004820152601060248201526f1d9bdd19481b9bdd081cdd185c9d195960821b60448201526064016103cf565b3360009081526020819052604090205460ff1615156001146108f05760405162461bcd60e51b81526020600482015260086024820152672737903b37ba32b960c11b60448201526064016103cf565b33600090815260208190526040902054610100900460ff16156109455760405162461bcd60e51b815260206004820152600d60248201526c105b1c9958591e481d9bdd1959609a1b60448201526064016103cf565b600180828154811061095957610959610f82565b906000526020600020906002020160010160008282546109799190610fae565b9091555050336000908152602081905260409020805461ff00191661010017905550565b6006546001600160a01b031633146109b457600080fd5b6001426004546109c49190610fe1565b126109fd5760405162461bcd60e51b81526020600482015260096024820152681d1a5b59481b19599d60ba1b60448201526064016103cf565b6006546001600160a01b0316ff5b6006546001600160a01b03163314610a2257600080fd5b6001600654600160a01b900460ff166001811115610a4257610a42610d19565b14610a5f5760405162461bcd60e51b81526004016103cf90610f4d565b6001600160a01b0381166000908152602081905260408120805461ffff1916600190811790915560038054919290916106e5908490610fae565b828054610aa590610f12565b90600052602060002090601f016020900481019282610ac75760008555610b0d565b82601f10610ae057805160ff1916838001178555610b0d565b82800160010185558215610b0d579182015b82811115610b0d578251825591602001919060010190610af2565b50610b19929150610b1d565b5090565b5b80821115610b195760008155600101610b1e565b6000815180845260005b81811015610b5857602081850181015186830182015201610b3c565b81811115610b6a576000602083870101525b50601f01601f19169290920160200192915050565b60006020808301818452808551808352604092508286019150828160051b87010184880160005b83811015610be757888303603f1901855281518051878552610bca88860182610b32565b918901519489019490945294870194925090860190600101610ba6565b509098975050505050505050565b634e487b7160e01b600052604160045260246000fd5b604051601f8201601f1916810167ffffffffffffffff81118282101715610c3457610c34610bf5565b604052919050565b600067ffffffffffffffff821115610c5657610c56610bf5565b5060051b60200190565b80356001600160a01b0381168114610c7757600080fd5b919050565b60006020808385031215610c8f57600080fd5b823567ffffffffffffffff811115610ca657600080fd5b8301601f81018513610cb757600080fd5b8035610cca610cc582610c3c565b610c0b565b81815260059190911b82018301908381019087831115610ce957600080fd5b928401925b82841015610d0e57610cff84610c60565b82529284019290840190610cee565b979650505050505050565b634e487b7160e01b600052602160045260246000fd5b6020810160028310610d5157634e487b7160e01b600052602160045260246000fd5b91905290565b600060208284031215610d6957600080fd5b5035919050565b604081526000610d836040830185610b32565b90508260208301529392505050565b600082601f830112610da357600080fd5b813567ffffffffffffffff811115610dbd57610dbd610bf5565b610dd0601f8201601f1916602001610c0b565b818152846020838601011115610de557600080fd5b816020850160208301376000918101602001919091529392505050565b600060208284031215610e1457600080fd5b813567ffffffffffffffff811115610e2b57600080fd5b610e3784828501610d92565b949350505050565b60006020808385031215610e5257600080fd5b823567ffffffffffffffff80821115610e6a57600080fd5b818501915085601f830112610e7e57600080fd5b8135610e8c610cc582610c3c565b81815260059190911b83018401908481019088831115610eab57600080fd5b8585015b83811015610ee357803585811115610ec75760008081fd5b610ed58b89838a0101610d92565b845250918601918601610eaf565b5098975050505050505050565b600060208284031215610f0257600080fd5b610f0b82610c60565b9392505050565b600181811c90821680610f2657607f821691505b60208210811415610f4757634e487b7160e01b600052602260045260246000fd5b50919050565b6020808252818101527f43616e277420616464207768696c6520766f7465206973206f6e20676f696e67604082015260600190565b634e487b7160e01b600052603260045260246000fd5b634e487b7160e01b600052601160045260246000fd5b60008219821115610fc157610fc1610f98565b500190565b6000600019821415610fda57610fda610f98565b5060010190565b60008083128015600160ff1b850184121615610fff57610fff610f98565b6001600160ff1b038401831381161561101a5761101a610f98565b5050039056fea26469706673582212207f23f20b5bccd98db6f07f6a201c8f0fac5253a206a5f4684a27317ccf45181f64736f6c63430008090033","bytecodeSha1":"3f3dba49b2724bc66f64a00119573910c5cefbb2","compiler":{"evm_version":"istanbul","optimizer":{"enabled":true,"runs":200},"version":"0.8.9+commit.e5eed63a"},"contractName":"Vote","language":"Solidity","natspec":{"kind":"dev","methods":{},"version":1},"opcodes":"PUSH1 0x80 PUSH1 0x40 MSTORE CALLVALUE DUP1 ISZERO PUSH2 0x10 JUMPI PUSH1 0x0 DUP1 REVERT JUMPDEST POP PUSH1 0x4 CALLDATASIZE LT PUSH2 0x100 JUMPI PUSH1 0x0 CALLDATALOAD PUSH1 0xE0 SHR DUP1 PUSH4 0x757B42BB GT PUSH2 0x97 JUMPI DUP1 PUSH4 0xDFBF53AE GT PUSH2 0x66 JUMPI DUP1 PUSH4 0xDFBF53AE EQ PUSH2 0x218 JUMPI DUP1 PUSH4 0xE8677F19 EQ PUSH2 0x221 JUMPI DUP1 PUSH4 0xF4AB9ADF EQ PUSH2 0x22A JUMPI DUP1 PUSH4 0xFDEDAA8A EQ PUSH2 0x23D JUMPI PUSH1 0x0 DUP1 REVERT JUMPDEST DUP1 PUSH4 0x757B42BB EQ PUSH2 0x1BF JUMPI DUP1 PUSH4 0x8C08A4DC EQ PUSH2 0x1D2 JUMPI DUP1 PUSH4 0x8DA5CB5B EQ PUSH2 0x1E5 JUMPI DUP1 PUSH4 0xB9223946 EQ PUSH2 0x210 JUMPI PUSH1 0x0 DUP1 REVERT JUMPDEST DUP1 PUSH4 0x3F220524 GT PUSH2 0xD3 JUMPI DUP1 PUSH4 0x3F220524 EQ PUSH2 0x17A JUMPI DUP1 PUSH4 0x462E91EC EQ PUSH2 0x18D JUMPI DUP1 PUSH4 0x6352B20C EQ PUSH2 0x1A0 JUMPI DUP1 PUSH4 0x68C74B53 EQ PUSH2 0x1B7 JUMPI PUSH1 0x0 DUP1 REVERT JUMPDEST DUP1 PUSH4 0x9C56E64 EQ PUSH2 0x105 JUMPI DUP1 PUSH4 0x1E32C790 EQ PUSH2 0x123 JUMPI DUP1 PUSH4 0x1F1F8CA2 EQ PUSH2 0x138 JUMPI DUP1 PUSH4 0x290E9212 EQ PUSH2 0x159 JUMPI JUMPDEST PUSH1 0x0 DUP1 REVERT JUMPDEST PUSH2 0x10D PUSH2 0x280 JUMP JUMPDEST PUSH1 0x40 MLOAD PUSH2 0x11A SWAP2 SWAP1 PUSH2 0xB7F JUMP JUMPDEST PUSH1 0x40 MLOAD DUP1 SWAP2 SUB SWAP1 RETURN JUMPDEST PUSH2 0x136 PUSH2 0x131 CALLDATASIZE PUSH1 0x4 PUSH2 0xC7C JUMP JUMPDEST PUSH2 0x37B JUMP JUMPDEST STOP JUMPDEST PUSH1 0x6 SLOAD PUSH2 0x14C SWAP1 PUSH1 0x1 PUSH1 0xA0 SHL SWAP1 DIV PUSH1 0xFF AND DUP2 JUMP JUMPDEST PUSH1 0x40 MLOAD PUSH2 0x11A SWAP2 SWAP1 PUSH2 0xD2F JUMP JUMPDEST PUSH2 0x16C PUSH2 0x167 CALLDATASIZE PUSH1 0x4 PUSH2 0xD57 JUMP JUMPDEST PUSH2 0x4C5 JUMP JUMPDEST PUSH1 0x40 MLOAD PUSH2 0x11A SWAP3 SWAP2 SWAP1 PUSH2 0xD70 JUMP JUMPDEST PUSH2 0x136 PUSH2 0x188 CALLDATASIZE PUSH1 0x4 PUSH2 0xD57 JUMP JUMPDEST PUSH2 0x581 JUMP JUMPDEST PUSH2 0x136 PUSH2 0x19B CALLDATASIZE PUSH1 0x4 PUSH2 0xE02 JUMP JUMPDEST PUSH2 0x616 JUMP JUMPDEST PUSH2 0x1A9 PUSH1 0x2 SLOAD DUP2 JUMP JUMPDEST PUSH1 0x40 MLOAD SWAP1 DUP2 MSTORE PUSH1 0x20 ADD PUSH2 0x11A JUMP JUMPDEST PUSH2 0x1A9 PUSH2 0x6ED JUMP JUMPDEST PUSH2 0x136 PUSH2 0x1CD CALLDATASIZE PUSH1 0x4 PUSH2 0xE3F JUMP JUMPDEST PUSH2 0x702 JUMP JUMPDEST PUSH2 0x136 PUSH2 0x1E0 CALLDATASIZE PUSH1 0x4 PUSH2 0xD57 JUMP JUMPDEST PUSH2 0x7F8 JUMP JUMPDEST PUSH1 0x6 SLOAD PUSH2 0x1F8 SWAP1 PUSH1 0x1 PUSH1 0x1 PUSH1 0xA0 SHL SUB AND DUP2 JUMP JUMPDEST PUSH1 0x40 MLOAD PUSH1 0x1 PUSH1 0x1 PUSH1 0xA0 SHL SUB SWAP1 SWAP2 AND DUP2 MSTORE PUSH1 0x20 ADD PUSH2 0x11A JUMP JUMPDEST PUSH2 0x136 PUSH2 0x99D JUMP JUMPDEST PUSH2 0x1A9 PUSH1 0x5 SLOAD DUP2 JUMP JUMPDEST PUSH2 0x1A9 PUSH1 0x3 SLOAD DUP2 JUMP JUMPDEST PUSH2 0x136 PUSH2 0x238 CALLDATASIZE PUSH1 0x4 PUSH2 0xEF0 JUMP JUMPDEST PUSH2 0xA0B JUMP JUMPDEST PUSH2 0x269 PUSH2 0x24B CALLDATASIZE PUSH1 0x4 PUSH2 0xEF0 JUMP JUMPDEST PUSH1 0x0 PUSH1 0x20 DUP2 SWAP1 MSTORE SWAP1 DUP2 MSTORE PUSH1 0x40 SWAP1 KECCAK256 SLOAD PUSH1 0xFF DUP1 DUP3 AND SWAP2 PUSH2 0x100 SWAP1 DIV AND DUP3 JUMP JUMPDEST PUSH1 0x40 DUP1 MLOAD SWAP3 ISZERO ISZERO DUP4 MSTORE SWAP1 ISZERO ISZERO PUSH1 0x20 DUP4 ADD MSTORE ADD PUSH2 0x11A JUMP JUMPDEST PUSH1 0x60 PUSH1 0x1 DUP1 SLOAD DUP1 PUSH1 0x20 MUL PUSH1 0x20 ADD PUSH1 0x40 MLOAD SWAP1 DUP2 ADD PUSH1 0x40 MSTORE DUP1 SWAP3 SWAP2 SWAP1 DUP2 DUP2 MSTORE PUSH1 0x20 ADD PUSH1 0x0 SWAP1 JUMPDEST DUP3 DUP3 LT ISZERO PUSH2 0x372 JUMPI DUP4 DUP3 SWAP1 PUSH1 0x0 MSTORE PUSH1 0x20 PUSH1 0x0 KECCAK256 SWAP1 PUSH1 0x2 MUL ADD PUSH1 0x40 MLOAD DUP1 PUSH1 0x40 ADD PUSH1 0x40 MSTORE SWAP1 DUP2 PUSH1 0x0 DUP3 ADD DUP1 SLOAD PUSH2 0x2D7 SWAP1 PUSH2 0xF12 JUMP JUMPDEST DUP1 PUSH1 0x1F ADD PUSH1 0x20 DUP1 SWAP2 DIV MUL PUSH1 0x20 ADD PUSH1 0x40 MLOAD SWAP1 DUP2 ADD PUSH1 0x40 MSTORE DUP1 SWAP3 SWAP2 SWAP1 DUP2 DUP2 MSTORE PUSH1 0x20 ADD DUP3 DUP1 SLOAD PUSH2 0x303 SWAP1 PUSH2 0xF12 JUMP JUMPDEST DUP1 ISZERO PUSH2 0x350 JUMPI DUP1 PUSH1 0x1F LT PUSH2 0x325 JUMPI PUSH2 0x100 DUP1 DUP4 SLOAD DIV MUL DUP4 MSTORE SWAP2 PUSH1 0x20 ADD SWAP2 PUSH2 0x350 JUMP JUMPDEST DUP3 ADD SWAP2 SWAP1 PUSH1 0x0 MSTORE PUSH1 0x20 PUSH1 0x0 KECCAK256 SWAP1 JUMPDEST DUP2 SLOAD DUP2 MSTORE SWAP1 PUSH1 0x1 ADD SWAP1 PUSH1 0x20 ADD DUP1 DUP4 GT PUSH2 0x333 JUMPI DUP3 SWAP1 SUB PUSH1 0x1F AND DUP3 ADD SWAP2 JUMPDEST POP POP POP POP POP DUP2 MSTORE PUSH1 0x20 ADD PUSH1 0x1 DUP3 ADD SLOAD DUP2 MSTORE POP POP DUP2 MSTORE PUSH1 0x20 ADD SWAP1 PUSH1 0x1 ADD SWAP1 PUSH2 0x2A4 JUMP JUMPDEST POP POP POP POP SWAP1 POP SWAP1 JUMP JUMPDEST PUSH1 0x6 SLOAD PUSH1 0x1 PUSH1 0x1 PUSH1 0xA0 SHL SUB AND CALLER EQ PUSH2 0x392 JUMPI PUSH1 0x0 DUP1 REVERT JUMPDEST PUSH1 0x1 PUSH1 0x6 SLOAD PUSH1 0x1 PUSH1 0xA0 SHL SWAP1 DIV PUSH1 0xFF AND PUSH1 0x1 DUP2 GT ISZERO PUSH2 0x3B2 JUMPI PUSH2 0x3B2 PUSH2 0xD19 JUMP JUMPDEST EQ PUSH2 0x3D8 JUMPI PUSH1 0x40 MLOAD PUSH3 0x461BCD PUSH1 0xE5 SHL DUP2 MSTORE PUSH1 0x4 ADD PUSH2 0x3CF SWAP1 PUSH2 0xF4D JUMP JUMPDEST PUSH1 0x40 MLOAD DUP1 SWAP2 SUB SWAP1 REVERT JUMPDEST PUSH1 0x0 JUMPDEST DUP2 MLOAD DUP2 LT ISZERO PUSH2 0x4C1 JUMPI PUSH1 0x1 PUSH1 0x0 DUP1 DUP5 DUP5 DUP2 MLOAD DUP2 LT PUSH2 0x3FB JUMPI PUSH2 0x3FB PUSH2 0xF82 JUMP JUMPDEST PUSH1 0x20 MUL PUSH1 0x20 ADD ADD MLOAD PUSH1 0x1 PUSH1 0x1 PUSH1 0xA0 SHL SUB AND PUSH1 0x1 PUSH1 0x1 PUSH1 0xA0 SHL SUB AND DUP2 MSTORE PUSH1 0x20 ADD SWAP1 DUP2 MSTORE PUSH1 0x20 ADD PUSH1 0x0 KECCAK256 PUSH1 0x0 ADD PUSH1 0x0 PUSH2 0x100 EXP DUP2 SLOAD DUP2 PUSH1 0xFF MUL NOT AND SWAP1 DUP4 ISZERO ISZERO MUL OR SWAP1 SSTORE POP PUSH1 0x0 DUP1 PUSH1 0x0 DUP5 DUP5 DUP2 MLOAD DUP2 LT PUSH2 0x454 JUMPI PUSH2 0x454 PUSH2 0xF82 JUMP JUMPDEST PUSH1 0x20 MUL PUSH1 0x20 ADD ADD MLOAD PUSH1 0x1 PUSH1 0x1 PUSH1 0xA0 SHL SUB AND PUSH1 0x1 PUSH1 0x1 PUSH1 0xA0 SHL SUB AND DUP2 MSTORE PUSH1 0x20 ADD SWAP1 DUP2 MSTORE PUSH1 0x20 ADD PUSH1 0x0 KECCAK256 PUSH1 0x0 ADD PUSH1 0x1 PUSH2 0x100 EXP DUP2 SLOAD DUP2 PUSH1 0xFF MUL NOT AND SWAP1 DUP4 ISZERO ISZERO MUL OR SWAP1 SSTORE POP PUSH1 0x1 PUSH1 0x3 PUSH1 0x0 DUP3 DUP3 SLOAD PUSH2 0x4A9 SWAP2 SWAP1 PUSH2 0xFAE JUMP JUMPDEST SWAP1 SWAP2 SSTORE POP DUP2 SWAP1 POP PUSH2 0x4B9 DUP2 PUSH2 0xFC6 JUMP JUMPDEST SWAP2 POP POP PUSH2 0x3DB JUMP JUMPDEST POP POP JUMP JUMPDEST PUSH1 0x1 DUP2 DUP2 SLOAD DUP2 LT PUSH2 0x4D5 JUMPI PUSH1 0x0 DUP1 REVERT JUMPDEST SWAP1 PUSH1 0x0 MSTORE PUSH1 0x20 PUSH1 0x0 KECCAK256 SWAP1 PUSH1 0x2 MUL ADD PUSH1 0x0 SWAP2 POP SWAP1 POP DUP1 PUSH1 0x0 ADD DUP1 SLOAD PUSH2 0x4F8 SWAP1 PUSH2 0xF12 JUMP JUMPDEST DUP1 PUSH1 0x1F ADD PUSH1 0x20 DUP1 SWAP2 DIV MUL PUSH1 0x20 ADD PUSH1 0x40 MLOAD SWAP1 DUP2 ADD PUSH1 0x40 MSTORE DUP1 SWAP3 SWAP2 SWAP1 DUP2 DUP2 MSTORE PUSH1 0x20 ADD DUP3 DUP1 SLOAD PUSH2 0x524 SWAP1 PUSH2 0xF12 JUMP JUMPDEST DUP1 ISZERO PUSH2 0x571 JUMPI DUP1 PUSH1 0x1F LT PUSH2 0x546 JUMPI PUSH2 0x100 DUP1 DUP4 SLOAD DIV MUL DUP4 MSTORE SWAP2 PUSH1 0x20 ADD SWAP2 PUSH2 0x571 JUMP JUMPDEST DUP3 ADD SWAP2 SWAP1 PUSH1 0x0 MSTORE PUSH1 0x20 PUSH1 0x0 KECCAK256 SWAP1 JUMPDEST DUP2 SLOAD DUP2 MSTORE SWAP1 PUSH1 0x1 ADD SWAP1 PUSH1 0x20 ADD DUP1 DUP4 GT PUSH2 0x554 JUMPI DUP3 SWAP1 SUB PUSH1 0x1F AND DUP3 ADD SWAP2 JUMPDEST POP POP POP POP POP SWAP1 DUP1 PUSH1 0x1 ADD SLOAD SWAP1 POP DUP3 JUMP JUMPDEST PUSH1 0x6 SLOAD PUSH1 0x1 PUSH1 0x1 PUSH1 0xA0 SHL SUB AND CALLER EQ PUSH2 0x598 JUMPI PUSH1 0x0 DUP1 REVERT JUMPDEST PUSH1 0x1 PUSH1 0x6 SLOAD PUSH1 0x1 PUSH1 0xA0 SHL SWAP1 DIV PUSH1 0xFF AND PUSH1 0x1 DUP2 GT ISZERO PUSH2 0x5B8 JUMPI PUSH2 0x5B8 PUSH2 0xD19 JUMP JUMPDEST EQ PUSH2 0x5F9 JUMPI PUSH1 0x40 MLOAD PUSH3 0x461BCD PUSH1 0xE5 SHL DUP2 MSTORE PUSH1 0x20 PUSH1 0x4 DUP3 ADD MSTORE PUSH1 0x11 PUSH1 0x24 DUP3 ADD MSTORE PUSH17 0x10D85B9D081899481A5B9A5D1A585D1959 PUSH1 0x7A SHL PUSH1 0x44 DUP3 ADD MSTORE PUSH1 0x64 ADD PUSH2 0x3CF JUMP JUMPDEST PUSH1 0x6 DUP1 SLOAD PUSH1 0xFF PUSH1 0xA0 SHL NOT AND SWAP1 SSTORE PUSH2 0x610 DUP2 TIMESTAMP PUSH2 0xFAE JUMP JUMPDEST PUSH1 0x4 SSTORE POP JUMP JUMPDEST PUSH1 0x6 SLOAD PUSH1 0x1 PUSH1 0x1 PUSH1 0xA0 SHL SUB AND CALLER EQ PUSH2 0x62D JUMPI PUSH1 0x0 DUP1 REVERT JUMPDEST PUSH1 0x1 PUSH1 0x6 SLOAD PUSH1 0x1 PUSH1 0xA0 SHL SWAP1 DIV PUSH1 0xFF AND PUSH1 0x1 DUP2 GT ISZERO PUSH2 0x64D JUMPI PUSH2 0x64D PUSH2 0xD19 JUMP JUMPDEST EQ PUSH2 0x66A JUMPI PUSH1 0x40 MLOAD PUSH3 0x461BCD PUSH1 0xE5 SHL DUP2 MSTORE PUSH1 0x4 ADD PUSH2 0x3CF SWAP1 PUSH2 0xF4D JUMP JUMPDEST PUSH1 0x40 DUP1 MLOAD DUP1 DUP3 ADD SWAP1 SWAP2 MSTORE DUP2 DUP2 MSTORE PUSH1 0x0 PUSH1 0x20 DUP1 DUP4 ADD DUP3 SWAP1 MSTORE PUSH1 0x1 DUP1 SLOAD DUP1 DUP3 ADD DUP3 SSTORE SWAP3 MSTORE DUP3 MLOAD DUP1 MLOAD PUSH1 0x2 SWAP1 SWAP4 MUL PUSH32 0xB10E2D527612073B26EECDFD717E6A320CF44B4AFAC2B0732D9FCBE2B7FA0CF6 ADD SWAP3 PUSH2 0x6C5 SWAP3 DUP5 SWAP3 ADD SWAP1 PUSH2 0xA99 JUMP JUMPDEST POP PUSH1 0x20 DUP3 ADD MLOAD DUP2 PUSH1 0x1 ADD SSTORE POP POP PUSH1 0x1 PUSH1 0x2 PUSH1 0x0 DUP3 DUP3 SLOAD PUSH2 0x6E5 SWAP2 SWAP1 PUSH2 0xFAE JUMP JUMPDEST SWAP1 SWAP2 SSTORE POP POP POP JUMP JUMPDEST PUSH1 0x0 TIMESTAMP PUSH1 0x4 SLOAD PUSH2 0x6FD SWAP2 SWAP1 PUSH2 0xFE1 JUMP JUMPDEST SWAP1 POP SWAP1 JUMP JUMPDEST PUSH1 0x6 SLOAD PUSH1 0x1 PUSH1 0x1 PUSH1 0xA0 SHL SUB AND CALLER EQ PUSH2 0x719 JUMPI PUSH1 0x0 DUP1 REVERT JUMPDEST PUSH1 0x1 PUSH1 0x6 SLOAD PUSH1 0x1 PUSH1 0xA0 SHL SWAP1 DIV PUSH1 0xFF AND PUSH1 0x1 DUP2 GT ISZERO PUSH2 0x739 JUMPI PUSH2 0x739 PUSH2 0xD19 JUMP JUMPDEST EQ PUSH2 0x756 JUMPI PUSH1 0x40 MLOAD PUSH3 0x461BCD PUSH1 0xE5 SHL DUP2 MSTORE PUSH1 0x4 ADD PUSH2 0x3CF SWAP1 PUSH2 0xF4D JUMP JUMPDEST PUSH1 0x0 JUMPDEST DUP2 MLOAD DUP2 LT ISZERO PUSH2 0x4C1 JUMPI PUSH1 0x1 PUSH1 0x40 MLOAD DUP1 PUSH1 0x40 ADD PUSH1 0x40 MSTORE DUP1 DUP5 DUP5 DUP2 MLOAD DUP2 LT PUSH2 0x781 JUMPI PUSH2 0x781 PUSH2 0xF82 JUMP JUMPDEST PUSH1 0x20 SWAP1 DUP2 MUL SWAP2 SWAP1 SWAP2 ADD DUP2 ADD MLOAD DUP3 MSTORE PUSH1 0x0 SWAP2 DUP2 ADD DUP3 SWAP1 MSTORE DUP4 SLOAD PUSH1 0x1 DUP2 ADD DUP6 SSTORE SWAP4 DUP3 MSTORE SWAP1 DUP2 SWAP1 KECCAK256 DUP3 MLOAD DUP1 MLOAD SWAP4 SWAP5 PUSH1 0x2 MUL SWAP1 SWAP2 ADD SWAP3 PUSH2 0x7C0 SWAP3 DUP5 SWAP3 ADD SWAP1 PUSH2 0xA99 JUMP JUMPDEST POP PUSH1 0x20 DUP3 ADD MLOAD DUP2 PUSH1 0x1 ADD SSTORE POP POP PUSH1 0x1 PUSH1 0x2 PUSH1 0x0 DUP3 DUP3 SLOAD PUSH2 0x7E0 SWAP2 SWAP1 PUSH2 0xFAE JUMP JUMPDEST SWAP1 SWAP2 SSTORE POP DUP2 SWAP1 POP PUSH2 0x7F0 DUP2 PUSH2 0xFC6 JUMP JUMPDEST SWAP2 POP POP PUSH2 0x759 JUMP JUMPDEST PUSH1 0x0 TIMESTAMP PUSH1 0x4 SLOAD PUSH2 0x808 SWAP2 SWAP1 PUSH2 0xFE1 JUMP JUMPDEST SGT PUSH2 0x841 JUMPI PUSH1 0x40 MLOAD PUSH3 0x461BCD PUSH1 0xE5 SHL DUP2 MSTORE PUSH1 0x20 PUSH1 0x4 DUP3 ADD MSTORE PUSH1 0x9 PUSH1 0x24 DUP3 ADD MSTORE PUSH9 0x74696D6520656E6473 PUSH1 0xB8 SHL PUSH1 0x44 DUP3 ADD MSTORE PUSH1 0x64 ADD PUSH2 0x3CF JUMP JUMPDEST PUSH1 0x0 PUSH1 0x6 SLOAD PUSH1 0x1 PUSH1 0xA0 SHL SWAP1 DIV PUSH1 0xFF AND PUSH1 0x1 DUP2 GT ISZERO PUSH2 0x861 JUMPI PUSH2 0x861 PUSH2 0xD19 JUMP JUMPDEST EQ PUSH2 0x8A1 JUMPI PUSH1 0x40 MLOAD PUSH3 0x461BCD PUSH1 0xE5 SHL DUP2 MSTORE PUSH1 0x20 PUSH1 0x4 DUP3 ADD MSTORE PUSH1 0x10 PUSH1 0x24 DUP3 ADD MSTORE PUSH16 0x1D9BDD19481B9BDD081CDD185C9D1959 PUSH1 0x82 SHL PUSH1 0x44 DUP3 ADD MSTORE PUSH1 0x64 ADD PUSH2 0x3CF JUMP JUMPDEST CALLER PUSH1 0x0 SWAP1 DUP2 MSTORE PUSH1 0x20 DUP2 SWAP1 MSTORE PUSH1 0x40 SWAP1 KECCAK256 SLOAD PUSH1 0xFF AND ISZERO ISZERO PUSH1 0x1 EQ PUSH2 0x8F0 JUMPI PUSH1 0x40 MLOAD PUSH3 0x461BCD PUSH1 0xE5 SHL DUP2 MSTORE PUSH1 0x20 PUSH1 0x4 DUP3 ADD MSTORE PUSH1 0x8 PUSH1 0x24 DUP3 ADD MSTORE PUSH8 0x2737903B37BA32B9 PUSH1 0xC1 SHL PUSH1 0x44 DUP3 ADD MSTORE PUSH1 0x64 ADD PUSH2 0x3CF JUMP JUMPDEST CALLER PUSH1 0x0 SWAP1 DUP2 MSTORE PUSH1 0x20 DUP2 SWAP1 MSTORE PUSH1 0x40 SWAP1 KECCAK256 SLOAD PUSH2 0x100 SWAP1 DIV PUSH1 0xFF AND ISZERO PUSH2 0x945 JUMPI PUSH1 0x40 MLOAD PUSH3 0x461BCD PUSH1 0xE5 SHL DUP2 MSTORE PUSH1 0x20 PUSH1 0x4 DUP3 ADD MSTORE PUSH1 0xD PUSH1 0x24 DUP3 ADD MSTORE PUSH13 0x105B1C9958591E481D9BDD1959 PUSH1 0x9A SHL PUSH1 0x44 DUP3 ADD MSTORE PUSH1 0x64 ADD PUSH2 0x3CF JUMP JUMPDEST PUSH1 0x1 DUP1 DUP3 DUP2 SLOAD DUP2 LT PUSH2 0x959 JUMPI PUSH2 0x959 PUSH2 0xF82 JUMP JUMPDEST SWAP1 PUSH1 0x0 MSTORE PUSH1 0x20 PUSH1 0x0 KECCAK256 SWAP1 PUSH1 0x2 MUL ADD PUSH1 0x1 ADD PUSH1 0x0 DUP3 DUP3 SLOAD PUSH2 0x979 SWAP2 SWAP1 PUSH2 0xFAE JUMP JUMPDEST SWAP1 SWAP2 SSTORE POP POP CALLER PUSH1 0x0 SWAP1 DUP2 MSTORE PUSH1 0x20 DUP2 SWAP1 MSTORE PUSH1 0x40 SWAP1 KECCAK256 DUP1 SLOAD PUSH2 0xFF00 NOT AND PUSH2 0x100 OR SWAP1 SSTORE POP JUMP JUMPDEST PUSH1 0x6 SLOAD PUSH1 0x1 PUSH1 0x1 PUSH1 0xA0 SHL SUB AND CALLER EQ PUSH2 0x9B4 JUMPI PUSH1 0x0 DUP1 REVERT JUMPDEST PUSH1 0x1 TIMESTAMP PUSH1 0x4 SLOAD PUSH2 0x9C4 SWAP2 SWAP1 PUSH2 0xFE1 JUMP JUMPDEST SLT PUSH2 0x9FD JUMPI PUSH1 0x40 MLOAD PUSH3 0x461BCD PUSH1 0xE5 SHL DUP2 MSTORE PUSH1 0x20 PUSH1 0x4 DUP3 ADD MSTORE PUSH1 0x9 PUSH1 0x24 DUP3 ADD MSTORE PUSH9 0x1D1A5B59481B19599D PUSH1 0xBA SHL PUSH1 0x44 DUP3 ADD MSTORE PUSH1 0x64 ADD PUSH2 0x3CF JUMP JUMPDEST PUSH1 0x6 SLOAD PUSH1 0x1 PUSH1 0x1 PUSH1 0xA0 SHL SUB AND SELFDESTRUCT JUMPDEST PUSH1 0x6 SLOAD PUSH1 0x1 PUSH1 0x1 PUSH1 0xA0 SHL SUB AND CALLER EQ PUSH2 0xA22 JUMPI PUSH1 0x0 DUP1 REVERT JUMPDEST PUSH1 0x1 PUSH1 0x6 SLOAD PUSH1 0x1 PUSH1 0xA0 SHL SWAP1 DIV PUSH1 0xFF AND PUSH1 0x1 DUP2 GT ISZERO PUSH2 0xA42 JUMPI PUSH2 0xA42 PUSH2 0xD19 JUMP JUMPDEST EQ PUSH2 0xA5F JUMPI PUSH1 0x40 MLOAD PUSH3 0x461BCD PUSH1 0xE5 SHL DUP2 MSTORE PUSH1 0x4 ADD PUSH2 0x3CF SWAP1 PUSH2 0xF4D JUMP JUMPDEST PUSH1 0x1 PUSH1 0x1 PUSH1 0xA0 SHL SUB DUP2 AND PUSH1 0x0 SWAP1 DUP2 MSTORE PUSH1 0x20 DUP2 SWAP1 MSTORE PUSH1 0x40 DUP2 KECCAK256 DUP1 SLOAD PUSH2 0xFFFF NOT AND PUSH1 0x1 SWAP1 DUP2 OR SWAP1 SWAP2 SSTORE PUSH1 0x3 DUP1 SLOAD SWAP2 SWAP3 SWAP1 SWAP2 PUSH2 0x6E5 SWAP1 DUP5 SWAP1 PUSH2 0xFAE JUMP JUMPDEST DUP3 DUP1 SLOAD PUSH2 0xAA5 SWAP1 PUSH2 0xF12 JUMP JUMPDEST SWAP1 PUSH1 0x0 MSTORE PUSH1 0x20 PUSH1 0x0 KECCAK256 SWAP1 PUSH1 0x1F ADD PUSH1 0x20 SWAP1 DIV DUP2 ADD SWAP3 DUP3 PUSH2 0xAC7 JUMPI PUSH1 0x0 DUP6 SSTORE PUSH2 0xB0D JUMP JUMPDEST DUP3 PUSH1 0x1F LT PUSH2 0xAE0 JUMPI DUP1 MLOAD PUSH1 0xFF NOT AND DUP4 DUP1 ADD OR DUP6 SSTORE PUSH2 0xB0D JUMP JUMPDEST DUP3 DUP1 ADD PUSH1 0x1 ADD DUP6 SSTORE DUP3 ISZERO PUSH2 0xB0D JUMPI SWAP2 DUP3 ADD JUMPDEST DUP3 DUP2 GT ISZERO PUSH2 0xB0D JUMPI DUP3 MLOAD DUP3 SSTORE SWAP2 PUSH1 0x20 ADD SWAP2 SWAP1 PUSH1 0x1 ADD SWAP1 PUSH2 0xAF2 JUMP JUMPDEST POP PUSH2 0xB19 SWAP3 SWAP2 POP PUSH2 0xB1D JUMP JUMPDEST POP SWAP1 JUMP JUMPDEST JUMPDEST DUP1 DUP3 GT ISZERO PUSH2 0xB19 JUMPI PUSH1 0x0 DUP2 SSTORE PUSH1 0x1 ADD PUSH2 0xB1E JUMP JUMPDEST PUSH1 0x0 DUP2 MLOAD DUP1 DUP5 MSTORE PUSH1 0x0 JUMPDEST DUP2 DUP2 LT ISZERO PUSH2 0xB58 JUMPI PUSH1 0x20 DUP2 DUP6 ADD DUP2 ADD MLOAD DUP7 DUP4 ADD DUP3 ADD MSTORE ADD PUSH2 0xB3C JUMP JUMPDEST DUP2 DUP2 GT ISZERO PUSH2 0xB6A JUMPI PUSH1 0x0 PUSH1 0x20 DUP4 DUP8 ADD ADD MSTORE JUMPDEST POP PUSH1 0x1F ADD PUSH1 0x1F NOT AND SWAP3 SWAP1 SWAP3 ADD PUSH1 0x20 ADD SWAP3 SWAP2 POP POP JUMP JUMPDEST PUSH1 0x0 PUSH1 0x20 DUP1 DUP4 ADD DUP2 DUP5 MSTORE DUP1 DUP6 MLOAD DUP1 DUP4 MSTORE PUSH1 0x40 SWAP3 POP DUP3 DUP7 ADD SWAP2 POP DUP3 DUP2 PUSH1 0x5 SHL DUP8 ADD ADD DUP5 DUP9 ADD PUSH1 0x0 JUMPDEST DUP4 DUP2 LT ISZERO PUSH2 0xBE7 JUMPI DUP9 DUP4 SUB PUSH1 0x3F NOT ADD DUP6 MSTORE DUP2 MLOAD DUP1 MLOAD DUP8 DUP6 MSTORE PUSH2 0xBCA DUP9 DUP7 ADD DUP3 PUSH2 0xB32 JUMP JUMPDEST SWAP2 DUP10 ADD MLOAD SWAP5 DUP10 ADD SWAP5 SWAP1 SWAP5 MSTORE SWAP5 DUP8 ADD SWAP5 SWAP3 POP SWAP1 DUP7 ADD SWAP1 PUSH1 0x1 ADD PUSH2 0xBA6 JUMP JUMPDEST POP SWAP1 SWAP9 SWAP8 POP POP POP POP POP POP POP POP JUMP JUMPDEST PUSH4 0x4E487B71 PUSH1 0xE0 SHL PUSH1 0x0 MSTORE PUSH1 0x41 PUSH1 0x4 MSTORE PUSH1 0x24 PUSH1 0x0 REVERT JUMPDEST PUSH1 0x40 MLOAD PUSH1 0x1F DUP3 ADD PUSH1 0x1F NOT AND DUP2 ADD PUSH8 0xFFFFFFFFFFFFFFFF DUP2 GT DUP3 DUP3 LT OR ISZERO PUSH2 0xC34 JUMPI PUSH2 0xC34 PUSH2 0xBF5 JUMP JUMPDEST PUSH1 0x40 MSTORE SWAP2 SWAP1 POP JUMP JUMPDEST PUSH1 0x0 PUSH8 0xFFFFFFFFFFFFFFFF DUP3 GT ISZERO PUSH2 0xC56 JUMPI PUSH2 0xC56 PUSH2 0xBF5 JUMP JUMPDEST POP PUSH1 0x5 SHL PUSH1 0x20 ADD SWAP1 JUMP JUMPDEST DUP1 CALLDATALOAD PUSH1 0x1 PUSH1 0x1 PUSH1 0xA0 SHL SUB DUP2 AND DUP2 EQ PUSH2 0xC77 JUMPI PUSH1 0x0 DUP1 REVERT JUMPDEST SWAP2 SWAP1 POP JUMP JUMPDEST PUSH1 0x0 PUSH1 0x20 DUP1 DUP4 DUP6 SUB SLT ISZERO PUSH2 0xC8F JUMPI PUSH1 0x0 DUP1 REVERT JUMPDEST DUP3 CALLDATALOAD PUSH8 0xFFFFFFFFFFFFFFFF DUP2 GT ISZERO PUSH2 0xCA6 JUMPI PUSH1 0x0 DUP1 REVERT JUMPDEST DUP4 ADD PUSH1 0x1F DUP2 ADD DUP6 SGT PUSH2 0xCB7 JUMPI PUSH1 0x0 DUP1 REVERT JUMPDEST DUP1 CALLDATALOAD PUSH2 0xCCA PUSH2 0xCC5 DUP3 PUSH2 0xC3C JUMP JUMPDEST PUSH2 0xC0B JUMP JUMPDEST DUP2 DUP2 MSTORE PUSH1 0x5 SWAP2 SWAP1 SWAP2 SHL DUP3 ADD DUP4 ADD SWAP1 DUP4 DUP2 ADD SWAP1 DUP8 DUP4 GT ISZERO PUSH2 0xCE9 JUMPI PUSH1 0x0 DUP1 REVERT JUMPDEST SWAP3 DUP5 ADD SWAP3 JUMPDEST DUP3 DUP5 LT ISZERO PUSH2 0xD0E JUMPI PUSH2 0xCFF DUP5 PUSH2 0xC60 JUMP JUMPDEST DUP3 MSTORE SWAP3 DUP5 ADD SWAP3 SWAP1 DUP5 ADD SWAP1 PUSH2 0xCEE JUMP JUMPDEST SWAP8 SWAP7 POP POP POP POP POP POP POP JUMP JUMPDEST PUSH4 0x4E487B71 PUSH1 0xE0 SHL PUSH1 0x0 MSTORE PUSH1 0x21 PUSH1 0x4 MSTORE PUSH1 0x24 PUSH1 0x0 REVERT JUMPDEST PUSH1 0x20 DUP2 ADD PUSH1 0x2 DUP4 LT PUSH2 0xD51 JUMPI PUSH4 0x4E487B71 PUSH1 0xE0 SHL PUSH1 0x0 MSTORE PUSH1 0x21 PUSH1 0x4 MSTORE PUSH1 0x24 PUSH1 0x0 REVERT JUMPDEST SWAP2 SWAP1 MSTORE SWAP1 JUMP JUMPDEST PUSH1 0x0 PUSH1 0x20 DUP3 DUP5 SUB SLT ISZERO PUSH2 0xD69 JUMPI PUSH1 0x0 DUP1 REVERT JUMPDEST POP CALLDATALOAD SWAP2 SWAP1 POP JUMP JUMPDEST PUSH1 0x40 DUP2 MSTORE PUSH1 0x0 PUSH2 0xD83 PUSH1 0x40 DUP4 ADD DUP6 PUSH2 0xB32 JUMP JUMPDEST SWAP1 POP DUP3 PUSH1 0x20 DUP4 ADD MSTORE SWAP4 SWAP3 POP POP POP JUMP JUMPDEST PUSH1 0x0 DUP3 PUSH1 0x1F DUP4 ADD SLT PUSH2 0xDA3 JUMPI PUSH1 0x0 DUP1 REVERT JUMPDEST DUP2 CALLDATALOAD PUSH8 0xFFFFFFFFFFFFFFFF DUP2 GT ISZERO PUSH2 0xDBD JUMPI PUSH2 0xDBD PUSH2 0xBF5 JUMP JUMPDEST PUSH2 0xDD0 PUSH1 0x1F DUP3 ADD PUSH1 0x1F NOT AND PUSH1 0x20 ADD PUSH2 0xC0B JUMP JUMPDEST DUP2 DUP2 MSTORE DUP5 PUSH1 0x20 DUP4 DUP7 ADD ADD GT ISZERO PUSH2 0xDE5 JUMPI PUSH1 0x0 DUP1 REVERT JUMPDEST DUP2 PUSH1 0x20 DUP6 ADD PUSH1 0x20 DUP4 ADD CALLDATACOPY PUSH1 0x0 SWAP2 DUP2 ADD PUSH1 0x20 ADD SWAP2 SWAP1 SWAP2 MSTORE SWAP4 SWAP3 POP POP POP JUMP JUMPDEST PUSH1 0x0 PUSH1 0x20 DUP3 DUP5 SUB SLT ISZERO PUSH2 0xE14 JUMPI PUSH1 0x0 DUP1 REVERT JUMPDEST DUP2 CALLDATALOAD PUSH8 0xFFFFFFFFFFFFFFFF DUP2 GT ISZERO PUSH2 0xE2B JUMPI PUSH1 0x0 DUP1 REVERT JUMPDEST PUSH2 0xE37 DUP5 DUP3 DUP6 ADD PUSH2 0xD92 JUMP JUMPDEST SWAP5 SWAP4 POP POP POP POP JUMP JUMPDEST PUSH1 0x0 PUSH1 0x20 DUP1 DUP4 DUP6 SUB SLT ISZERO PUSH2 0xE52 JUMPI PUSH1 0x0 DUP1 REVERT JUMPDEST DUP3 CALLDATALOAD PUSH8 0xFFFFFFFFFFFFFFFF DUP1 DUP3 GT ISZERO PUSH2 0xE6A JUMPI PUSH1 0x0 DUP1 REVERT JUMPDEST DUP2 DUP6 ADD SWAP2 POP DUP6 PUSH1 0x1F DUP4 ADD SLT PUSH2 0xE7E JUMPI PUSH1 0x0 DUP1 REVERT JUMPDEST DUP2 CALLDATALOAD PUSH2 0xE8C PUSH2 0xCC5 DUP3 PUSH2 0xC3C JUMP JUMPDEST DUP2 DUP2 MSTORE PUSH1 0x5 SWAP2 SWAP1 SWAP2 SHL DUP4 ADD DUP5 ADD SWAP1 DUP5 DUP2 ADD SWAP1 DUP9 DUP4 GT ISZERO PUSH2 0xEAB JUMPI PUSH1 0x0 DUP1 REVERT JUMPDEST DUP6 DUP6 ADD JUMPDEST DUP4 DUP2 LT ISZERO PUSH2 0xEE3 JUMPI DUP1 CALLDATALOAD DUP6 DUP2 GT ISZERO PUSH2 0xEC7 JUMPI PUSH1 0x0 DUP1 DUP2 REVERT JUMPDEST PUSH2 0xED5 DUP12 DUP10 DUP4 DUP11 ADD ADD PUSH2 0xD92 JUMP JUMPDEST DUP5 MSTORE POP SWAP2 DUP7 ADD SWAP2 DUP7 ADD PUSH2 0xEAF JUMP JUMPDEST POP SWAP9 SWAP8 POP POP POP POP POP POP POP POP JUMP JUMPDEST PUSH1 0x0 PUSH1 0x20 DUP3 DUP5 SUB SLT ISZERO PUSH2 0xF02 JUMPI PUSH1 0x0 DUP1 REVERT JUMPDEST PUSH2 0xF0B DUP3 PUSH2 0xC60 JUMP JUMPDEST SWAP4 SWAP3 POP POP POP JUMP JUMPDEST PUSH1 0x1 DUP2 DUP2 SHR SWAP1 DUP3 AND DUP1 PUSH2 0xF26 JUMPI PUSH1 0x7F DUP3 AND SWAP2 POP JUMPDEST PUSH1 0x20 DUP3 LT DUP2 EQ ISZERO PUSH2 0xF47 JUMPI PUSH4 0x4E487B71 PUSH1 0xE0 SHL PUSH1 0x0 MSTORE PUSH1 0x22 PUSH1 0x4 MSTORE PUSH1 0x24 PUSH1 0x0 REVERT JUMPDEST POP SWAP2 SWAP1 POP JUMP JUMPDEST PUSH1 0x20 DUP1 DUP3 MSTORE DUP2 DUP2 ADD MSTORE PUSH32 0x43616E277420616464207768696C6520766F7465206973206F6E20676F696E67 PUSH1 0x40 DUP3 ADD MSTORE PUSH1 0x60 ADD SWAP1 JUMP JUMPDEST PUSH4 0x4E487B71 PUSH1 0xE0 SHL PUSH1 0x0 MSTORE PUSH1 0x32 PUSH1 0x4 MSTORE PUSH1 0x24 PUSH1 0x0 REVERT JUMPDEST PUSH4 0x4E487B71 PUSH1 0xE0 SHL PUSH1 0x0 MSTORE PUSH1 0x11 PUSH1 0x4 MSTORE PUSH1 0x24 PUSH1 0x0 REVERT JUMPDEST PUSH1 0x0 DUP3 NOT DUP3 GT ISZERO PUSH2 0xFC1 JUMPI PUSH2 0xFC1 PUSH2 0xF98 JUMP JUMPDEST POP ADD SWAP1 JUMP JUMPDEST PUSH1 0x0 PUSH1 0x0 NOT DUP3 EQ ISZERO PUSH2 0xFDA JUMPI PUSH2 0xFDA PUSH2 0xF98 JUMP JUMPDEST POP PUSH1 0x1 ADD SWAP1 JUMP JUMPDEST PUSH1 0x0 DUP1 DUP4 SLT DUP1 ISZERO PUSH1 0x1 PUSH1 0xFF SHL DUP6 ADD DUP5 SLT AND ISZERO PUSH2 0xFFF JUMPI PUSH2 0xFFF PUSH2 0xF98 JUMP JUMPDEST PUSH1 0x1 PUSH1 0x1 PUSH1 0xFF SHL SUB DUP5 ADD DUP4 SGT DUP2 AND ISZERO PUSH2 0x101A JUMPI PUSH2 0x101A PUSH2 0xF98 JUMP JUMPDEST POP POP SUB SWAP1 JUMP INVALID LOG2 PUSH5 0x6970667358 0x22 SLT KECCAK256 PUSH32 0x23F20B5BCCD98DB6F07F6A201C8F0FAC5253A206A5F4684A27317CCF45181F64 PUSH20 0x6F6C634300080900330000000000000000000000 ","sha1":"1915a51cb054be18e6666d872ac5824317b9c9ff","source":"//SPDX-License-Identifier:MIT\npragma solidity >=0.6.6;\n\n\ncontract Vote\n{\n    \n    mapping(address=>Voter) public Voters;\n    VCandidate[] public Candidates;\n    uint public total_cand=0;\n    uint public total_voters=0;\n    \n    int256 end;\n    //winner feature to be added\n    uint256 public winner;\n    // uint256 start;\n    address public owner;\n    \n    enum VOTE_STATE {\n        \n        OPEN,\n        CLOSED\n      \n    }\n\n    \n    VOTE_STATE public vote_state;\n    \n    struct Voter\n    {\n      bool isauthorised;\n      bool hasVoted;\n    }\n\n    struct VCandidate\n    {\n        string name;\n        uint256 voteCount;\n    }\n    \n      \n    modifier OnlyOwner\n    {\n        require(owner==msg.sender);\n        _;\n    }\n\n\n    constructor(){\n    \n    vote_state=VOTE_STATE.CLOSED; \n    owner=msg.sender;\n        \n    }\n    \n\n    \n    function addCandidate(string memory _name) public OnlyOwner\n    {require(vote_state==VOTE_STATE.CLOSED,\"Can't add while vote is on going\");\n     Candidates.push(VCandidate(_name,0));\n     total_cand+=1;   \n    }\n\n       function addCandidateBulk(string [] memory _names) public OnlyOwner\n    {require(vote_state==VOTE_STATE.CLOSED,\"Can't add while vote is on going\");\n        for(uint i =0;i<_names.length;i++)\n        {\n            Candidates.push(VCandidate(_names[i],0));\n            total_cand+=1;   \n    \n        }\n    }\n    \n    \n    function addVoterseBulk(address [] memory _names) public OnlyOwner\n    {require(vote_state==VOTE_STATE.CLOSED,\"Can't add while vote is on going\");\n        for(uint i =0;i<_names.length;i++)\n        {   Voters[_names[i]].isauthorised=true;\n            Voters[_names[i]].hasVoted=false;\n            \n            total_voters+=1;   \n    \n        }\n    }\n    \n     \n    function addVoter(address a) public OnlyOwner\n    {require(vote_state==VOTE_STATE.CLOSED,\"Can't add while vote is on going\");\n     Voters[a].isauthorised=true;\n     Voters[a].hasVoted=false;\n     total_voters+=1 ;\n\n    }\n    \n    \n    function startVote(uint256 _time) public OnlyOwner\n    {\n     require(vote_state==VOTE_STATE.CLOSED,\"Cant be initiated\");\n     vote_state=VOTE_STATE.OPEN; \n     \n     end=int256(block.timestamp+_time);\n\n    }\n    \n\n    \n    \n    function voteCandidate(uint Index) public\n    \n    {   \n        require(end-int256(block.timestamp)>0,\"time ends\");\n        require(vote_state==VOTE_STATE.OPEN,\"vote not started\");\n        require(Voters[msg.sender].isauthorised==true,\"No voter\");\n        require(Voters[msg.sender].hasVoted==false,\"Already voted\");\n        Candidates[Index].voteCount+=1;   \n        Voters[msg.sender].hasVoted=true;\n        \n    }\n\n    \n    function timeleft() public view returns (int256)\n    {\n        return end-int256(block.timestamp);\n    }\n        \n    function endVote() public OnlyOwner\n    {require(end-int256(block.timestamp)<1,\"time left\");\n\n    \n     selfdestruct(payable(owner)); \n\n    }\n    function getCandidateArray()public view returns( VCandidate[]memory){\n    return Candidates;\n    }\n    \n    \n    \n    \n    \n}\n\n\n\n","sourcePath":"contracts/Voting_app.sol","type":"contract","deployment":{"address":"0x0512D69eEB05C5B79D177a5348d884984E19a28c","chainid":"42","blockHeight":31616318}}