{"abi":[{"inputs":[],"stateMutability":"nonpayable","type":"constructor","name":"constructor"},{"inputs":[{"internalType":"uint256","name":"","type":"uint256"}],"name":"Candidates","outputs":[{"internalType":"string","name":"name","type":"string"},{"internalType":"uint256","name":"voteCount","type":"uint256"}],"stateMutability":"view","type":"function"},{"inputs":[{"internalType":"address","name":"","type":"address"}],"name":"Cast","outputs":[{"internalType":"string","name":"","type":"string"}],"stateMutability":"view","type":"function"},{"inputs":[{"internalType":"address","name":"","type":"address"}],"name":"Voters","outputs":[{"internalType":"bool","name":"isauthorised","type":"bool"},{"internalType":"bool","name":"hasVoted","type":"bool"}],"stateMutability":"view","type":"function"},{"inputs":[{"internalType":"string","name":"_name","type":"string"}],"name":"addCandidate","outputs":[],"stateMutability":"nonpayable","type":"function"},{"inputs":[{"internalType":"string[]","name":"_names","type":"string[]"}],"name":"addCandidateBulk","outputs":[],"stateMutability":"nonpayable","type":"function"},{"inputs":[{"internalType":"address","name":"a","type":"address"}],"name":"addVoter","outputs":[],"stateMutability":"nonpayable","type":"function"},{"inputs":[{"internalType":"address[]","name":"_names","type":"address[]"}],"name":"addVoterseBulk","outputs":[],"stateMutability":"nonpayable","type":"function"},{"inputs":[],"name":"endVote","outputs":[],"stateMutability":"nonpayable","type":"function"},{"inputs":[],"name":"getCandidateArray","outputs":[{"components":[{"internalType":"string","name":"name","type":"string"},{"internalType":"uint256","name":"voteCount","type":"uint256"}],"internalType":"struct Vote.VCandidate[]","name":"","type":"tuple[]"}],"stateMutability":"view","type":"function"},{"inputs":[],"name":"owner","outputs":[{"internalType":"address","name":"","type":"address"}],"stateMutability":"view","type":"function"},{"inputs":[{"internalType":"uint256","name":"_time","type":"uint256"}],"name":"startVote","outputs":[],"stateMutability":"nonpayable","type":"function"},{"inputs":[],"name":"timeleft","outputs":[{"internalType":"int256","name":"","type":"int256"}],"stateMutability":"view","type":"function"},{"inputs":[],"name":"total_cand","outputs":[{"internalType":"uint256","name":"","type":"uint256"}],"stateMutability":"view","type":"function"},{"inputs":[],"name":"total_voters","outputs":[{"internalType":"uint256","name":"","type":"uint256"}],"stateMutability":"view","type":"function"},{"inputs":[{"internalType":"uint256","name":"Index","type":"uint256"}],"name":"voteCandidate","outputs":[],"stateMutability":"nonpayable","type":"function"},{"inputs":[],"name":"vote_state","outputs":[{"internalType":"enum Vote.VOTE_STATE","name":"","type":"uint8"}],"stateMutability":"view","type":"function"},{"inputs":[],"name":"winner","outputs":[{"internalType":"uint256","name":"","type":"uint256"}],"stateMutability":"view","type":"function"}],"bytecode":"60806040526000600355600060045534801561001a57600080fd5b5060078054336001600160a81b031990911617600160a01b1790556111f2806100446000396000f3fe608060405234801561001057600080fd5b506004361061010b5760003560e01c806368c74b53116100a2578063b922394611610071578063b92239461461023b578063dfbf53ae14610243578063e8677f191461024c578063f4ab9adf14610255578063fdedaa8a1461026857600080fd5b806368c74b53146101e2578063757b42bb146101ea5780638c08a4dc146101fd5780638da5cb5b1461021057600080fd5b8063290e9212116100de578063290e9212146101845780633f220524146101a5578063462e91ec146101b85780636352b20c146101cb57600080fd5b806309c56e64146101105780631e32c7901461012e5780631f1f8ca21461014357806325c00b9814610164575b600080fd5b6101186102ab565b6040516101259190610d08565b60405180910390f35b61014161013c366004610e05565b6103a6565b005b60075461015790600160a01b900460ff1681565b6040516101259190610eb8565b610177610172366004610ee0565b6104f0565b6040516101259190610f02565b610197610192366004610f15565b61058a565b604051610125929190610f2e565b6101416101b3366004610f15565b610646565b6101416101c6366004610fc0565b6106db565b6101d460035481565b604051908152602001610125565b6101d46107b4565b6101416101f8366004610ffd565b6107c9565b61014161020b366004610f15565b6108bf565b600754610223906001600160a01b031681565b6040516001600160a01b039091168152602001610125565b610141610aab565b6101d460065481565b6101d460045481565b610141610263366004610ee0565b610b19565b610294610276366004610ee0565b60006020819052908152604090205460ff8082169161010090041682565b604080519215158352901515602083015201610125565b60606002805480602002602001604051908101604052809291908181526020016000905b8282101561039d5783829060005260206000209060020201604051806040016040529081600082018054610302906110ae565b80601f016020809104026020016040519081016040528092919081815260200182805461032e906110ae565b801561037b5780601f106103505761010080835404028352916020019161037b565b820191906000526020600020905b81548152906001019060200180831161035e57829003601f168201915b50505050508152602001600182015481525050815260200190600101906102cf565b50505050905090565b6007546001600160a01b031633146103bd57600080fd5b6001600754600160a01b900460ff1660018111156103dd576103dd610ea2565b146104035760405162461bcd60e51b81526004016103fa906110e9565b60405180910390fd5b60005b81518110156104ec5760016000808484815181106104265761042661111e565b60200260200101516001600160a01b03166001600160a01b0316815260200190815260200160002060000160006101000a81548160ff021916908315150217905550600080600084848151811061047f5761047f61111e565b60200260200101516001600160a01b03166001600160a01b0316815260200190815260200160002060000160016101000a81548160ff0219169083151502179055506001600460008282546104d4919061114a565b909155508190506104e481611162565b915050610406565b5050565b60016020526000908152604090208054610509906110ae565b80601f0160208091040260200160405190810160405280929190818152602001828054610535906110ae565b80156105825780601f1061055757610100808354040283529160200191610582565b820191906000526020600020905b81548152906001019060200180831161056557829003601f168201915b505050505081565b6002818154811061059a57600080fd5b90600052602060002090600202016000915090508060000180546105bd906110ae565b80601f01602080910402602001604051908101604052809291908181526020018280546105e9906110ae565b80156106365780601f1061060b57610100808354040283529160200191610636565b820191906000526020600020905b81548152906001019060200180831161061957829003601f168201915b5050505050908060010154905082565b6007546001600160a01b0316331461065d57600080fd5b6001600754600160a01b900460ff16600181111561067d5761067d610ea2565b146106be5760405162461bcd60e51b815260206004820152601160248201527010d85b9d081899481a5b9a5d1a585d1959607a1b60448201526064016103fa565b6007805460ff60a01b191690556106d5814261114a565b60055550565b6007546001600160a01b031633146106f257600080fd5b6001600754600160a01b900460ff16600181111561071257610712610ea2565b1461072f5760405162461bcd60e51b81526004016103fa906110e9565b6040805180820190915281815260006020808301829052600280546001810182559281905283518051939091027f405787fa12a823e0f2b7631cc41b3ba8828b3321ca811111fa75cd3aa3bb5ace019261078c9284920190610ba7565b506020820151816001015550506001600360008282546107ac919061114a565b909155505050565b6000426005546107c4919061117d565b905090565b6007546001600160a01b031633146107e057600080fd5b6001600754600160a01b900460ff16600181111561080057610800610ea2565b1461081d5760405162461bcd60e51b81526004016103fa906110e9565b60005b81518110156104ec57600260405180604001604052808484815181106108485761084861111e565b60209081029190910181015182526000918101829052835460018101855593825290819020825180519394600202909101926108879284920190610ba7565b506020820151816001015550506001600360008282546108a7919061114a565b909155508190506108b781611162565b915050610820565b6000426005546108cf919061117d565b136109085760405162461bcd60e51b815260206004820152600960248201526874696d6520656e647360b81b60448201526064016103fa565b6000600754600160a01b900460ff16600181111561092857610928610ea2565b146109685760405162461bcd60e51b815260206004820152601060248201526f1d9bdd19481b9bdd081cdd185c9d195960821b60448201526064016103fa565b3360009081526020819052604090205460ff1615156001146109b75760405162461bcd60e51b81526020600482015260086024820152672737903b37ba32b960c11b60448201526064016103fa565b33600090815260208190526040902054610100900460ff1615610a0c5760405162461bcd60e51b815260206004820152600d60248201526c105b1c9958591e481d9bdd1959609a1b60448201526064016103fa565b600160028281548110610a2157610a2161111e565b90600052602060002090600202016001016000828254610a41919061114a565b9091555050336000908152602081905260409020805461ff0019166101001790556002805482908110610a7657610a7661111e565b600091825260208083203384526001909152604090922060029091029091018054610aa0906110ae565b6104ec929190610c2b565b6007546001600160a01b03163314610ac257600080fd5b600142600554610ad2919061117d565b12610b0b5760405162461bcd60e51b81526020600482015260096024820152681d1a5b59481b19599d60ba1b60448201526064016103fa565b6007546001600160a01b0316ff5b6007546001600160a01b03163314610b3057600080fd5b6001600754600160a01b900460ff166001811115610b5057610b50610ea2565b14610b6d5760405162461bcd60e51b81526004016103fa906110e9565b6001600160a01b0381166000908152602081905260408120805461ffff1916600190811790915560048054919290916107ac90849061114a565b828054610bb3906110ae565b90600052602060002090601f016020900481019282610bd55760008555610c1b565b82601f10610bee57805160ff1916838001178555610c1b565b82800160010185558215610c1b579182015b82811115610c1b578251825591602001919060010190610c00565b50610c27929150610ca6565b5090565b828054610c37906110ae565b90600052602060002090601f016020900481019282610c595760008555610c1b565b82601f10610c6a5780548555610c1b565b82800160010185558215610c1b57600052602060002091601f016020900482015b82811115610c1b578254825591600101919060010190610c8b565b5b80821115610c275760008155600101610ca7565b6000815180845260005b81811015610ce157602081850181015186830182015201610cc5565b81811115610cf3576000602083870101525b50601f01601f19169290920160200192915050565b60006020808301818452808551808352604092508286019150828160051b87010184880160005b83811015610d7057888303603f1901855281518051878552610d5388860182610cbb565b918901519489019490945294870194925090860190600101610d2f565b509098975050505050505050565b634e487b7160e01b600052604160045260246000fd5b604051601f8201601f1916810167ffffffffffffffff81118282101715610dbd57610dbd610d7e565b604052919050565b600067ffffffffffffffff821115610ddf57610ddf610d7e565b5060051b60200190565b80356001600160a01b0381168114610e0057600080fd5b919050565b60006020808385031215610e1857600080fd5b823567ffffffffffffffff811115610e2f57600080fd5b8301601f81018513610e4057600080fd5b8035610e53610e4e82610dc5565b610d94565b81815260059190911b82018301908381019087831115610e7257600080fd5b928401925b82841015610e9757610e8884610de9565b82529284019290840190610e77565b979650505050505050565b634e487b7160e01b600052602160045260246000fd5b6020810160028310610eda57634e487b7160e01b600052602160045260246000fd5b91905290565b600060208284031215610ef257600080fd5b610efb82610de9565b9392505050565b602081526000610efb6020830184610cbb565b600060208284031215610f2757600080fd5b5035919050565b604081526000610f416040830185610cbb565b90508260208301529392505050565b600082601f830112610f6157600080fd5b813567ffffffffffffffff811115610f7b57610f7b610d7e565b610f8e601f8201601f1916602001610d94565b818152846020838601011115610fa357600080fd5b816020850160208301376000918101602001919091529392505050565b600060208284031215610fd257600080fd5b813567ffffffffffffffff811115610fe957600080fd5b610ff584828501610f50565b949350505050565b6000602080838503121561101057600080fd5b823567ffffffffffffffff8082111561102857600080fd5b818501915085601f83011261103c57600080fd5b813561104a610e4e82610dc5565b81815260059190911b8301840190848101908883111561106957600080fd5b8585015b838110156110a1578035858111156110855760008081fd5b6110938b89838a0101610f50565b84525091860191860161106d565b5098975050505050505050565b600181811c908216806110c257607f821691505b602082108114156110e357634e487b7160e01b600052602260045260246000fd5b50919050565b6020808252818101527f43616e277420616464207768696c6520766f7465206973206f6e20676f696e67604082015260600190565b634e487b7160e01b600052603260045260246000fd5b634e487b7160e01b600052601160045260246000fd5b6000821982111561115d5761115d611134565b500190565b600060001982141561117657611176611134565b5060010190565b60008083128015600160ff1b85018412161561119b5761119b611134565b6001600160ff1b03840183138116156111b6576111b6611134565b5050039056fea2646970667358221220dcbad99fcee5ad7dd43671a609290e14ffc1f60251e146e0b64cc145e0f7810c64736f6c63430008090033","bytecodeSha1":"8b0552b308c8d73d6dfe4b6015cc69eecf066c1a","compiler":{"evm_version":"istanbul","optimizer":{"enabled":true,"runs":200},"version":"0.8.9+commit.e5eed63a"},"contractName":"Vote","language":"Solidity","natspec":{"kind":"dev","methods":{},"version":1},"opcodes":"PUSH1 0x80 PUSH1 0x40 MSTORE CALLVALUE DUP1 ISZERO PUSH2 0x10 JUMPI PUSH1 0x0 DUP1 REVERT JUMPDEST POP PUSH1 0x4 CALLDATASIZE LT PUSH2 0x10B JUMPI PUSH1 0x0 CALLDATALOAD PUSH1 0xE0 SHR DUP1 PUSH4 0x68C74B53 GT PUSH2 0xA2 JUMPI DUP1 PUSH4 0xB9223946 GT PUSH2 0x71 JUMPI DUP1 PUSH4 0xB9223946 EQ PUSH2 0x23B JUMPI DUP1 PUSH4 0xDFBF53AE EQ PUSH2 0x243 JUMPI DUP1 PUSH4 0xE8677F19 EQ PUSH2 0x24C JUMPI DUP1 PUSH4 0xF4AB9ADF EQ PUSH2 0x255 JUMPI DUP1 PUSH4 0xFDEDAA8A EQ PUSH2 0x268 JUMPI PUSH1 0x0 DUP1 REVERT JUMPDEST DUP1 PUSH4 0x68C74B53 EQ PUSH2 0x1E2 JUMPI DUP1 PUSH4 0x757B42BB EQ PUSH2 0x1EA JUMPI DUP1 PUSH4 0x8C08A4DC EQ PUSH2 0x1FD JUMPI DUP1 PUSH4 0x8DA5CB5B EQ PUSH2 0x210 JUMPI PUSH1 0x0 DUP1 REVERT JUMPDEST DUP1 PUSH4 0x290E9212 GT PUSH2 0xDE JUMPI DUP1 PUSH4 0x290E9212 EQ PUSH2 0x184 JUMPI DUP1 PUSH4 0x3F220524 EQ PUSH2 0x1A5 JUMPI DUP1 PUSH4 0x462E91EC EQ PUSH2 0x1B8 JUMPI DUP1 PUSH4 0x6352B20C EQ PUSH2 0x1CB JUMPI PUSH1 0x0 DUP1 REVERT JUMPDEST DUP1 PUSH4 0x9C56E64 EQ PUSH2 0x110 JUMPI DUP1 PUSH4 0x1E32C790 EQ PUSH2 0x12E JUMPI DUP1 PUSH4 0x1F1F8CA2 EQ PUSH2 0x143 JUMPI DUP1 PUSH4 0x25C00B98 EQ PUSH2 0x164 JUMPI JUMPDEST PUSH1 0x0 DUP1 REVERT JUMPDEST PUSH2 0x118 PUSH2 0x2AB JUMP JUMPDEST PUSH1 0x40 MLOAD PUSH2 0x125 SWAP2 SWAP1 PUSH2 0xD08 JUMP JUMPDEST PUSH1 0x40 MLOAD DUP1 SWAP2 SUB SWAP1 RETURN JUMPDEST PUSH2 0x141 PUSH2 0x13C CALLDATASIZE PUSH1 0x4 PUSH2 0xE05 JUMP JUMPDEST PUSH2 0x3A6 JUMP JUMPDEST STOP JUMPDEST PUSH1 0x7 SLOAD PUSH2 0x157 SWAP1 PUSH1 0x1 PUSH1 0xA0 SHL SWAP1 DIV PUSH1 0xFF AND DUP2 JUMP JUMPDEST PUSH1 0x40 MLOAD PUSH2 0x125 SWAP2 SWAP1 PUSH2 0xEB8 JUMP JUMPDEST PUSH2 0x177 PUSH2 0x172 CALLDATASIZE PUSH1 0x4 PUSH2 0xEE0 JUMP JUMPDEST PUSH2 0x4F0 JUMP JUMPDEST PUSH1 0x40 MLOAD PUSH2 0x125 SWAP2 SWAP1 PUSH2 0xF02 JUMP JUMPDEST PUSH2 0x197 PUSH2 0x192 CALLDATASIZE PUSH1 0x4 PUSH2 0xF15 JUMP JUMPDEST PUSH2 0x58A JUMP JUMPDEST PUSH1 0x40 MLOAD PUSH2 0x125 SWAP3 SWAP2 SWAP1 PUSH2 0xF2E JUMP JUMPDEST PUSH2 0x141 PUSH2 0x1B3 CALLDATASIZE PUSH1 0x4 PUSH2 0xF15 JUMP JUMPDEST PUSH2 0x646 JUMP JUMPDEST PUSH2 0x141 PUSH2 0x1C6 CALLDATASIZE PUSH1 0x4 PUSH2 0xFC0 JUMP JUMPDEST PUSH2 0x6DB JUMP JUMPDEST PUSH2 0x1D4 PUSH1 0x3 SLOAD DUP2 JUMP JUMPDEST PUSH1 0x40 MLOAD SWAP1 DUP2 MSTORE PUSH1 0x20 ADD PUSH2 0x125 JUMP JUMPDEST PUSH2 0x1D4 PUSH2 0x7B4 JUMP JUMPDEST PUSH2 0x141 PUSH2 0x1F8 CALLDATASIZE PUSH1 0x4 PUSH2 0xFFD JUMP JUMPDEST PUSH2 0x7C9 JUMP JUMPDEST PUSH2 0x141 PUSH2 0x20B CALLDATASIZE PUSH1 0x4 PUSH2 0xF15 JUMP JUMPDEST PUSH2 0x8BF JUMP JUMPDEST PUSH1 0x7 SLOAD PUSH2 0x223 SWAP1 PUSH1 0x1 PUSH1 0x1 PUSH1 0xA0 SHL SUB AND DUP2 JUMP JUMPDEST PUSH1 0x40 MLOAD PUSH1 0x1 PUSH1 0x1 PUSH1 0xA0 SHL SUB SWAP1 SWAP2 AND DUP2 MSTORE PUSH1 0x20 ADD PUSH2 0x125 JUMP JUMPDEST PUSH2 0x141 PUSH2 0xAAB JUMP JUMPDEST PUSH2 0x1D4 PUSH1 0x6 SLOAD DUP2 JUMP JUMPDEST PUSH2 0x1D4 PUSH1 0x4 SLOAD DUP2 JUMP JUMPDEST PUSH2 0x141 PUSH2 0x263 CALLDATASIZE PUSH1 0x4 PUSH2 0xEE0 JUMP JUMPDEST PUSH2 0xB19 JUMP JUMPDEST PUSH2 0x294 PUSH2 0x276 CALLDATASIZE PUSH1 0x4 PUSH2 0xEE0 JUMP JUMPDEST PUSH1 0x0 PUSH1 0x20 DUP2 SWAP1 MSTORE SWAP1 DUP2 MSTORE PUSH1 0x40 SWAP1 KECCAK256 SLOAD PUSH1 0xFF DUP1 DUP3 AND SWAP2 PUSH2 0x100 SWAP1 DIV AND DUP3 JUMP JUMPDEST PUSH1 0x40 DUP1 MLOAD SWAP3 ISZERO ISZERO DUP4 MSTORE SWAP1 ISZERO ISZERO PUSH1 0x20 DUP4 ADD MSTORE ADD PUSH2 0x125 JUMP JUMPDEST PUSH1 0x60 PUSH1 0x2 DUP1 SLOAD DUP1 PUSH1 0x20 MUL PUSH1 0x20 ADD PUSH1 0x40 MLOAD SWAP1 DUP2 ADD PUSH1 0x40 MSTORE DUP1 SWAP3 SWAP2 SWAP1 DUP2 DUP2 MSTORE PUSH1 0x20 ADD PUSH1 0x0 SWAP1 JUMPDEST DUP3 DUP3 LT ISZERO PUSH2 0x39D JUMPI DUP4 DUP3 SWAP1 PUSH1 0x0 MSTORE PUSH1 0x20 PUSH1 0x0 KECCAK256 SWAP1 PUSH1 0x2 MUL ADD PUSH1 0x40 MLOAD DUP1 PUSH1 0x40 ADD PUSH1 0x40 MSTORE SWAP1 DUP2 PUSH1 0x0 DUP3 ADD DUP1 SLOAD PUSH2 0x302 SWAP1 PUSH2 0x10AE JUMP JUMPDEST DUP1 PUSH1 0x1F ADD PUSH1 0x20 DUP1 SWAP2 DIV MUL PUSH1 0x20 ADD PUSH1 0x40 MLOAD SWAP1 DUP2 ADD PUSH1 0x40 MSTORE DUP1 SWAP3 SWAP2 SWAP1 DUP2 DUP2 MSTORE PUSH1 0x20 ADD DUP3 DUP1 SLOAD PUSH2 0x32E SWAP1 PUSH2 0x10AE JUMP JUMPDEST DUP1 ISZERO PUSH2 0x37B JUMPI DUP1 PUSH1 0x1F LT PUSH2 0x350 JUMPI PUSH2 0x100 DUP1 DUP4 SLOAD DIV MUL DUP4 MSTORE SWAP2 PUSH1 0x20 ADD SWAP2 PUSH2 0x37B JUMP JUMPDEST DUP3 ADD SWAP2 SWAP1 PUSH1 0x0 MSTORE PUSH1 0x20 PUSH1 0x0 KECCAK256 SWAP1 JUMPDEST DUP2 SLOAD DUP2 MSTORE SWAP1 PUSH1 0x1 ADD SWAP1 PUSH1 0x20 ADD DUP1 DUP4 GT PUSH2 0x35E JUMPI DUP3 SWAP1 SUB PUSH1 0x1F AND DUP3 ADD SWAP2 JUMPDEST POP POP POP POP POP DUP2 MSTORE PUSH1 0x20 ADD PUSH1 0x1 DUP3 ADD SLOAD DUP2 MSTORE POP POP DUP2 MSTORE PUSH1 0x20 ADD SWAP1 PUSH1 0x1 ADD SWAP1 PUSH2 0x2CF JUMP JUMPDEST POP POP POP POP SWAP1 POP SWAP1 JUMP JUMPDEST PUSH1 0x7 SLOAD PUSH1 0x1 PUSH1 0x1 PUSH1 0xA0 SHL SUB AND CALLER EQ PUSH2 0x3BD JUMPI PUSH1 0x0 DUP1 REVERT JUMPDEST PUSH1 0x1 PUSH1 0x7 SLOAD PUSH1 0x1 PUSH1 0xA0 SHL SWAP1 DIV PUSH1 0xFF AND PUSH1 0x1 DUP2 GT ISZERO PUSH2 0x3DD JUMPI PUSH2 0x3DD PUSH2 0xEA2 JUMP JUMPDEST EQ PUSH2 0x403 JUMPI PUSH1 0x40 MLOAD PUSH3 0x461BCD PUSH1 0xE5 SHL DUP2 MSTORE PUSH1 0x4 ADD PUSH2 0x3FA SWAP1 PUSH2 0x10E9 JUMP JUMPDEST PUSH1 0x40 MLOAD DUP1 SWAP2 SUB SWAP1 REVERT JUMPDEST PUSH1 0x0 JUMPDEST DUP2 MLOAD DUP2 LT ISZERO PUSH2 0x4EC JUMPI PUSH1 0x1 PUSH1 0x0 DUP1 DUP5 DUP5 DUP2 MLOAD DUP2 LT PUSH2 0x426 JUMPI PUSH2 0x426 PUSH2 0x111E JUMP JUMPDEST PUSH1 0x20 MUL PUSH1 0x20 ADD ADD MLOAD PUSH1 0x1 PUSH1 0x1 PUSH1 0xA0 SHL SUB AND PUSH1 0x1 PUSH1 0x1 PUSH1 0xA0 SHL SUB AND DUP2 MSTORE PUSH1 0x20 ADD SWAP1 DUP2 MSTORE PUSH1 0x20 ADD PUSH1 0x0 KECCAK256 PUSH1 0x0 ADD PUSH1 0x0 PUSH2 0x100 EXP DUP2 SLOAD DUP2 PUSH1 0xFF MUL NOT AND SWAP1 DUP4 ISZERO ISZERO MUL OR SWAP1 SSTORE POP PUSH1 0x0 DUP1 PUSH1 0x0 DUP5 DUP5 DUP2 MLOAD DUP2 LT PUSH2 0x47F JUMPI PUSH2 0x47F PUSH2 0x111E JUMP JUMPDEST PUSH1 0x20 MUL PUSH1 0x20 ADD ADD MLOAD PUSH1 0x1 PUSH1 0x1 PUSH1 0xA0 SHL SUB AND PUSH1 0x1 PUSH1 0x1 PUSH1 0xA0 SHL SUB AND DUP2 MSTORE PUSH1 0x20 ADD SWAP1 DUP2 MSTORE PUSH1 0x20 ADD PUSH1 0x0 KECCAK256 PUSH1 0x0 ADD PUSH1 0x1 PUSH2 0x100 EXP DUP2 SLOAD DUP2 PUSH1 0xFF MUL NOT AND SWAP1 DUP4 ISZERO ISZERO MUL OR SWAP1 SSTORE POP PUSH1 0x1 PUSH1 0x4 PUSH1 0x0 DUP3 DUP3 SLOAD PUSH2 0x4D4 SWAP2 SWAP1 PUSH2 0x114A JUMP JUMPDEST SWAP1 SWAP2 SSTORE POP DUP2 SWAP1 POP PUSH2 0x4E4 DUP2 PUSH2 0x1162 JUMP JUMPDEST SWAP2 POP POP PUSH2 0x406 JUMP JUMPDEST POP POP JUMP JUMPDEST PUSH1 0x1 PUSH1 0x20 MSTORE PUSH1 0x0 SWAP1 DUP2 MSTORE PUSH1 0x40 SWAP1 KECCAK256 DUP1 SLOAD PUSH2 0x509 SWAP1 PUSH2 0x10AE JUMP JUMPDEST DUP1 PUSH1 0x1F ADD PUSH1 0x20 DUP1 SWAP2 DIV MUL PUSH1 0x20 ADD PUSH1 0x40 MLOAD SWAP1 DUP2 ADD PUSH1 0x40 MSTORE DUP1 SWAP3 SWAP2 SWAP1 DUP2 DUP2 MSTORE PUSH1 0x20 ADD DUP3 DUP1 SLOAD PUSH2 0x535 SWAP1 PUSH2 0x10AE JUMP JUMPDEST DUP1 ISZERO PUSH2 0x582 JUMPI DUP1 PUSH1 0x1F LT PUSH2 0x557 JUMPI PUSH2 0x100 DUP1 DUP4 SLOAD DIV MUL DUP4 MSTORE SWAP2 PUSH1 0x20 ADD SWAP2 PUSH2 0x582 JUMP JUMPDEST DUP3 ADD SWAP2 SWAP1 PUSH1 0x0 MSTORE PUSH1 0x20 PUSH1 0x0 KECCAK256 SWAP1 JUMPDEST DUP2 SLOAD DUP2 MSTORE SWAP1 PUSH1 0x1 ADD SWAP1 PUSH1 0x20 ADD DUP1 DUP4 GT PUSH2 0x565 JUMPI DUP3 SWAP1 SUB PUSH1 0x1F AND DUP3 ADD SWAP2 JUMPDEST POP POP POP POP POP DUP2 JUMP JUMPDEST PUSH1 0x2 DUP2 DUP2 SLOAD DUP2 LT PUSH2 0x59A JUMPI PUSH1 0x0 DUP1 REVERT JUMPDEST SWAP1 PUSH1 0x0 MSTORE PUSH1 0x20 PUSH1 0x0 KECCAK256 SWAP1 PUSH1 0x2 MUL ADD PUSH1 0x0 SWAP2 POP SWAP1 POP DUP1 PUSH1 0x0 ADD DUP1 SLOAD PUSH2 0x5BD SWAP1 PUSH2 0x10AE JUMP JUMPDEST DUP1 PUSH1 0x1F ADD PUSH1 0x20 DUP1 SWAP2 DIV MUL PUSH1 0x20 ADD PUSH1 0x40 MLOAD SWAP1 DUP2 ADD PUSH1 0x40 MSTORE DUP1 SWAP3 SWAP2 SWAP1 DUP2 DUP2 MSTORE PUSH1 0x20 ADD DUP3 DUP1 SLOAD PUSH2 0x5E9 SWAP1 PUSH2 0x10AE JUMP JUMPDEST DUP1 ISZERO PUSH2 0x636 JUMPI DUP1 PUSH1 0x1F LT PUSH2 0x60B JUMPI PUSH2 0x100 DUP1 DUP4 SLOAD DIV MUL DUP4 MSTORE SWAP2 PUSH1 0x20 ADD SWAP2 PUSH2 0x636 JUMP JUMPDEST DUP3 ADD SWAP2 SWAP1 PUSH1 0x0 MSTORE PUSH1 0x20 PUSH1 0x0 KECCAK256 SWAP1 JUMPDEST DUP2 SLOAD DUP2 MSTORE SWAP1 PUSH1 0x1 ADD SWAP1 PUSH1 0x20 ADD DUP1 DUP4 GT PUSH2 0x619 JUMPI DUP3 SWAP1 SUB PUSH1 0x1F AND DUP3 ADD SWAP2 JUMPDEST POP POP POP POP POP SWAP1 DUP1 PUSH1 0x1 ADD SLOAD SWAP1 POP DUP3 JUMP JUMPDEST PUSH1 0x7 SLOAD PUSH1 0x1 PUSH1 0x1 PUSH1 0xA0 SHL SUB AND CALLER EQ PUSH2 0x65D JUMPI PUSH1 0x0 DUP1 REVERT JUMPDEST PUSH1 0x1 PUSH1 0x7 SLOAD PUSH1 0x1 PUSH1 0xA0 SHL SWAP1 DIV PUSH1 0xFF AND PUSH1 0x1 DUP2 GT ISZERO PUSH2 0x67D JUMPI PUSH2 0x67D PUSH2 0xEA2 JUMP JUMPDEST EQ PUSH2 0x6BE JUMPI PUSH1 0x40 MLOAD PUSH3 0x461BCD PUSH1 0xE5 SHL DUP2 MSTORE PUSH1 0x20 PUSH1 0x4 DUP3 ADD MSTORE PUSH1 0x11 PUSH1 0x24 DUP3 ADD MSTORE PUSH17 0x10D85B9D081899481A5B9A5D1A585D1959 PUSH1 0x7A SHL PUSH1 0x44 DUP3 ADD MSTORE PUSH1 0x64 ADD PUSH2 0x3FA JUMP JUMPDEST PUSH1 0x7 DUP1 SLOAD PUSH1 0xFF PUSH1 0xA0 SHL NOT AND SWAP1 SSTORE PUSH2 0x6D5 DUP2 TIMESTAMP PUSH2 0x114A JUMP JUMPDEST PUSH1 0x5 SSTORE POP JUMP JUMPDEST PUSH1 0x7 SLOAD PUSH1 0x1 PUSH1 0x1 PUSH1 0xA0 SHL SUB AND CALLER EQ PUSH2 0x6F2 JUMPI PUSH1 0x0 DUP1 REVERT JUMPDEST PUSH1 0x1 PUSH1 0x7 SLOAD PUSH1 0x1 PUSH1 0xA0 SHL SWAP1 DIV PUSH1 0xFF AND PUSH1 0x1 DUP2 GT ISZERO PUSH2 0x712 JUMPI PUSH2 0x712 PUSH2 0xEA2 JUMP JUMPDEST EQ PUSH2 0x72F JUMPI PUSH1 0x40 MLOAD PUSH3 0x461BCD PUSH1 0xE5 SHL DUP2 MSTORE PUSH1 0x4 ADD PUSH2 0x3FA SWAP1 PUSH2 0x10E9 JUMP JUMPDEST PUSH1 0x40 DUP1 MLOAD DUP1 DUP3 ADD SWAP1 SWAP2 MSTORE DUP2 DUP2 MSTORE PUSH1 0x0 PUSH1 0x20 DUP1 DUP4 ADD DUP3 SWAP1 MSTORE PUSH1 0x2 DUP1 SLOAD PUSH1 0x1 DUP2 ADD DUP3 SSTORE SWAP3 DUP2 SWAP1 MSTORE DUP4 MLOAD DUP1 MLOAD SWAP4 SWAP1 SWAP2 MUL PUSH32 0x405787FA12A823E0F2B7631CC41B3BA8828B3321CA811111FA75CD3AA3BB5ACE ADD SWAP3 PUSH2 0x78C SWAP3 DUP5 SWAP3 ADD SWAP1 PUSH2 0xBA7 JUMP JUMPDEST POP PUSH1 0x20 DUP3 ADD MLOAD DUP2 PUSH1 0x1 ADD SSTORE POP POP PUSH1 0x1 PUSH1 0x3 PUSH1 0x0 DUP3 DUP3 SLOAD PUSH2 0x7AC SWAP2 SWAP1 PUSH2 0x114A JUMP JUMPDEST SWAP1 SWAP2 SSTORE POP POP POP JUMP JUMPDEST PUSH1 0x0 TIMESTAMP PUSH1 0x5 SLOAD PUSH2 0x7C4 SWAP2 SWAP1 PUSH2 0x117D JUMP JUMPDEST SWAP1 POP SWAP1 JUMP JUMPDEST PUSH1 0x7 SLOAD PUSH1 0x1 PUSH1 0x1 PUSH1 0xA0 SHL SUB AND CALLER EQ PUSH2 0x7E0 JUMPI PUSH1 0x0 DUP1 REVERT JUMPDEST PUSH1 0x1 PUSH1 0x7 SLOAD PUSH1 0x1 PUSH1 0xA0 SHL SWAP1 DIV PUSH1 0xFF AND PUSH1 0x1 DUP2 GT ISZERO PUSH2 0x800 JUMPI PUSH2 0x800 PUSH2 0xEA2 JUMP JUMPDEST EQ PUSH2 0x81D JUMPI PUSH1 0x40 MLOAD PUSH3 0x461BCD PUSH1 0xE5 SHL DUP2 MSTORE PUSH1 0x4 ADD PUSH2 0x3FA SWAP1 PUSH2 0x10E9 JUMP JUMPDEST PUSH1 0x0 JUMPDEST DUP2 MLOAD DUP2 LT ISZERO PUSH2 0x4EC JUMPI PUSH1 0x2 PUSH1 0x40 MLOAD DUP1 PUSH1 0x40 ADD PUSH1 0x40 MSTORE DUP1 DUP5 DUP5 DUP2 MLOAD DUP2 LT PUSH2 0x848 JUMPI PUSH2 0x848 PUSH2 0x111E JUMP JUMPDEST PUSH1 0x20 SWAP1 DUP2 MUL SWAP2 SWAP1 SWAP2 ADD DUP2 ADD MLOAD DUP3 MSTORE PUSH1 0x0 SWAP2 DUP2 ADD DUP3 SWAP1 MSTORE DUP4 SLOAD PUSH1 0x1 DUP2 ADD DUP6 SSTORE SWAP4 DUP3 MSTORE SWAP1 DUP2 SWAP1 KECCAK256 DUP3 MLOAD DUP1 MLOAD SWAP4 SWAP5 PUSH1 0x2 MUL SWAP1 SWAP2 ADD SWAP3 PUSH2 0x887 SWAP3 DUP5 SWAP3 ADD SWAP1 PUSH2 0xBA7 JUMP JUMPDEST POP PUSH1 0x20 DUP3 ADD MLOAD DUP2 PUSH1 0x1 ADD SSTORE POP POP PUSH1 0x1 PUSH1 0x3 PUSH1 0x0 DUP3 DUP3 SLOAD PUSH2 0x8A7 SWAP2 SWAP1 PUSH2 0x114A JUMP JUMPDEST SWAP1 SWAP2 SSTORE POP DUP2 SWAP1 POP PUSH2 0x8B7 DUP2 PUSH2 0x1162 JUMP JUMPDEST SWAP2 POP POP PUSH2 0x820 JUMP JUMPDEST PUSH1 0x0 TIMESTAMP PUSH1 0x5 SLOAD PUSH2 0x8CF SWAP2 SWAP1 PUSH2 0x117D JUMP JUMPDEST SGT PUSH2 0x908 JUMPI PUSH1 0x40 MLOAD PUSH3 0x461BCD PUSH1 0xE5 SHL DUP2 MSTORE PUSH1 0x20 PUSH1 0x4 DUP3 ADD MSTORE PUSH1 0x9 PUSH1 0x24 DUP3 ADD MSTORE PUSH9 0x74696D6520656E6473 PUSH1 0xB8 SHL PUSH1 0x44 DUP3 ADD MSTORE PUSH1 0x64 ADD PUSH2 0x3FA JUMP JUMPDEST PUSH1 0x0 PUSH1 0x7 SLOAD PUSH1 0x1 PUSH1 0xA0 SHL SWAP1 DIV PUSH1 0xFF AND PUSH1 0x1 DUP2 GT ISZERO PUSH2 0x928 JUMPI PUSH2 0x928 PUSH2 0xEA2 JUMP JUMPDEST EQ PUSH2 0x968 JUMPI PUSH1 0x40 MLOAD PUSH3 0x461BCD PUSH1 0xE5 SHL DUP2 MSTORE PUSH1 0x20 PUSH1 0x4 DUP3 ADD MSTORE PUSH1 0x10 PUSH1 0x24 DUP3 ADD MSTORE PUSH16 0x1D9BDD19481B9BDD081CDD185C9D1959 PUSH1 0x82 SHL PUSH1 0x44 DUP3 ADD MSTORE PUSH1 0x64 ADD PUSH2 0x3FA JUMP JUMPDEST CALLER PUSH1 0x0 SWAP1 DUP2 MSTORE PUSH1 0x20 DUP2 SWAP1 MSTORE PUSH1 0x40 SWAP1 KECCAK256 SLOAD PUSH1 0xFF AND ISZERO ISZERO PUSH1 0x1 EQ PUSH2 0x9B7 JUMPI PUSH1 0x40 MLOAD PUSH3 0x461BCD PUSH1 0xE5 SHL DUP2 MSTORE PUSH1 0x20 PUSH1 0x4 DUP3 ADD MSTORE PUSH1 0x8 PUSH1 0x24 DUP3 ADD MSTORE PUSH8 0x2737903B37BA32B9 PUSH1 0xC1 SHL PUSH1 0x44 DUP3 ADD MSTORE PUSH1 0x64 ADD PUSH2 0x3FA JUMP JUMPDEST CALLER PUSH1 0x0 SWAP1 DUP2 MSTORE PUSH1 0x20 DUP2 SWAP1 MSTORE PUSH1 0x40 SWAP1 KECCAK256 SLOAD PUSH2 0x100 SWAP1 DIV PUSH1 0xFF AND ISZERO PUSH2 0xA0C JUMPI PUSH1 0x40 MLOAD PUSH3 0x461BCD PUSH1 0xE5 SHL DUP2 MSTORE PUSH1 0x20 PUSH1 0x4 DUP3 ADD MSTORE PUSH1 0xD PUSH1 0x24 DUP3 ADD MSTORE PUSH13 0x105B1C9958591E481D9BDD1959 PUSH1 0x9A SHL PUSH1 0x44 DUP3 ADD MSTORE PUSH1 0x64 ADD PUSH2 0x3FA JUMP JUMPDEST PUSH1 0x1 PUSH1 0x2 DUP3 DUP2 SLOAD DUP2 LT PUSH2 0xA21 JUMPI PUSH2 0xA21 PUSH2 0x111E JUMP JUMPDEST SWAP1 PUSH1 0x0 MSTORE PUSH1 0x20 PUSH1 0x0 KECCAK256 SWAP1 PUSH1 0x2 MUL ADD PUSH1 0x1 ADD PUSH1 0x0 DUP3 DUP3 SLOAD PUSH2 0xA41 SWAP2 SWAP1 PUSH2 0x114A JUMP JUMPDEST SWAP1 SWAP2 SSTORE POP POP CALLER PUSH1 0x0 SWAP1 DUP2 MSTORE PUSH1 0x20 DUP2 SWAP1 MSTORE PUSH1 0x40 SWAP1 KECCAK256 DUP1 SLOAD PUSH2 0xFF00 NOT AND PUSH2 0x100 OR SWAP1 SSTORE PUSH1 0x2 DUP1 SLOAD DUP3 SWAP1 DUP2 LT PUSH2 0xA76 JUMPI PUSH2 0xA76 PUSH2 0x111E JUMP JUMPDEST PUSH1 0x0 SWAP2 DUP3 MSTORE PUSH1 0x20 DUP1 DUP4 KECCAK256 CALLER DUP5 MSTORE PUSH1 0x1 SWAP1 SWAP2 MSTORE PUSH1 0x40 SWAP1 SWAP3 KECCAK256 PUSH1 0x2 SWAP1 SWAP2 MUL SWAP1 SWAP2 ADD DUP1 SLOAD PUSH2 0xAA0 SWAP1 PUSH2 0x10AE JUMP JUMPDEST PUSH2 0x4EC SWAP3 SWAP2 SWAP1 PUSH2 0xC2B JUMP JUMPDEST PUSH1 0x7 SLOAD PUSH1 0x1 PUSH1 0x1 PUSH1 0xA0 SHL SUB AND CALLER EQ PUSH2 0xAC2 JUMPI PUSH1 0x0 DUP1 REVERT JUMPDEST PUSH1 0x1 TIMESTAMP PUSH1 0x5 SLOAD PUSH2 0xAD2 SWAP2 SWAP1 PUSH2 0x117D JUMP JUMPDEST SLT PUSH2 0xB0B JUMPI PUSH1 0x40 MLOAD PUSH3 0x461BCD PUSH1 0xE5 SHL DUP2 MSTORE PUSH1 0x20 PUSH1 0x4 DUP3 ADD MSTORE PUSH1 0x9 PUSH1 0x24 DUP3 ADD MSTORE PUSH9 0x1D1A5B59481B19599D PUSH1 0xBA SHL PUSH1 0x44 DUP3 ADD MSTORE PUSH1 0x64 ADD PUSH2 0x3FA JUMP JUMPDEST PUSH1 0x7 SLOAD PUSH1 0x1 PUSH1 0x1 PUSH1 0xA0 SHL SUB AND SELFDESTRUCT JUMPDEST PUSH1 0x7 SLOAD PUSH1 0x1 PUSH1 0x1 PUSH1 0xA0 SHL SUB AND CALLER EQ PUSH2 0xB30 JUMPI PUSH1 0x0 DUP1 REVERT JUMPDEST PUSH1 0x1 PUSH1 0x7 SLOAD PUSH1 0x1 PUSH1 0xA0 SHL SWAP1 DIV PUSH1 0xFF AND PUSH1 0x1 DUP2 GT ISZERO PUSH2 0xB50 JUMPI PUSH2 0xB50 PUSH2 0xEA2 JUMP JUMPDEST EQ PUSH2 0xB6D JUMPI PUSH1 0x40 MLOAD PUSH3 0x461BCD PUSH1 0xE5 SHL DUP2 MSTORE PUSH1 0x4 ADD PUSH2 0x3FA SWAP1 PUSH2 0x10E9 JUMP JUMPDEST PUSH1 0x1 PUSH1 0x1 PUSH1 0xA0 SHL SUB DUP2 AND PUSH1 0x0 SWAP1 DUP2 MSTORE PUSH1 0x20 DUP2 SWAP1 MSTORE PUSH1 0x40 DUP2 KECCAK256 DUP1 SLOAD PUSH2 0xFFFF NOT AND PUSH1 0x1 SWAP1 DUP2 OR SWAP1 SWAP2 SSTORE PUSH1 0x4 DUP1 SLOAD SWAP2 SWAP3 SWAP1 SWAP2 PUSH2 0x7AC SWAP1 DUP5 SWAP1 PUSH2 0x114A JUMP JUMPDEST DUP3 DUP1 SLOAD PUSH2 0xBB3 SWAP1 PUSH2 0x10AE JUMP JUMPDEST SWAP1 PUSH1 0x0 MSTORE PUSH1 0x20 PUSH1 0x0 KECCAK256 SWAP1 PUSH1 0x1F ADD PUSH1 0x20 SWAP1 DIV DUP2 ADD SWAP3 DUP3 PUSH2 0xBD5 JUMPI PUSH1 0x0 DUP6 SSTORE PUSH2 0xC1B JUMP JUMPDEST DUP3 PUSH1 0x1F LT PUSH2 0xBEE JUMPI DUP1 MLOAD PUSH1 0xFF NOT AND DUP4 DUP1 ADD OR DUP6 SSTORE PUSH2 0xC1B JUMP JUMPDEST DUP3 DUP1 ADD PUSH1 0x1 ADD DUP6 SSTORE DUP3 ISZERO PUSH2 0xC1B JUMPI SWAP2 DUP3 ADD JUMPDEST DUP3 DUP2 GT ISZERO PUSH2 0xC1B JUMPI DUP3 MLOAD DUP3 SSTORE SWAP2 PUSH1 0x20 ADD SWAP2 SWAP1 PUSH1 0x1 ADD SWAP1 PUSH2 0xC00 JUMP JUMPDEST POP PUSH2 0xC27 SWAP3 SWAP2 POP PUSH2 0xCA6 JUMP JUMPDEST POP SWAP1 JUMP JUMPDEST DUP3 DUP1 SLOAD PUSH2 0xC37 SWAP1 PUSH2 0x10AE JUMP JUMPDEST SWAP1 PUSH1 0x0 MSTORE PUSH1 0x20 PUSH1 0x0 KECCAK256 SWAP1 PUSH1 0x1F ADD PUSH1 0x20 SWAP1 DIV DUP2 ADD SWAP3 DUP3 PUSH2 0xC59 JUMPI PUSH1 0x0 DUP6 SSTORE PUSH2 0xC1B JUMP JUMPDEST DUP3 PUSH1 0x1F LT PUSH2 0xC6A JUMPI DUP1 SLOAD DUP6 SSTORE PUSH2 0xC1B JUMP JUMPDEST DUP3 DUP1 ADD PUSH1 0x1 ADD DUP6 SSTORE DUP3 ISZERO PUSH2 0xC1B JUMPI PUSH1 0x0 MSTORE PUSH1 0x20 PUSH1 0x0 KECCAK256 SWAP2 PUSH1 0x1F ADD PUSH1 0x20 SWAP1 DIV DUP3 ADD JUMPDEST DUP3 DUP2 GT ISZERO PUSH2 0xC1B JUMPI DUP3 SLOAD DUP3 SSTORE SWAP2 PUSH1 0x1 ADD SWAP2 SWAP1 PUSH1 0x1 ADD SWAP1 PUSH2 0xC8B JUMP JUMPDEST JUMPDEST DUP1 DUP3 GT ISZERO PUSH2 0xC27 JUMPI PUSH1 0x0 DUP2 SSTORE PUSH1 0x1 ADD PUSH2 0xCA7 JUMP JUMPDEST PUSH1 0x0 DUP2 MLOAD DUP1 DUP5 MSTORE PUSH1 0x0 JUMPDEST DUP2 DUP2 LT ISZERO PUSH2 0xCE1 JUMPI PUSH1 0x20 DUP2 DUP6 ADD DUP2 ADD MLOAD DUP7 DUP4 ADD DUP3 ADD MSTORE ADD PUSH2 0xCC5 JUMP JUMPDEST DUP2 DUP2 GT ISZERO PUSH2 0xCF3 JUMPI PUSH1 0x0 PUSH1 0x20 DUP4 DUP8 ADD ADD MSTORE JUMPDEST POP PUSH1 0x1F ADD PUSH1 0x1F NOT AND SWAP3 SWAP1 SWAP3 ADD PUSH1 0x20 ADD SWAP3 SWAP2 POP POP JUMP JUMPDEST PUSH1 0x0 PUSH1 0x20 DUP1 DUP4 ADD DUP2 DUP5 MSTORE DUP1 DUP6 MLOAD DUP1 DUP4 MSTORE PUSH1 0x40 SWAP3 POP DUP3 DUP7 ADD SWAP2 POP DUP3 DUP2 PUSH1 0x5 SHL DUP8 ADD ADD DUP5 DUP9 ADD PUSH1 0x0 JUMPDEST DUP4 DUP2 LT ISZERO PUSH2 0xD70 JUMPI DUP9 DUP4 SUB PUSH1 0x3F NOT ADD DUP6 MSTORE DUP2 MLOAD DUP1 MLOAD DUP8 DUP6 MSTORE PUSH2 0xD53 DUP9 DUP7 ADD DUP3 PUSH2 0xCBB JUMP JUMPDEST SWAP2 DUP10 ADD MLOAD SWAP5 DUP10 ADD SWAP5 SWAP1 SWAP5 MSTORE SWAP5 DUP8 ADD SWAP5 SWAP3 POP SWAP1 DUP7 ADD SWAP1 PUSH1 0x1 ADD PUSH2 0xD2F JUMP JUMPDEST POP SWAP1 SWAP9 SWAP8 POP POP POP POP POP POP POP POP JUMP JUMPDEST PUSH4 0x4E487B71 PUSH1 0xE0 SHL PUSH1 0x0 MSTORE PUSH1 0x41 PUSH1 0x4 MSTORE PUSH1 0x24 PUSH1 0x0 REVERT JUMPDEST PUSH1 0x40 MLOAD PUSH1 0x1F DUP3 ADD PUSH1 0x1F NOT AND DUP2 ADD PUSH8 0xFFFFFFFFFFFFFFFF DUP2 GT DUP3 DUP3 LT OR ISZERO PUSH2 0xDBD JUMPI PUSH2 0xDBD PUSH2 0xD7E JUMP JUMPDEST PUSH1 0x40 MSTORE SWAP2 SWAP1 POP JUMP JUMPDEST PUSH1 0x0 PUSH8 0xFFFFFFFFFFFFFFFF DUP3 GT ISZERO PUSH2 0xDDF JUMPI PUSH2 0xDDF PUSH2 0xD7E JUMP JUMPDEST POP PUSH1 0x5 SHL PUSH1 0x20 ADD SWAP1 JUMP JUMPDEST DUP1 CALLDATALOAD PUSH1 0x1 PUSH1 0x1 PUSH1 0xA0 SHL SUB DUP2 AND DUP2 EQ PUSH2 0xE00 JUMPI PUSH1 0x0 DUP1 REVERT JUMPDEST SWAP2 SWAP1 POP JUMP JUMPDEST PUSH1 0x0 PUSH1 0x20 DUP1 DUP4 DUP6 SUB SLT ISZERO PUSH2 0xE18 JUMPI PUSH1 0x0 DUP1 REVERT JUMPDEST DUP3 CALLDATALOAD PUSH8 0xFFFFFFFFFFFFFFFF DUP2 GT ISZERO PUSH2 0xE2F JUMPI PUSH1 0x0 DUP1 REVERT JUMPDEST DUP4 ADD PUSH1 0x1F DUP2 ADD DUP6 SGT PUSH2 0xE40 JUMPI PUSH1 0x0 DUP1 REVERT JUMPDEST DUP1 CALLDATALOAD PUSH2 0xE53 PUSH2 0xE4E DUP3 PUSH2 0xDC5 JUMP JUMPDEST PUSH2 0xD94 JUMP JUMPDEST DUP2 DUP2 MSTORE PUSH1 0x5 SWAP2 SWAP1 SWAP2 SHL DUP3 ADD DUP4 ADD SWAP1 DUP4 DUP2 ADD SWAP1 DUP8 DUP4 GT ISZERO PUSH2 0xE72 JUMPI PUSH1 0x0 DUP1 REVERT JUMPDEST SWAP3 DUP5 ADD SWAP3 JUMPDEST DUP3 DUP5 LT ISZERO PUSH2 0xE97 JUMPI PUSH2 0xE88 DUP5 PUSH2 0xDE9 JUMP JUMPDEST DUP3 MSTORE SWAP3 DUP5 ADD SWAP3 SWAP1 DUP5 ADD SWAP1 PUSH2 0xE77 JUMP JUMPDEST SWAP8 SWAP7 POP POP POP POP POP POP POP JUMP JUMPDEST PUSH4 0x4E487B71 PUSH1 0xE0 SHL PUSH1 0x0 MSTORE PUSH1 0x21 PUSH1 0x4 MSTORE PUSH1 0x24 PUSH1 0x0 REVERT JUMPDEST PUSH1 0x20 DUP2 ADD PUSH1 0x2 DUP4 LT PUSH2 0xEDA JUMPI PUSH4 0x4E487B71 PUSH1 0xE0 SHL PUSH1 0x0 MSTORE PUSH1 0x21 PUSH1 0x4 MSTORE PUSH1 0x24 PUSH1 0x0 REVERT JUMPDEST SWAP2 SWAP1 MSTORE SWAP1 JUMP JUMPDEST PUSH1 0x0 PUSH1 0x20 DUP3 DUP5 SUB SLT ISZERO PUSH2 0xEF2 JUMPI PUSH1 0x0 DUP1 REVERT JUMPDEST PUSH2 0xEFB DUP3 PUSH2 0xDE9 JUMP JUMPDEST SWAP4 SWAP3 POP POP POP JUMP JUMPDEST PUSH1 0x20 DUP2 MSTORE PUSH1 0x0 PUSH2 0xEFB PUSH1 0x20 DUP4 ADD DUP5 PUSH2 0xCBB JUMP JUMPDEST PUSH1 0x0 PUSH1 0x20 DUP3 DUP5 SUB SLT ISZERO PUSH2 0xF27 JUMPI PUSH1 0x0 DUP1 REVERT JUMPDEST POP CALLDATALOAD SWAP2 SWAP1 POP JUMP JUMPDEST PUSH1 0x40 DUP2 MSTORE PUSH1 0x0 PUSH2 0xF41 PUSH1 0x40 DUP4 ADD DUP6 PUSH2 0xCBB JUMP JUMPDEST SWAP1 POP DUP3 PUSH1 0x20 DUP4 ADD MSTORE SWAP4 SWAP3 POP POP POP JUMP JUMPDEST PUSH1 0x0 DUP3 PUSH1 0x1F DUP4 ADD SLT PUSH2 0xF61 JUMPI PUSH1 0x0 DUP1 REVERT JUMPDEST DUP2 CALLDATALOAD PUSH8 0xFFFFFFFFFFFFFFFF DUP2 GT ISZERO PUSH2 0xF7B JUMPI PUSH2 0xF7B PUSH2 0xD7E JUMP JUMPDEST PUSH2 0xF8E PUSH1 0x1F DUP3 ADD PUSH1 0x1F NOT AND PUSH1 0x20 ADD PUSH2 0xD94 JUMP JUMPDEST DUP2 DUP2 MSTORE DUP5 PUSH1 0x20 DUP4 DUP7 ADD ADD GT ISZERO PUSH2 0xFA3 JUMPI PUSH1 0x0 DUP1 REVERT JUMPDEST DUP2 PUSH1 0x20 DUP6 ADD PUSH1 0x20 DUP4 ADD CALLDATACOPY PUSH1 0x0 SWAP2 DUP2 ADD PUSH1 0x20 ADD SWAP2 SWAP1 SWAP2 MSTORE SWAP4 SWAP3 POP POP POP JUMP JUMPDEST PUSH1 0x0 PUSH1 0x20 DUP3 DUP5 SUB SLT ISZERO PUSH2 0xFD2 JUMPI PUSH1 0x0 DUP1 REVERT JUMPDEST DUP2 CALLDATALOAD PUSH8 0xFFFFFFFFFFFFFFFF DUP2 GT ISZERO PUSH2 0xFE9 JUMPI PUSH1 0x0 DUP1 REVERT JUMPDEST PUSH2 0xFF5 DUP5 DUP3 DUP6 ADD PUSH2 0xF50 JUMP JUMPDEST SWAP5 SWAP4 POP POP POP POP JUMP JUMPDEST PUSH1 0x0 PUSH1 0x20 DUP1 DUP4 DUP6 SUB SLT ISZERO PUSH2 0x1010 JUMPI PUSH1 0x0 DUP1 REVERT JUMPDEST DUP3 CALLDATALOAD PUSH8 0xFFFFFFFFFFFFFFFF DUP1 DUP3 GT ISZERO PUSH2 0x1028 JUMPI PUSH1 0x0 DUP1 REVERT JUMPDEST DUP2 DUP6 ADD SWAP2 POP DUP6 PUSH1 0x1F DUP4 ADD SLT PUSH2 0x103C JUMPI PUSH1 0x0 DUP1 REVERT JUMPDEST DUP2 CALLDATALOAD PUSH2 0x104A PUSH2 0xE4E DUP3 PUSH2 0xDC5 JUMP JUMPDEST DUP2 DUP2 MSTORE PUSH1 0x5 SWAP2 SWAP1 SWAP2 SHL DUP4 ADD DUP5 ADD SWAP1 DUP5 DUP2 ADD SWAP1 DUP9 DUP4 GT ISZERO PUSH2 0x1069 JUMPI PUSH1 0x0 DUP1 REVERT JUMPDEST DUP6 DUP6 ADD JUMPDEST DUP4 DUP2 LT ISZERO PUSH2 0x10A1 JUMPI DUP1 CALLDATALOAD DUP6 DUP2 GT ISZERO PUSH2 0x1085 JUMPI PUSH1 0x0 DUP1 DUP2 REVERT JUMPDEST PUSH2 0x1093 DUP12 DUP10 DUP4 DUP11 ADD ADD PUSH2 0xF50 JUMP JUMPDEST DUP5 MSTORE POP SWAP2 DUP7 ADD SWAP2 DUP7 ADD PUSH2 0x106D JUMP JUMPDEST POP SWAP9 SWAP8 POP POP POP POP POP POP POP POP JUMP JUMPDEST PUSH1 0x1 DUP2 DUP2 SHR SWAP1 DUP3 AND DUP1 PUSH2 0x10C2 JUMPI PUSH1 0x7F DUP3 AND SWAP2 POP JUMPDEST PUSH1 0x20 DUP3 LT DUP2 EQ ISZERO PUSH2 0x10E3 JUMPI PUSH4 0x4E487B71 PUSH1 0xE0 SHL PUSH1 0x0 MSTORE PUSH1 0x22 PUSH1 0x4 MSTORE PUSH1 0x24 PUSH1 0x0 REVERT JUMPDEST POP SWAP2 SWAP1 POP JUMP JUMPDEST PUSH1 0x20 DUP1 DUP3 MSTORE DUP2 DUP2 ADD MSTORE PUSH32 0x43616E277420616464207768696C6520766F7465206973206F6E20676F696E67 PUSH1 0x40 DUP3 ADD MSTORE PUSH1 0x60 ADD SWAP1 JUMP JUMPDEST PUSH4 0x4E487B71 PUSH1 0xE0 SHL PUSH1 0x0 MSTORE PUSH1 0x32 PUSH1 0x4 MSTORE PUSH1 0x24 PUSH1 0x0 REVERT JUMPDEST PUSH4 0x4E487B71 PUSH1 0xE0 SHL PUSH1 0x0 MSTORE PUSH1 0x11 PUSH1 0x4 MSTORE PUSH1 0x24 PUSH1 0x0 REVERT JUMPDEST PUSH1 0x0 DUP3 NOT DUP3 GT ISZERO PUSH2 0x115D JUMPI PUSH2 0x115D PUSH2 0x1134 JUMP JUMPDEST POP ADD SWAP1 JUMP JUMPDEST PUSH1 0x0 PUSH1 0x0 NOT DUP3 EQ ISZERO PUSH2 0x1176 JUMPI PUSH2 0x1176 PUSH2 0x1134 JUMP JUMPDEST POP PUSH1 0x1 ADD SWAP1 JUMP JUMPDEST PUSH1 0x0 DUP1 DUP4 SLT DUP1 ISZERO PUSH1 0x1 PUSH1 0xFF SHL DUP6 ADD DUP5 SLT AND ISZERO PUSH2 0x119B JUMPI PUSH2 0x119B PUSH2 0x1134 JUMP JUMPDEST PUSH1 0x1 PUSH1 0x1 PUSH1 0xFF SHL SUB DUP5 ADD DUP4 SGT DUP2 AND ISZERO PUSH2 0x11B6 JUMPI PUSH2 0x11B6 PUSH2 0x1134 JUMP JUMPDEST POP POP SUB SWAP1 JUMP INVALID LOG2 PUSH5 0x6970667358 0x22 SLT KECCAK256 0xDC 0xBA 0xD9 SWAP16 0xCE 0xE5 0xAD PUSH30 0xD43671A609290E14FFC1F60251E146E0B64CC145E0F7810C64736F6C6343 STOP ADDMOD MULMOD STOP CALLER ","sha1":"94437782dcbe32aa38d97a8fa4f84b69ed209257","source":"//SPDX-License-Identifier:MIT\npragma solidity >=0.6.6;\n\n\ncontract Vote\n{\n    \n    mapping(address=>Voter) public Voters;\n    mapping(address=>string) public Cast;    \n    VCandidate[] public Candidates;\n    uint public total_cand=0;\n    uint public total_voters=0;\n    \n    int256 end;\n    //winner feature to be added\n    uint256 public winner;\n    // uint256 start;\n    address public owner;\n    \n    enum VOTE_STATE {\n        \n        OPEN,\n        CLOSED\n      \n    }\n\n    \n    VOTE_STATE public vote_state;\n    \n    struct Voter\n    {\n      bool isauthorised;\n      bool hasVoted;\n    }\n\n    struct VCandidate\n    {\n        string name;\n        uint256 voteCount;\n    }\n    \n      \n    modifier OnlyOwner\n    {\n        require(owner==msg.sender);\n        _;\n    }\n\n\n    constructor(){\n    \n    vote_state=VOTE_STATE.CLOSED; \n    owner=msg.sender;\n        \n    }\n    \n\n    \n    function addCandidate(string memory _name) public OnlyOwner\n    {require(vote_state==VOTE_STATE.CLOSED,\"Can't add while vote is on going\");\n     Candidates.push(VCandidate(_name,0));\n     total_cand+=1;   \n    }\n\n       function addCandidateBulk(string [] memory _names) public OnlyOwner\n    {require(vote_state==VOTE_STATE.CLOSED,\"Can't add while vote is on going\");\n        for(uint i =0;i<_names.length;i++)\n        {\n            Candidates.push(VCandidate(_names[i],0));\n            total_cand+=1;   \n    \n        }\n    }\n    \n    \n    function addVoterseBulk(address [] memory _names) public OnlyOwner\n    {require(vote_state==VOTE_STATE.CLOSED,\"Can't add while vote is on going\");\n        for(uint i =0;i<_names.length;i++)\n        {   Voters[_names[i]].isauthorised=true;\n            Voters[_names[i]].hasVoted=false;\n            \n            total_voters+=1;   \n    \n        }\n    }\n    \n     \n    function addVoter(address a) public OnlyOwner\n    {require(vote_state==VOTE_STATE.CLOSED,\"Can't add while vote is on going\");\n     Voters[a].isauthorised=true;\n     Voters[a].hasVoted=false;\n     total_voters+=1 ;\n\n    }\n    \n    \n    function startVote(uint256 _time) public OnlyOwner\n    {\n     require(vote_state==VOTE_STATE.CLOSED,\"Cant be initiated\");\n     vote_state=VOTE_STATE.OPEN; \n     \n     end=int256(block.timestamp+_time);\n\n    }\n    \n\n    \n    \n    function voteCandidate(uint Index) public\n    \n    {   \n        require(end-int256(block.timestamp)>0,\"time ends\");\n        require(vote_state==VOTE_STATE.OPEN,\"vote not started\");\n        require(Voters[msg.sender].isauthorised==true,\"No voter\");\n        require(Voters[msg.sender].hasVoted==false,\"Already voted\");\n        Candidates[Index].voteCount+=1;   \n        Voters[msg.sender].hasVoted=true;\n        Cast[msg.sender]=Candidates[Index].name;\n    }\n\n    \n    function timeleft() public view returns (int256)\n    {\n        return end-int256(block.timestamp);\n    }\n        \n    function endVote() public OnlyOwner\n    {require(end-int256(block.timestamp)<1,\"time left\");\n\n    \n     selfdestruct(payable(owner)); \n\n    }\n    function getCandidateArray()public view returns( VCandidate[]memory){\n    return Candidates;\n    }\n    \n    \n    \n    \n    \n}\n\n\n\n","sourcePath":"contracts/Voting_app.sol","type":"contract","deployment":{"address":"0x244BcAeF88b3ACe865AD2436791152ef40221aB9","chainid":"42","blockHeight":31655452}}