{"abi":[{"inputs":[],"name":"Increase","outputs":[],"stateMutability":"nonpayable","type":"function"},{"inputs":[{"internalType":"uint256","name":"","type":"uint256"}],"name":"scan","outputs":[{"internalType":"uint256","name":"","type":"uint256"}],"stateMutability":"view","type":"function"},{"inputs":[],"name":"win","outputs":[{"internalType":"uint256","name":"","type":"uint256"}],"stateMutability":"view","type":"function"}],"bytecode":"6000805561010060405260016080818152600760a052600260c052600360e05261002b9190600461003e565b5034801561003857600080fd5b506100a3565b82805482825590600052602060002090810192821561007e579160200282015b8281111561007e578251829060ff1690559160200191906001019061005e565b5061008a92915061008e565b5090565b5b8082111561008a576000815560010161008f565b61011c806100b26000396000f3fe6080604052348015600f57600080fd5b5060043610603c5760003560e01c8063473ca96c146041578063e16d14a014605b578063fb6f957914606a575b600080fd5b604960005481565b60405190815260200160405180910390f35b6049606636600460a6565b6072565b60706092565b005b60018181548110608157600080fd5b600091825260209091200154905081565b600080549080609f8360be565b9190505550565b60006020828403121560b757600080fd5b5035919050565b600060001982141560df57634e487b7160e01b600052601160045260246000fd5b506001019056fea2646970667358221220836006fcb44e0bee0821ace8031fe383a9e1c6ad62f241f164f5774478f58f3464736f6c63430008090033","bytecodeSha1":"a9f5f618c6b3596dd6e01fdb666952622476f844","compiler":{"evm_version":"istanbul","optimizer":{"enabled":true,"runs":200},"version":"0.8.9+commit.e5eed63a"},"contractName":"test_try","language":"Solidity","natspec":{"kind":"dev","methods":{},"version":1},"opcodes":"PUSH1 0x80 PUSH1 0x40 MSTORE CALLVALUE DUP1 ISZERO PUSH1 0xF JUMPI PUSH1 0x0 DUP1 REVERT JUMPDEST POP PUSH1 0x4 CALLDATASIZE LT PUSH1 0x3C JUMPI PUSH1 0x0 CALLDATALOAD PUSH1 0xE0 SHR DUP1 PUSH4 0x473CA96C EQ PUSH1 0x41 JUMPI DUP1 PUSH4 0xE16D14A0 EQ PUSH1 0x5B JUMPI DUP1 PUSH4 0xFB6F9579 EQ PUSH1 0x6A JUMPI JUMPDEST PUSH1 0x0 DUP1 REVERT JUMPDEST PUSH1 0x49 PUSH1 0x0 SLOAD DUP2 JUMP JUMPDEST PUSH1 0x40 MLOAD SWAP1 DUP2 MSTORE PUSH1 0x20 ADD PUSH1 0x40 MLOAD DUP1 SWAP2 SUB SWAP1 RETURN JUMPDEST PUSH1 0x49 PUSH1 0x66 CALLDATASIZE PUSH1 0x4 PUSH1 0xA6 JUMP JUMPDEST PUSH1 0x72 JUMP JUMPDEST PUSH1 0x70 PUSH1 0x92 JUMP JUMPDEST STOP JUMPDEST PUSH1 0x1 DUP2 DUP2 SLOAD DUP2 LT PUSH1 0x81 JUMPI PUSH1 0x0 DUP1 REVERT JUMPDEST PUSH1 0x0 SWAP2 DUP3 MSTORE PUSH1 0x20 SWAP1 SWAP2 KECCAK256 ADD SLOAD SWAP1 POP DUP2 JUMP JUMPDEST PUSH1 0x0 DUP1 SLOAD SWAP1 DUP1 PUSH1 0x9F DUP4 PUSH1 0xBE JUMP JUMPDEST SWAP2 SWAP1 POP SSTORE POP JUMP JUMPDEST PUSH1 0x0 PUSH1 0x20 DUP3 DUP5 SUB SLT ISZERO PUSH1 0xB7 JUMPI PUSH1 0x0 DUP1 REVERT JUMPDEST POP CALLDATALOAD SWAP2 SWAP1 POP JUMP JUMPDEST PUSH1 0x0 PUSH1 0x0 NOT DUP3 EQ ISZERO PUSH1 0xDF JUMPI PUSH4 0x4E487B71 PUSH1 0xE0 SHL PUSH1 0x0 MSTORE PUSH1 0x11 PUSH1 0x4 MSTORE PUSH1 0x24 PUSH1 0x0 REVERT JUMPDEST POP PUSH1 0x1 ADD SWAP1 JUMP INVALID LOG2 PUSH5 0x6970667358 0x22 SLT KECCAK256 DUP4 PUSH1 0x6 0xFC 0xB4 0x4E SIGNEXTEND 0xEE ADDMOD 0x21 0xAC 0xE8 SUB 0x1F 0xE3 DUP4 0xA9 0xE1 0xC6 0xAD PUSH3 0xF241F1 PUSH5 0xF5774478F5 DUP16 CALLVALUE PUSH5 0x736F6C6343 STOP ADDMOD MULMOD STOP CALLER ","sha1":"428631fd5602de8448cf40f243a2ee26fe304126","source":"//SPDX-License-Identifier:MIT\n\npragma solidity >=0.6.6;\n\n\n\n\ncontract test_try{\n// {   uint256 [] scan=[1,7,2,3];\n    uint public win=0;\n    uint256 [] public scan=[1,7,2,3];\n    \n    \n    function Increase() public\n    {   \n        win++;\n    }\n    \n \n    \n    \n}","sourcePath":"contracts/test.sol","type":"contract","deployment":{"address":"0x508A8ECb85F1f4a08EFD9cC0A2AC781C9bec4486","chainid":"42","blockHeight":28316559}}