{"abi":[{"inputs":[],"stateMutability":"nonpayable","type":"constructor","name":"constructor"},{"inputs":[{"internalType":"uint256","name":"","type":"uint256"}],"name":"Candidates","outputs":[{"internalType":"string","name":"name","type":"string"},{"internalType":"uint256","name":"voteCount","type":"uint256"}],"stateMutability":"view","type":"function"},{"inputs":[{"internalType":"address","name":"","type":"address"}],"name":"Voters","outputs":[{"internalType":"bool","name":"isauthorised","type":"bool"},{"internalType":"bool","name":"hasVoted","type":"bool"}],"stateMutability":"view","type":"function"},{"inputs":[{"internalType":"string","name":"_name","type":"string"}],"name":"addCandidate","outputs":[],"stateMutability":"nonpayable","type":"function"},{"inputs":[{"internalType":"address","name":"a","type":"address"}],"name":"addVoter","outputs":[],"stateMutability":"nonpayable","type":"function"},{"inputs":[],"name":"endVote","outputs":[],"stateMutability":"nonpayable","type":"function"},{"inputs":[],"name":"getCandidateArray","outputs":[{"components":[{"internalType":"string","name":"name","type":"string"},{"internalType":"uint256","name":"voteCount","type":"uint256"}],"internalType":"struct Vote.VCandidate[]","name":"","type":"tuple[]"}],"stateMutability":"view","type":"function"},{"inputs":[],"name":"owner","outputs":[{"internalType":"address","name":"","type":"address"}],"stateMutability":"view","type":"function"},{"inputs":[{"internalType":"uint256","name":"_time","type":"uint256"}],"name":"startVote","outputs":[],"stateMutability":"nonpayable","type":"function"},{"inputs":[],"name":"timeleft","outputs":[{"internalType":"int256","name":"","type":"int256"}],"stateMutability":"view","type":"function"},{"inputs":[],"name":"total_cand","outputs":[{"internalType":"uint256","name":"","type":"uint256"}],"stateMutability":"view","type":"function"},{"inputs":[],"name":"total_voters","outputs":[{"internalType":"uint256","name":"","type":"uint256"}],"stateMutability":"view","type":"function"},{"inputs":[{"internalType":"uint256","name":"Index","type":"uint256"}],"name":"voteCandidate","outputs":[],"stateMutability":"nonpayable","type":"function"},{"inputs":[],"name":"vote_state","outputs":[{"internalType":"enum Vote.VOTE_STATE","name":"","type":"uint8"}],"stateMutability":"view","type":"function"},{"inputs":[],"name":"winner","outputs":[{"internalType":"uint256","name":"","type":"uint256"}],"stateMutability":"view","type":"function"}],"bytecode":"60806040526000600255600060035534801561001a57600080fd5b5060068054336001600160a81b031990911617600160a01b179055610b68806100446000396000f3fe608060405234801561001057600080fd5b50600436106100ea5760003560e01c80638c08a4dc1161008c578063dfbf53ae11610066578063dfbf53ae146101dc578063e8677f19146101e5578063f4ab9adf146101ee578063fdedaa8a1461020157600080fd5b80638c08a4dc146101965780638da5cb5b146101a9578063b9223946146101d457600080fd5b80633f220524116100c85780633f2205241461014f578063462e91ec146101645780636352b20c1461017757806368c74b531461018e57600080fd5b806309c56e64146100ef5780631f1f8ca21461010d578063290e92121461012e575b600080fd5b6100f7610244565b604051610104919061088e565b60405180910390f35b60065461012190600160a01b900460ff1681565b604051610104919061091a565b61014161013c366004610942565b61033f565b60405161010492919061095b565b61016261015d366004610942565b6103fb565b005b610162610172366004610993565b610495565b61018060025481565b604051908152602001610104565b61018061052f565b6101626101a4366004610942565b610544565b6006546101bc906001600160a01b031681565b6040516001600160a01b039091168152602001610104565b6101626106e9565b61018060055481565b61018060035481565b6101626101fc366004610a44565b610757565b61022d61020f366004610a44565b60006020819052908152604090205460ff8082169161010090041682565b604080519215158352901515602083015201610104565b60606001805480602002602001604051908101604052809291908181526020016000905b82821015610336578382906000526020600020906002020160405180604001604052908160008201805461029b90610a74565b80601f01602080910402602001604051908101604052809291908181526020018280546102c790610a74565b80156103145780601f106102e957610100808354040283529160200191610314565b820191906000526020600020905b8154815290600101906020018083116102f757829003601f168201915b5050505050815260200160018201548152505081526020019060010190610268565b50505050905090565b6001818154811061034f57600080fd5b906000526020600020906002020160009150905080600001805461037290610a74565b80601f016020809104026020016040519081016040528092919081815260200182805461039e90610a74565b80156103eb5780601f106103c0576101008083540402835291602001916103eb565b820191906000526020600020905b8154815290600101906020018083116103ce57829003601f168201915b5050505050908060010154905082565b6006546001600160a01b0316331461041257600080fd5b6001600654600160a01b900460ff16600181111561043257610432610904565b146104785760405162461bcd60e51b815260206004820152601160248201527010d85b9d081899481a5b9a5d1a585d1959607a1b60448201526064015b60405180910390fd5b6006805460ff60a01b1916905561048f8142610ac5565b60045550565b6006546001600160a01b031633146104ac57600080fd5b604080518082019091528181526000602080830182905260018054808201825592528251805160029093027fb10e2d527612073b26eecdfd717e6a320cf44b4afac2b0732d9fcbe2b7fa0cf6019261050792849201906107a8565b506020820151816001015550506001600260008282546105279190610ac5565b909155505050565b60004260045461053f9190610add565b905090565b6000426004546105549190610add565b1361058d5760405162461bcd60e51b815260206004820152600960248201526874696d6520656e647360b81b604482015260640161046f565b6000600654600160a01b900460ff1660018111156105ad576105ad610904565b146105ed5760405162461bcd60e51b815260206004820152601060248201526f1d9bdd19481b9bdd081cdd185c9d195960821b604482015260640161046f565b3360009081526020819052604090205460ff16151560011461063c5760405162461bcd60e51b81526020600482015260086024820152672737903b37ba32b960c11b604482015260640161046f565b33600090815260208190526040902054610100900460ff16156106915760405162461bcd60e51b815260206004820152600d60248201526c105b1c9958591e481d9bdd1959609a1b604482015260640161046f565b60018082815481106106a5576106a5610b1c565b906000526020600020906002020160010160008282546106c59190610ac5565b9091555050336000908152602081905260409020805461ff00191661010017905550565b6006546001600160a01b0316331461070057600080fd5b6001426004546107109190610add565b126107495760405162461bcd60e51b81526020600482015260096024820152681d1a5b59481b19599d60ba1b604482015260640161046f565b6006546001600160a01b0316ff5b6006546001600160a01b0316331461076e57600080fd5b6001600160a01b0381166000908152602081905260408120805461ffff191660019081179091556003805491929091610527908490610ac5565b8280546107b490610a74565b90600052602060002090601f0160209004810192826107d6576000855561081c565b82601f106107ef57805160ff191683800117855561081c565b8280016001018555821561081c579182015b8281111561081c578251825591602001919060010190610801565b5061082892915061082c565b5090565b5b80821115610828576000815560010161082d565b6000815180845260005b818110156108675760208185018101518683018201520161084b565b81811115610879576000602083870101525b50601f01601f19169290920160200192915050565b60006020808301818452808551808352604092508286019150828160051b87010184880160005b838110156108f657888303603f19018552815180518785526108d988860182610841565b9189015194890194909452948701949250908601906001016108b5565b509098975050505050505050565b634e487b7160e01b600052602160045260246000fd5b602081016002831061093c57634e487b7160e01b600052602160045260246000fd5b91905290565b60006020828403121561095457600080fd5b5035919050565b60408152600061096e6040830185610841565b90508260208301529392505050565b634e487b7160e01b600052604160045260246000fd5b6000602082840312156109a557600080fd5b813567ffffffffffffffff808211156109bd57600080fd5b818401915084601f8301126109d157600080fd5b8135818111156109e3576109e361097d565b604051601f8201601f19908116603f01168101908382118183101715610a0b57610a0b61097d565b81604052828152876020848701011115610a2457600080fd5b826020860160208301376000928101602001929092525095945050505050565b600060208284031215610a5657600080fd5b81356001600160a01b0381168114610a6d57600080fd5b9392505050565b600181811c90821680610a8857607f821691505b60208210811415610aa957634e487b7160e01b600052602260045260246000fd5b50919050565b634e487b7160e01b600052601160045260246000fd5b60008219821115610ad857610ad8610aaf565b500190565b60008083128015600160ff1b850184121615610afb57610afb610aaf565b6001600160ff1b0384018313811615610b1657610b16610aaf565b50500390565b634e487b7160e01b600052603260045260246000fdfea26469706673582212200b5516ab0f0e232fa326b20f029bf06c404b4413c8b914376edb0af8f50ca61d64736f6c63430008090033","bytecodeSha1":"9ea9b0a1d9a269d0186f2b4b05a42365702a76da","compiler":{"evm_version":"istanbul","optimizer":{"enabled":true,"runs":200},"version":"0.8.9+commit.e5eed63a"},"contractName":"Vote","language":"Solidity","natspec":{"kind":"dev","methods":{},"version":1},"opcodes":"PUSH1 0x80 PUSH1 0x40 MSTORE CALLVALUE DUP1 ISZERO PUSH2 0x10 JUMPI PUSH1 0x0 DUP1 REVERT JUMPDEST POP PUSH1 0x4 CALLDATASIZE LT PUSH2 0xEA JUMPI PUSH1 0x0 CALLDATALOAD PUSH1 0xE0 SHR DUP1 PUSH4 0x8C08A4DC GT PUSH2 0x8C JUMPI DUP1 PUSH4 0xDFBF53AE GT PUSH2 0x66 JUMPI DUP1 PUSH4 0xDFBF53AE EQ PUSH2 0x1DC JUMPI DUP1 PUSH4 0xE8677F19 EQ PUSH2 0x1E5 JUMPI DUP1 PUSH4 0xF4AB9ADF EQ PUSH2 0x1EE JUMPI DUP1 PUSH4 0xFDEDAA8A EQ PUSH2 0x201 JUMPI PUSH1 0x0 DUP1 REVERT JUMPDEST DUP1 PUSH4 0x8C08A4DC EQ PUSH2 0x196 JUMPI DUP1 PUSH4 0x8DA5CB5B EQ PUSH2 0x1A9 JUMPI DUP1 PUSH4 0xB9223946 EQ PUSH2 0x1D4 JUMPI PUSH1 0x0 DUP1 REVERT JUMPDEST DUP1 PUSH4 0x3F220524 GT PUSH2 0xC8 JUMPI DUP1 PUSH4 0x3F220524 EQ PUSH2 0x14F JUMPI DUP1 PUSH4 0x462E91EC EQ PUSH2 0x164 JUMPI DUP1 PUSH4 0x6352B20C EQ PUSH2 0x177 JUMPI DUP1 PUSH4 0x68C74B53 EQ PUSH2 0x18E JUMPI PUSH1 0x0 DUP1 REVERT JUMPDEST DUP1 PUSH4 0x9C56E64 EQ PUSH2 0xEF JUMPI DUP1 PUSH4 0x1F1F8CA2 EQ PUSH2 0x10D JUMPI DUP1 PUSH4 0x290E9212 EQ PUSH2 0x12E JUMPI JUMPDEST PUSH1 0x0 DUP1 REVERT JUMPDEST PUSH2 0xF7 PUSH2 0x244 JUMP JUMPDEST PUSH1 0x40 MLOAD PUSH2 0x104 SWAP2 SWAP1 PUSH2 0x88E JUMP JUMPDEST PUSH1 0x40 MLOAD DUP1 SWAP2 SUB SWAP1 RETURN JUMPDEST PUSH1 0x6 SLOAD PUSH2 0x121 SWAP1 PUSH1 0x1 PUSH1 0xA0 SHL SWAP1 DIV PUSH1 0xFF AND DUP2 JUMP JUMPDEST PUSH1 0x40 MLOAD PUSH2 0x104 SWAP2 SWAP1 PUSH2 0x91A JUMP JUMPDEST PUSH2 0x141 PUSH2 0x13C CALLDATASIZE PUSH1 0x4 PUSH2 0x942 JUMP JUMPDEST PUSH2 0x33F JUMP JUMPDEST PUSH1 0x40 MLOAD PUSH2 0x104 SWAP3 SWAP2 SWAP1 PUSH2 0x95B JUMP JUMPDEST PUSH2 0x162 PUSH2 0x15D CALLDATASIZE PUSH1 0x4 PUSH2 0x942 JUMP JUMPDEST PUSH2 0x3FB JUMP JUMPDEST STOP JUMPDEST PUSH2 0x162 PUSH2 0x172 CALLDATASIZE PUSH1 0x4 PUSH2 0x993 JUMP JUMPDEST PUSH2 0x495 JUMP JUMPDEST PUSH2 0x180 PUSH1 0x2 SLOAD DUP2 JUMP JUMPDEST PUSH1 0x40 MLOAD SWAP1 DUP2 MSTORE PUSH1 0x20 ADD PUSH2 0x104 JUMP JUMPDEST PUSH2 0x180 PUSH2 0x52F JUMP JUMPDEST PUSH2 0x162 PUSH2 0x1A4 CALLDATASIZE PUSH1 0x4 PUSH2 0x942 JUMP JUMPDEST PUSH2 0x544 JUMP JUMPDEST PUSH1 0x6 SLOAD PUSH2 0x1BC SWAP1 PUSH1 0x1 PUSH1 0x1 PUSH1 0xA0 SHL SUB AND DUP2 JUMP JUMPDEST PUSH1 0x40 MLOAD PUSH1 0x1 PUSH1 0x1 PUSH1 0xA0 SHL SUB SWAP1 SWAP2 AND DUP2 MSTORE PUSH1 0x20 ADD PUSH2 0x104 JUMP JUMPDEST PUSH2 0x162 PUSH2 0x6E9 JUMP JUMPDEST PUSH2 0x180 PUSH1 0x5 SLOAD DUP2 JUMP JUMPDEST PUSH2 0x180 PUSH1 0x3 SLOAD DUP2 JUMP JUMPDEST PUSH2 0x162 PUSH2 0x1FC CALLDATASIZE PUSH1 0x4 PUSH2 0xA44 JUMP JUMPDEST PUSH2 0x757 JUMP JUMPDEST PUSH2 0x22D PUSH2 0x20F CALLDATASIZE PUSH1 0x4 PUSH2 0xA44 JUMP JUMPDEST PUSH1 0x0 PUSH1 0x20 DUP2 SWAP1 MSTORE SWAP1 DUP2 MSTORE PUSH1 0x40 SWAP1 KECCAK256 SLOAD PUSH1 0xFF DUP1 DUP3 AND SWAP2 PUSH2 0x100 SWAP1 DIV AND DUP3 JUMP JUMPDEST PUSH1 0x40 DUP1 MLOAD SWAP3 ISZERO ISZERO DUP4 MSTORE SWAP1 ISZERO ISZERO PUSH1 0x20 DUP4 ADD MSTORE ADD PUSH2 0x104 JUMP JUMPDEST PUSH1 0x60 PUSH1 0x1 DUP1 SLOAD DUP1 PUSH1 0x20 MUL PUSH1 0x20 ADD PUSH1 0x40 MLOAD SWAP1 DUP2 ADD PUSH1 0x40 MSTORE DUP1 SWAP3 SWAP2 SWAP1 DUP2 DUP2 MSTORE PUSH1 0x20 ADD PUSH1 0x0 SWAP1 JUMPDEST DUP3 DUP3 LT ISZERO PUSH2 0x336 JUMPI DUP4 DUP3 SWAP1 PUSH1 0x0 MSTORE PUSH1 0x20 PUSH1 0x0 KECCAK256 SWAP1 PUSH1 0x2 MUL ADD PUSH1 0x40 MLOAD DUP1 PUSH1 0x40 ADD PUSH1 0x40 MSTORE SWAP1 DUP2 PUSH1 0x0 DUP3 ADD DUP1 SLOAD PUSH2 0x29B SWAP1 PUSH2 0xA74 JUMP JUMPDEST DUP1 PUSH1 0x1F ADD PUSH1 0x20 DUP1 SWAP2 DIV MUL PUSH1 0x20 ADD PUSH1 0x40 MLOAD SWAP1 DUP2 ADD PUSH1 0x40 MSTORE DUP1 SWAP3 SWAP2 SWAP1 DUP2 DUP2 MSTORE PUSH1 0x20 ADD DUP3 DUP1 SLOAD PUSH2 0x2C7 SWAP1 PUSH2 0xA74 JUMP JUMPDEST DUP1 ISZERO PUSH2 0x314 JUMPI DUP1 PUSH1 0x1F LT PUSH2 0x2E9 JUMPI PUSH2 0x100 DUP1 DUP4 SLOAD DIV MUL DUP4 MSTORE SWAP2 PUSH1 0x20 ADD SWAP2 PUSH2 0x314 JUMP JUMPDEST DUP3 ADD SWAP2 SWAP1 PUSH1 0x0 MSTORE PUSH1 0x20 PUSH1 0x0 KECCAK256 SWAP1 JUMPDEST DUP2 SLOAD DUP2 MSTORE SWAP1 PUSH1 0x1 ADD SWAP1 PUSH1 0x20 ADD DUP1 DUP4 GT PUSH2 0x2F7 JUMPI DUP3 SWAP1 SUB PUSH1 0x1F AND DUP3 ADD SWAP2 JUMPDEST POP POP POP POP POP DUP2 MSTORE PUSH1 0x20 ADD PUSH1 0x1 DUP3 ADD SLOAD DUP2 MSTORE POP POP DUP2 MSTORE PUSH1 0x20 ADD SWAP1 PUSH1 0x1 ADD SWAP1 PUSH2 0x268 JUMP JUMPDEST POP POP POP POP SWAP1 POP SWAP1 JUMP JUMPDEST PUSH1 0x1 DUP2 DUP2 SLOAD DUP2 LT PUSH2 0x34F JUMPI PUSH1 0x0 DUP1 REVERT JUMPDEST SWAP1 PUSH1 0x0 MSTORE PUSH1 0x20 PUSH1 0x0 KECCAK256 SWAP1 PUSH1 0x2 MUL ADD PUSH1 0x0 SWAP2 POP SWAP1 POP DUP1 PUSH1 0x0 ADD DUP1 SLOAD PUSH2 0x372 SWAP1 PUSH2 0xA74 JUMP JUMPDEST DUP1 PUSH1 0x1F ADD PUSH1 0x20 DUP1 SWAP2 DIV MUL PUSH1 0x20 ADD PUSH1 0x40 MLOAD SWAP1 DUP2 ADD PUSH1 0x40 MSTORE DUP1 SWAP3 SWAP2 SWAP1 DUP2 DUP2 MSTORE PUSH1 0x20 ADD DUP3 DUP1 SLOAD PUSH2 0x39E SWAP1 PUSH2 0xA74 JUMP JUMPDEST DUP1 ISZERO PUSH2 0x3EB JUMPI DUP1 PUSH1 0x1F LT PUSH2 0x3C0 JUMPI PUSH2 0x100 DUP1 DUP4 SLOAD DIV MUL DUP4 MSTORE SWAP2 PUSH1 0x20 ADD SWAP2 PUSH2 0x3EB JUMP JUMPDEST DUP3 ADD SWAP2 SWAP1 PUSH1 0x0 MSTORE PUSH1 0x20 PUSH1 0x0 KECCAK256 SWAP1 JUMPDEST DUP2 SLOAD DUP2 MSTORE SWAP1 PUSH1 0x1 ADD SWAP1 PUSH1 0x20 ADD DUP1 DUP4 GT PUSH2 0x3CE JUMPI DUP3 SWAP1 SUB PUSH1 0x1F AND DUP3 ADD SWAP2 JUMPDEST POP POP POP POP POP SWAP1 DUP1 PUSH1 0x1 ADD SLOAD SWAP1 POP DUP3 JUMP JUMPDEST PUSH1 0x6 SLOAD PUSH1 0x1 PUSH1 0x1 PUSH1 0xA0 SHL SUB AND CALLER EQ PUSH2 0x412 JUMPI PUSH1 0x0 DUP1 REVERT JUMPDEST PUSH1 0x1 PUSH1 0x6 SLOAD PUSH1 0x1 PUSH1 0xA0 SHL SWAP1 DIV PUSH1 0xFF AND PUSH1 0x1 DUP2 GT ISZERO PUSH2 0x432 JUMPI PUSH2 0x432 PUSH2 0x904 JUMP JUMPDEST EQ PUSH2 0x478 JUMPI PUSH1 0x40 MLOAD PUSH3 0x461BCD PUSH1 0xE5 SHL DUP2 MSTORE PUSH1 0x20 PUSH1 0x4 DUP3 ADD MSTORE PUSH1 0x11 PUSH1 0x24 DUP3 ADD MSTORE PUSH17 0x10D85B9D081899481A5B9A5D1A585D1959 PUSH1 0x7A SHL PUSH1 0x44 DUP3 ADD MSTORE PUSH1 0x64 ADD JUMPDEST PUSH1 0x40 MLOAD DUP1 SWAP2 SUB SWAP1 REVERT JUMPDEST PUSH1 0x6 DUP1 SLOAD PUSH1 0xFF PUSH1 0xA0 SHL NOT AND SWAP1 SSTORE PUSH2 0x48F DUP2 TIMESTAMP PUSH2 0xAC5 JUMP JUMPDEST PUSH1 0x4 SSTORE POP JUMP JUMPDEST PUSH1 0x6 SLOAD PUSH1 0x1 PUSH1 0x1 PUSH1 0xA0 SHL SUB AND CALLER EQ PUSH2 0x4AC JUMPI PUSH1 0x0 DUP1 REVERT JUMPDEST PUSH1 0x40 DUP1 MLOAD DUP1 DUP3 ADD SWAP1 SWAP2 MSTORE DUP2 DUP2 MSTORE PUSH1 0x0 PUSH1 0x20 DUP1 DUP4 ADD DUP3 SWAP1 MSTORE PUSH1 0x1 DUP1 SLOAD DUP1 DUP3 ADD DUP3 SSTORE SWAP3 MSTORE DUP3 MLOAD DUP1 MLOAD PUSH1 0x2 SWAP1 SWAP4 MUL PUSH32 0xB10E2D527612073B26EECDFD717E6A320CF44B4AFAC2B0732D9FCBE2B7FA0CF6 ADD SWAP3 PUSH2 0x507 SWAP3 DUP5 SWAP3 ADD SWAP1 PUSH2 0x7A8 JUMP JUMPDEST POP PUSH1 0x20 DUP3 ADD MLOAD DUP2 PUSH1 0x1 ADD SSTORE POP POP PUSH1 0x1 PUSH1 0x2 PUSH1 0x0 DUP3 DUP3 SLOAD PUSH2 0x527 SWAP2 SWAP1 PUSH2 0xAC5 JUMP JUMPDEST SWAP1 SWAP2 SSTORE POP POP POP JUMP JUMPDEST PUSH1 0x0 TIMESTAMP PUSH1 0x4 SLOAD PUSH2 0x53F SWAP2 SWAP1 PUSH2 0xADD JUMP JUMPDEST SWAP1 POP SWAP1 JUMP JUMPDEST PUSH1 0x0 TIMESTAMP PUSH1 0x4 SLOAD PUSH2 0x554 SWAP2 SWAP1 PUSH2 0xADD JUMP JUMPDEST SGT PUSH2 0x58D JUMPI PUSH1 0x40 MLOAD PUSH3 0x461BCD PUSH1 0xE5 SHL DUP2 MSTORE PUSH1 0x20 PUSH1 0x4 DUP3 ADD MSTORE PUSH1 0x9 PUSH1 0x24 DUP3 ADD MSTORE PUSH9 0x74696D6520656E6473 PUSH1 0xB8 SHL PUSH1 0x44 DUP3 ADD MSTORE PUSH1 0x64 ADD PUSH2 0x46F JUMP JUMPDEST PUSH1 0x0 PUSH1 0x6 SLOAD PUSH1 0x1 PUSH1 0xA0 SHL SWAP1 DIV PUSH1 0xFF AND PUSH1 0x1 DUP2 GT ISZERO PUSH2 0x5AD JUMPI PUSH2 0x5AD PUSH2 0x904 JUMP JUMPDEST EQ PUSH2 0x5ED JUMPI PUSH1 0x40 MLOAD PUSH3 0x461BCD PUSH1 0xE5 SHL DUP2 MSTORE PUSH1 0x20 PUSH1 0x4 DUP3 ADD MSTORE PUSH1 0x10 PUSH1 0x24 DUP3 ADD MSTORE PUSH16 0x1D9BDD19481B9BDD081CDD185C9D1959 PUSH1 0x82 SHL PUSH1 0x44 DUP3 ADD MSTORE PUSH1 0x64 ADD PUSH2 0x46F JUMP JUMPDEST CALLER PUSH1 0x0 SWAP1 DUP2 MSTORE PUSH1 0x20 DUP2 SWAP1 MSTORE PUSH1 0x40 SWAP1 KECCAK256 SLOAD PUSH1 0xFF AND ISZERO ISZERO PUSH1 0x1 EQ PUSH2 0x63C JUMPI PUSH1 0x40 MLOAD PUSH3 0x461BCD PUSH1 0xE5 SHL DUP2 MSTORE PUSH1 0x20 PUSH1 0x4 DUP3 ADD MSTORE PUSH1 0x8 PUSH1 0x24 DUP3 ADD MSTORE PUSH8 0x2737903B37BA32B9 PUSH1 0xC1 SHL PUSH1 0x44 DUP3 ADD MSTORE PUSH1 0x64 ADD PUSH2 0x46F JUMP JUMPDEST CALLER PUSH1 0x0 SWAP1 DUP2 MSTORE PUSH1 0x20 DUP2 SWAP1 MSTORE PUSH1 0x40 SWAP1 KECCAK256 SLOAD PUSH2 0x100 SWAP1 DIV PUSH1 0xFF AND ISZERO PUSH2 0x691 JUMPI PUSH1 0x40 MLOAD PUSH3 0x461BCD PUSH1 0xE5 SHL DUP2 MSTORE PUSH1 0x20 PUSH1 0x4 DUP3 ADD MSTORE PUSH1 0xD PUSH1 0x24 DUP3 ADD MSTORE PUSH13 0x105B1C9958591E481D9BDD1959 PUSH1 0x9A SHL PUSH1 0x44 DUP3 ADD MSTORE PUSH1 0x64 ADD PUSH2 0x46F JUMP JUMPDEST PUSH1 0x1 DUP1 DUP3 DUP2 SLOAD DUP2 LT PUSH2 0x6A5 JUMPI PUSH2 0x6A5 PUSH2 0xB1C JUMP JUMPDEST SWAP1 PUSH1 0x0 MSTORE PUSH1 0x20 PUSH1 0x0 KECCAK256 SWAP1 PUSH1 0x2 MUL ADD PUSH1 0x1 ADD PUSH1 0x0 DUP3 DUP3 SLOAD PUSH2 0x6C5 SWAP2 SWAP1 PUSH2 0xAC5 JUMP JUMPDEST SWAP1 SWAP2 SSTORE POP POP CALLER PUSH1 0x0 SWAP1 DUP2 MSTORE PUSH1 0x20 DUP2 SWAP1 MSTORE PUSH1 0x40 SWAP1 KECCAK256 DUP1 SLOAD PUSH2 0xFF00 NOT AND PUSH2 0x100 OR SWAP1 SSTORE POP JUMP JUMPDEST PUSH1 0x6 SLOAD PUSH1 0x1 PUSH1 0x1 PUSH1 0xA0 SHL SUB AND CALLER EQ PUSH2 0x700 JUMPI PUSH1 0x0 DUP1 REVERT JUMPDEST PUSH1 0x1 TIMESTAMP PUSH1 0x4 SLOAD PUSH2 0x710 SWAP2 SWAP1 PUSH2 0xADD JUMP JUMPDEST SLT PUSH2 0x749 JUMPI PUSH1 0x40 MLOAD PUSH3 0x461BCD PUSH1 0xE5 SHL DUP2 MSTORE PUSH1 0x20 PUSH1 0x4 DUP3 ADD MSTORE PUSH1 0x9 PUSH1 0x24 DUP3 ADD MSTORE PUSH9 0x1D1A5B59481B19599D PUSH1 0xBA SHL PUSH1 0x44 DUP3 ADD MSTORE PUSH1 0x64 ADD PUSH2 0x46F JUMP JUMPDEST PUSH1 0x6 SLOAD PUSH1 0x1 PUSH1 0x1 PUSH1 0xA0 SHL SUB AND SELFDESTRUCT JUMPDEST PUSH1 0x6 SLOAD PUSH1 0x1 PUSH1 0x1 PUSH1 0xA0 SHL SUB AND CALLER EQ PUSH2 0x76E JUMPI PUSH1 0x0 DUP1 REVERT JUMPDEST PUSH1 0x1 PUSH1 0x1 PUSH1 0xA0 SHL SUB DUP2 AND PUSH1 0x0 SWAP1 DUP2 MSTORE PUSH1 0x20 DUP2 SWAP1 MSTORE PUSH1 0x40 DUP2 KECCAK256 DUP1 SLOAD PUSH2 0xFFFF NOT AND PUSH1 0x1 SWAP1 DUP2 OR SWAP1 SWAP2 SSTORE PUSH1 0x3 DUP1 SLOAD SWAP2 SWAP3 SWAP1 SWAP2 PUSH2 0x527 SWAP1 DUP5 SWAP1 PUSH2 0xAC5 JUMP JUMPDEST DUP3 DUP1 SLOAD PUSH2 0x7B4 SWAP1 PUSH2 0xA74 JUMP JUMPDEST SWAP1 PUSH1 0x0 MSTORE PUSH1 0x20 PUSH1 0x0 KECCAK256 SWAP1 PUSH1 0x1F ADD PUSH1 0x20 SWAP1 DIV DUP2 ADD SWAP3 DUP3 PUSH2 0x7D6 JUMPI PUSH1 0x0 DUP6 SSTORE PUSH2 0x81C JUMP JUMPDEST DUP3 PUSH1 0x1F LT PUSH2 0x7EF JUMPI DUP1 MLOAD PUSH1 0xFF NOT AND DUP4 DUP1 ADD OR DUP6 SSTORE PUSH2 0x81C JUMP JUMPDEST DUP3 DUP1 ADD PUSH1 0x1 ADD DUP6 SSTORE DUP3 ISZERO PUSH2 0x81C JUMPI SWAP2 DUP3 ADD JUMPDEST DUP3 DUP2 GT ISZERO PUSH2 0x81C JUMPI DUP3 MLOAD DUP3 SSTORE SWAP2 PUSH1 0x20 ADD SWAP2 SWAP1 PUSH1 0x1 ADD SWAP1 PUSH2 0x801 JUMP JUMPDEST POP PUSH2 0x828 SWAP3 SWAP2 POP PUSH2 0x82C JUMP JUMPDEST POP SWAP1 JUMP JUMPDEST JUMPDEST DUP1 DUP3 GT ISZERO PUSH2 0x828 JUMPI PUSH1 0x0 DUP2 SSTORE PUSH1 0x1 ADD PUSH2 0x82D JUMP JUMPDEST PUSH1 0x0 DUP2 MLOAD DUP1 DUP5 MSTORE PUSH1 0x0 JUMPDEST DUP2 DUP2 LT ISZERO PUSH2 0x867 JUMPI PUSH1 0x20 DUP2 DUP6 ADD DUP2 ADD MLOAD DUP7 DUP4 ADD DUP3 ADD MSTORE ADD PUSH2 0x84B JUMP JUMPDEST DUP2 DUP2 GT ISZERO PUSH2 0x879 JUMPI PUSH1 0x0 PUSH1 0x20 DUP4 DUP8 ADD ADD MSTORE JUMPDEST POP PUSH1 0x1F ADD PUSH1 0x1F NOT AND SWAP3 SWAP1 SWAP3 ADD PUSH1 0x20 ADD SWAP3 SWAP2 POP POP JUMP JUMPDEST PUSH1 0x0 PUSH1 0x20 DUP1 DUP4 ADD DUP2 DUP5 MSTORE DUP1 DUP6 MLOAD DUP1 DUP4 MSTORE PUSH1 0x40 SWAP3 POP DUP3 DUP7 ADD SWAP2 POP DUP3 DUP2 PUSH1 0x5 SHL DUP8 ADD ADD DUP5 DUP9 ADD PUSH1 0x0 JUMPDEST DUP4 DUP2 LT ISZERO PUSH2 0x8F6 JUMPI DUP9 DUP4 SUB PUSH1 0x3F NOT ADD DUP6 MSTORE DUP2 MLOAD DUP1 MLOAD DUP8 DUP6 MSTORE PUSH2 0x8D9 DUP9 DUP7 ADD DUP3 PUSH2 0x841 JUMP JUMPDEST SWAP2 DUP10 ADD MLOAD SWAP5 DUP10 ADD SWAP5 SWAP1 SWAP5 MSTORE SWAP5 DUP8 ADD SWAP5 SWAP3 POP SWAP1 DUP7 ADD SWAP1 PUSH1 0x1 ADD PUSH2 0x8B5 JUMP JUMPDEST POP SWAP1 SWAP9 SWAP8 POP POP POP POP POP POP POP POP JUMP JUMPDEST PUSH4 0x4E487B71 PUSH1 0xE0 SHL PUSH1 0x0 MSTORE PUSH1 0x21 PUSH1 0x4 MSTORE PUSH1 0x24 PUSH1 0x0 REVERT JUMPDEST PUSH1 0x20 DUP2 ADD PUSH1 0x2 DUP4 LT PUSH2 0x93C JUMPI PUSH4 0x4E487B71 PUSH1 0xE0 SHL PUSH1 0x0 MSTORE PUSH1 0x21 PUSH1 0x4 MSTORE PUSH1 0x24 PUSH1 0x0 REVERT JUMPDEST SWAP2 SWAP1 MSTORE SWAP1 JUMP JUMPDEST PUSH1 0x0 PUSH1 0x20 DUP3 DUP5 SUB SLT ISZERO PUSH2 0x954 JUMPI PUSH1 0x0 DUP1 REVERT JUMPDEST POP CALLDATALOAD SWAP2 SWAP1 POP JUMP JUMPDEST PUSH1 0x40 DUP2 MSTORE PUSH1 0x0 PUSH2 0x96E PUSH1 0x40 DUP4 ADD DUP6 PUSH2 0x841 JUMP JUMPDEST SWAP1 POP DUP3 PUSH1 0x20 DUP4 ADD MSTORE SWAP4 SWAP3 POP POP POP JUMP JUMPDEST PUSH4 0x4E487B71 PUSH1 0xE0 SHL PUSH1 0x0 MSTORE PUSH1 0x41 PUSH1 0x4 MSTORE PUSH1 0x24 PUSH1 0x0 REVERT JUMPDEST PUSH1 0x0 PUSH1 0x20 DUP3 DUP5 SUB SLT ISZERO PUSH2 0x9A5 JUMPI PUSH1 0x0 DUP1 REVERT JUMPDEST DUP2 CALLDATALOAD PUSH8 0xFFFFFFFFFFFFFFFF DUP1 DUP3 GT ISZERO PUSH2 0x9BD JUMPI PUSH1 0x0 DUP1 REVERT JUMPDEST DUP2 DUP5 ADD SWAP2 POP DUP5 PUSH1 0x1F DUP4 ADD SLT PUSH2 0x9D1 JUMPI PUSH1 0x0 DUP1 REVERT JUMPDEST DUP2 CALLDATALOAD DUP2 DUP2 GT ISZERO PUSH2 0x9E3 JUMPI PUSH2 0x9E3 PUSH2 0x97D JUMP JUMPDEST PUSH1 0x40 MLOAD PUSH1 0x1F DUP3 ADD PUSH1 0x1F NOT SWAP1 DUP2 AND PUSH1 0x3F ADD AND DUP2 ADD SWAP1 DUP4 DUP3 GT DUP2 DUP4 LT OR ISZERO PUSH2 0xA0B JUMPI PUSH2 0xA0B PUSH2 0x97D JUMP JUMPDEST DUP2 PUSH1 0x40 MSTORE DUP3 DUP2 MSTORE DUP8 PUSH1 0x20 DUP5 DUP8 ADD ADD GT ISZERO PUSH2 0xA24 JUMPI PUSH1 0x0 DUP1 REVERT JUMPDEST DUP3 PUSH1 0x20 DUP7 ADD PUSH1 0x20 DUP4 ADD CALLDATACOPY PUSH1 0x0 SWAP3 DUP2 ADD PUSH1 0x20 ADD SWAP3 SWAP1 SWAP3 MSTORE POP SWAP6 SWAP5 POP POP POP POP POP JUMP JUMPDEST PUSH1 0x0 PUSH1 0x20 DUP3 DUP5 SUB SLT ISZERO PUSH2 0xA56 JUMPI PUSH1 0x0 DUP1 REVERT JUMPDEST DUP2 CALLDATALOAD PUSH1 0x1 PUSH1 0x1 PUSH1 0xA0 SHL SUB DUP2 AND DUP2 EQ PUSH2 0xA6D JUMPI PUSH1 0x0 DUP1 REVERT JUMPDEST SWAP4 SWAP3 POP POP POP JUMP JUMPDEST PUSH1 0x1 DUP2 DUP2 SHR SWAP1 DUP3 AND DUP1 PUSH2 0xA88 JUMPI PUSH1 0x7F DUP3 AND SWAP2 POP JUMPDEST PUSH1 0x20 DUP3 LT DUP2 EQ ISZERO PUSH2 0xAA9 JUMPI PUSH4 0x4E487B71 PUSH1 0xE0 SHL PUSH1 0x0 MSTORE PUSH1 0x22 PUSH1 0x4 MSTORE PUSH1 0x24 PUSH1 0x0 REVERT JUMPDEST POP SWAP2 SWAP1 POP JUMP JUMPDEST PUSH4 0x4E487B71 PUSH1 0xE0 SHL PUSH1 0x0 MSTORE PUSH1 0x11 PUSH1 0x4 MSTORE PUSH1 0x24 PUSH1 0x0 REVERT JUMPDEST PUSH1 0x0 DUP3 NOT DUP3 GT ISZERO PUSH2 0xAD8 JUMPI PUSH2 0xAD8 PUSH2 0xAAF JUMP JUMPDEST POP ADD SWAP1 JUMP JUMPDEST PUSH1 0x0 DUP1 DUP4 SLT DUP1 ISZERO PUSH1 0x1 PUSH1 0xFF SHL DUP6 ADD DUP5 SLT AND ISZERO PUSH2 0xAFB JUMPI PUSH2 0xAFB PUSH2 0xAAF JUMP JUMPDEST PUSH1 0x1 PUSH1 0x1 PUSH1 0xFF SHL SUB DUP5 ADD DUP4 SGT DUP2 AND ISZERO PUSH2 0xB16 JUMPI PUSH2 0xB16 PUSH2 0xAAF JUMP JUMPDEST POP POP SUB SWAP1 JUMP JUMPDEST PUSH4 0x4E487B71 PUSH1 0xE0 SHL PUSH1 0x0 MSTORE PUSH1 0x32 PUSH1 0x4 MSTORE PUSH1 0x24 PUSH1 0x0 REVERT INVALID LOG2 PUSH5 0x6970667358 0x22 SLT KECCAK256 SIGNEXTEND SSTORE AND 0xAB 0xF 0xE 0x23 0x2F LOG3 0x26 0xB2 0xF MUL SWAP12 CREATE PUSH13 0x404B4413C8B914376EDB0AF8F5 0xC 0xA6 SAR PUSH5 0x736F6C6343 STOP ADDMOD MULMOD STOP CALLER ","sha1":"e2de64c49194aa4ea8e8de6e8f8f54ddc7a66f0a","source":"//SPDX-License-Identifier:MIT\npragma solidity >=0.6.6;\n\n\ncontract Vote\n{\n    \n    mapping(address=>Voter) public Voters;\n    VCandidate[] public Candidates;\n    uint public total_cand=0;\n    uint public total_voters=0;\n    \n    int256 end;\n    //winner feature to be added\n    uint256 public winner;\n    // uint256 start;\n    address public owner;\n    \n    enum VOTE_STATE {\n        \n        OPEN,\n        CLOSED\n      \n    }\n\n    \n    VOTE_STATE public vote_state;\n    \n    struct Voter\n    {\n      bool isauthorised;\n      bool hasVoted;\n    }\n    struct VCandidate\n    {\n        string name;\n        uint256 voteCount;\n    }\n    \n      \n    modifier OnlyOwner\n    {\n        require(owner==msg.sender);\n        _;\n    }\n\n\n    constructor(){\n    \n    vote_state=VOTE_STATE.CLOSED; \n    owner=msg.sender;\n        \n    }\n    \n\n    \n    function addCandidate(string memory _name) public OnlyOwner\n    {\n     Candidates.push(VCandidate(_name,0));\n     total_cand+=1;   \n    }\n     \n    function addVoter(address a) public OnlyOwner\n    {\n     Voters[a].isauthorised=true;\n     Voters[a].hasVoted=false;\n     total_voters+=1 ;\n\n    }\n    \n    \n    function startVote(uint256 _time) public OnlyOwner\n    {\n     require(vote_state==VOTE_STATE.CLOSED,\"Cant be initiated\");\n     vote_state=VOTE_STATE.OPEN; \n     \n     end=int256(block.timestamp+_time);\n\n    }\n    \n\n    \n    \n    function voteCandidate(uint Index) public\n    \n    {   \n        require(end-int256(block.timestamp)>0,\"time ends\");\n        require(vote_state==VOTE_STATE.OPEN,\"vote not started\");\n        require(Voters[msg.sender].isauthorised==true,\"No voter\");\n        require(Voters[msg.sender].hasVoted==false,\"Already voted\");\n        Candidates[Index].voteCount+=1;   \n        Voters[msg.sender].hasVoted=true;\n        \n    }\n\n    \n    function timeleft() public view returns (int256)\n    {\n        return end-int256(block.timestamp);\n    }\n        \n    function endVote() public OnlyOwner\n    {require(end-int256(block.timestamp)<1,\"time left\");\n\n    \n     selfdestruct(payable(owner)); \n\n    }\n    function getCandidateArray()public view returns( VCandidate[]memory){\n    return Candidates;\n    }\n    \n    \n    \n    \n    \n}\n\n\n\n","sourcePath":"contracts/Voting_app.sol","type":"contract","deployment":{"address":"0x61343B696a7e113BD01e1c070226782BF303d514","chainid":"42","blockHeight":28319629}}