{"abi":[{"inputs":[],"name":"Increase","outputs":[],"stateMutability":"nonpayable","type":"function"},{"inputs":[],"name":"win","outputs":[{"internalType":"uint256","name":"","type":"uint256"}],"stateMutability":"view","type":"function"}],"bytecode":"60806040526000805534801561001457600080fd5b5060cb806100236000396000f3fe6080604052348015600f57600080fd5b506004361060325760003560e01c8063473ca96c146037578063fb6f9579146051575b600080fd5b603f60005481565b60405190815260200160405180910390f35b60576059565b005b600080549080606683606d565b9190505550565b6000600019821415608e57634e487b7160e01b600052601160045260246000fd5b506001019056fea2646970667358221220a2070e4ed3838980708a3d1ea2204ede2c2b1f64734422cdfa16fbe844ce0b4064736f6c63430008090033","bytecodeSha1":"5a1968c78db037fce49e2a48d6d654d0226ca0fb","compiler":{"evm_version":"istanbul","optimizer":{"enabled":true,"runs":200},"version":"0.8.9+commit.e5eed63a"},"contractName":"test_try","language":"Solidity","natspec":{"kind":"dev","methods":{},"version":1},"opcodes":"PUSH1 0x80 PUSH1 0x40 MSTORE CALLVALUE DUP1 ISZERO PUSH1 0xF JUMPI PUSH1 0x0 DUP1 REVERT JUMPDEST POP PUSH1 0x4 CALLDATASIZE LT PUSH1 0x32 JUMPI PUSH1 0x0 CALLDATALOAD PUSH1 0xE0 SHR DUP1 PUSH4 0x473CA96C EQ PUSH1 0x37 JUMPI DUP1 PUSH4 0xFB6F9579 EQ PUSH1 0x51 JUMPI JUMPDEST PUSH1 0x0 DUP1 REVERT JUMPDEST PUSH1 0x3F PUSH1 0x0 SLOAD DUP2 JUMP JUMPDEST PUSH1 0x40 MLOAD SWAP1 DUP2 MSTORE PUSH1 0x20 ADD PUSH1 0x40 MLOAD DUP1 SWAP2 SUB SWAP1 RETURN JUMPDEST PUSH1 0x57 PUSH1 0x59 JUMP JUMPDEST STOP JUMPDEST PUSH1 0x0 DUP1 SLOAD SWAP1 DUP1 PUSH1 0x66 DUP4 PUSH1 0x6D JUMP JUMPDEST SWAP2 SWAP1 POP SSTORE POP JUMP JUMPDEST PUSH1 0x0 PUSH1 0x0 NOT DUP3 EQ ISZERO PUSH1 0x8E JUMPI PUSH4 0x4E487B71 PUSH1 0xE0 SHL PUSH1 0x0 MSTORE PUSH1 0x11 PUSH1 0x4 MSTORE PUSH1 0x24 PUSH1 0x0 REVERT JUMPDEST POP PUSH1 0x1 ADD SWAP1 JUMP INVALID LOG2 PUSH5 0x6970667358 0x22 SLT KECCAK256 LOG2 SMOD 0xE 0x4E 0xD3 DUP4 DUP10 DUP1 PUSH17 0x8A3D1EA2204EDE2C2B1F64734422CDFA16 0xFB 0xE8 DIFFICULTY 0xCE SIGNEXTEND BLOCKHASH PUSH5 0x736F6C6343 STOP ADDMOD MULMOD STOP CALLER ","sha1":"b0732cece2901df0bfc57a03eb26f8209ab90c34","source":"//SPDX-License-Identifier:MIT\n\npragma solidity >=0.6.6;\n\n\n\n\ncontract test_try{\n// {   uint256 [] scan=[1,7,2,3];\n    uint public win=0;\n    \n    \n    function Increase() public\n    {   \n        win++;\n    }\n    \n \n    \n    \n}","sourcePath":"contracts/test.sol","type":"contract","deployment":{"address":"0xF006BCAB70Cf929De39c104523436ED861CF4B6B","chainid":"42","blockHeight":28307560}}